{
	"contracts/FixedArray.sol": {
		"FixedSizeArray": {
			"abi": [
				{
					"inputs": [],
					"name": "cleanValueInArray",
					"outputs": [],
					"stateMutability": "nonpayable",
					"type": "function"
				},
				{
					"inputs": [
						{
							"internalType": "uint256",
							"name": "toIndex",
							"type": "uint256"
						},
						{
							"internalType": "uint256",
							"name": "fromIndex",
							"type": "uint256"
						}
					],
					"name": "exchangeIndexValueInArray",
					"outputs": [],
					"stateMutability": "nonpayable",
					"type": "function"
				},
				{
					"inputs": [],
					"name": "getArray",
					"outputs": [
						{
							"internalType": "uint256[5]",
							"name": "",
							"type": "uint256[5]"
						}
					],
					"stateMutability": "view",
					"type": "function"
				},
				{
					"inputs": [],
					"name": "getLength",
					"outputs": [
						{
							"internalType": "uint256",
							"name": "",
							"type": "uint256"
						}
					],
					"stateMutability": "view",
					"type": "function"
				},
				{
					"inputs": [
						{
							"internalType": "uint256",
							"name": "index",
							"type": "uint256"
						}
					],
					"name": "getValueInArray",
					"outputs": [
						{
							"internalType": "uint256",
							"name": "",
							"type": "uint256"
						}
					],
					"stateMutability": "view",
					"type": "function"
				},
				{
					"inputs": [],
					"name": "insertDummyDataInArray",
					"outputs": [],
					"stateMutability": "nonpayable",
					"type": "function"
				},
				{
					"inputs": [],
					"name": "sortArrayUsingBubbleSort",
					"outputs": [],
					"stateMutability": "nonpayable",
					"type": "function"
				},
				{
					"inputs": [
						{
							"internalType": "uint256",
							"name": "index",
							"type": "uint256"
						},
						{
							"internalType": "uint256",
							"name": "value",
							"type": "uint256"
						}
					],
					"name": "updateValueInArray",
					"outputs": [],
					"stateMutability": "nonpayable",
					"type": "function"
				}
			],
			"devdoc": {
				"kind": "dev",
				"methods": {},
				"version": 1
			},
			"evm": {
				"assembly": "    /* \"contracts/FixedArray.sol\":74:1745  contract FixedSizeArray {... */\n  mstore(0x40, 0x80)\n  callvalue\n  dup1\n  iszero\n  tag_1\n  jumpi\n  0x00\n  dup1\n  revert\ntag_1:\n  pop\n  dataSize(sub_0)\n  dup1\n  dataOffset(sub_0)\n  0x00\n  codecopy\n  0x00\n  return\nstop\n\nsub_0: assembly {\n        /* \"contracts/FixedArray.sol\":74:1745  contract FixedSizeArray {... */\n      mstore(0x40, 0x80)\n      callvalue\n      dup1\n      iszero\n      tag_1\n      jumpi\n      0x00\n      dup1\n      revert\n    tag_1:\n      pop\n      jumpi(tag_2, lt(calldatasize, 0x04))\n      shr(0xe0, calldataload(0x00))\n      dup1\n      0x92d83768\n      gt\n      tag_11\n      jumpi\n      dup1\n      0x92d83768\n      eq\n      tag_7\n      jumpi\n      dup1\n      0x9f704154\n      eq\n      tag_8\n      jumpi\n      dup1\n      0xbe1c766b\n      eq\n      tag_9\n      jumpi\n      dup1\n      0xd504ea1d\n      eq\n      tag_10\n      jumpi\n      jump(tag_2)\n    tag_11:\n      dup1\n      0x1726abc0\n      eq\n      tag_3\n      jumpi\n      dup1\n      0x32fb874f\n      eq\n      tag_4\n      jumpi\n      dup1\n      0x823bed2d\n      eq\n      tag_5\n      jumpi\n      dup1\n      0x8abc4fb7\n      eq\n      tag_6\n      jumpi\n    tag_2:\n      0x00\n      dup1\n      revert\n        /* \"contracts/FixedArray.sol\":503:663  function updateValueInArray(uint index, uint value) public{... */\n    tag_3:\n      tag_12\n      0x04\n      dup1\n      calldatasize\n      sub\n      dup2\n      add\n      swap1\n      tag_13\n      swap2\n      swap1\n      tag_14\n      jump\t// in\n    tag_13:\n      tag_15\n      jump\t// in\n    tag_12:\n      stop\n        /* \"contracts/FixedArray.sol\":1248:1336  function insertDummyDataInArray() public{... */\n    tag_4:\n      tag_16\n      tag_17\n      jump\t// in\n    tag_16:\n      stop\n        /* \"contracts/FixedArray.sol\":671:818  function cleanValueInArray() public{... */\n    tag_5:\n      tag_18\n      tag_19\n      jump\t// in\n    tag_18:\n      stop\n        /* \"contracts/FixedArray.sol\":1344:1742  function sortArrayUsingBubbleSort() public {... */\n    tag_6:\n      tag_20\n      tag_21\n      jump\t// in\n    tag_20:\n      stop\n        /* \"contracts/FixedArray.sol\":826:1240  function exchangeIndexValueInArray(uint toIndex, uint fromIndex) public{... */\n    tag_7:\n      tag_22\n      0x04\n      dup1\n      calldatasize\n      sub\n      dup2\n      add\n      swap1\n      tag_23\n      swap2\n      swap1\n      tag_14\n      jump\t// in\n    tag_23:\n      tag_24\n      jump\t// in\n    tag_22:\n      stop\n        /* \"contracts/FixedArray.sol\":331:495  function getValueInArray(uint index) public view returns (uint){... */\n    tag_8:\n      tag_25\n      0x04\n      dup1\n      calldatasize\n      sub\n      dup2\n      add\n      swap1\n      tag_26\n      swap2\n      swap1\n      tag_27\n      jump\t// in\n    tag_26:\n      tag_28\n      jump\t// in\n    tag_25:\n      mload(0x40)\n      tag_29\n      swap2\n      swap1\n      tag_30\n      jump\t// in\n    tag_29:\n      mload(0x40)\n      dup1\n      swap2\n      sub\n      swap1\n      return\n        /* \"contracts/FixedArray.sol\":132:222  function getLength() public view returns (uint){... */\n    tag_9:\n      tag_31\n      tag_32\n      jump\t// in\n    tag_31:\n      mload(0x40)\n      tag_33\n      swap2\n      swap1\n      tag_30\n      jump\t// in\n    tag_33:\n      mload(0x40)\n      dup1\n      swap2\n      sub\n      swap1\n      return\n        /* \"contracts/FixedArray.sol\":230:323  function getArray() public view returns (uint[5]  memory){... */\n    tag_10:\n      tag_34\n      tag_35\n      jump\t// in\n    tag_34:\n      mload(0x40)\n      tag_36\n      swap2\n      swap1\n      tag_37\n      jump\t// in\n    tag_36:\n      mload(0x40)\n      dup1\n      swap2\n      sub\n      swap1\n      return\n        /* \"contracts/FixedArray.sol\":503:663  function updateValueInArray(uint index, uint value) public{... */\n    tag_15:\n        /* \"contracts/FixedArray.sol\":588:589  5 */\n      0x05\n        /* \"contracts/FixedArray.sol\":580:585  index */\n      dup3\n        /* \"contracts/FixedArray.sol\":580:589  index < 5 */\n      lt\n        /* \"contracts/FixedArray.sol\":572:619  require(index < 5, \"Index must be less then 5\") */\n      tag_39\n      jumpi\n      mload(0x40)\n      0x08c379a000000000000000000000000000000000000000000000000000000000\n      dup2\n      mstore\n      0x04\n      add\n      tag_40\n      swap1\n      tag_41\n      jump\t// in\n    tag_40:\n      mload(0x40)\n      dup1\n      swap2\n      sub\n      swap1\n      revert\n    tag_39:\n        /* \"contracts/FixedArray.sol\":650:655  value */\n      dup1\n        /* \"contracts/FixedArray.sol\":630:640  fixedArray */\n      0x00\n        /* \"contracts/FixedArray.sol\":641:646  index */\n      dup4\n        /* \"contracts/FixedArray.sol\":630:647  fixedArray[index] */\n      0x05\n      dup2\n      lt\n      tag_42\n      jumpi\n      tag_43\n      tag_44\n      jump\t// in\n    tag_43:\n    tag_42:\n      add\n        /* \"contracts/FixedArray.sol\":630:655  fixedArray[index] = value */\n      dup2\n      swap1\n      sstore\n      pop\n        /* \"contracts/FixedArray.sol\":503:663  function updateValueInArray(uint index, uint value) public{... */\n      pop\n      pop\n      jump\t// out\n        /* \"contracts/FixedArray.sol\":1248:1336  function insertDummyDataInArray() public{... */\n    tag_17:\n        /* \"contracts/FixedArray.sol\":1299:1328  fixedArray = [10,20,90,10,30] */\n      mload(0x40)\n      dup1\n      0xa0\n      add\n      0x40\n      mstore\n      dup1\n        /* \"contracts/FixedArray.sol\":1313:1315  10 */\n      0x0a\n        /* \"contracts/FixedArray.sol\":1299:1328  fixedArray = [10,20,90,10,30] */\n      0xff\n      and\n      dup2\n      mstore\n      0x20\n      add\n        /* \"contracts/FixedArray.sol\":1316:1318  20 */\n      0x14\n        /* \"contracts/FixedArray.sol\":1299:1328  fixedArray = [10,20,90,10,30] */\n      0xff\n      and\n      dup2\n      mstore\n      0x20\n      add\n        /* \"contracts/FixedArray.sol\":1319:1321  90 */\n      0x5a\n        /* \"contracts/FixedArray.sol\":1299:1328  fixedArray = [10,20,90,10,30] */\n      0xff\n      and\n      dup2\n      mstore\n      0x20\n      add\n        /* \"contracts/FixedArray.sol\":1322:1324  10 */\n      0x0a\n        /* \"contracts/FixedArray.sol\":1299:1328  fixedArray = [10,20,90,10,30] */\n      0xff\n      and\n      dup2\n      mstore\n      0x20\n      add\n        /* \"contracts/FixedArray.sol\":1325:1327  30 */\n      0x1e\n        /* \"contracts/FixedArray.sol\":1299:1328  fixedArray = [10,20,90,10,30] */\n      0xff\n      and\n      dup2\n      mstore\n      pop\n        /* \"contracts/FixedArray.sol\":1299:1309  fixedArray */\n      0x00\n        /* \"contracts/FixedArray.sol\":1299:1328  fixedArray = [10,20,90,10,30] */\n      swap1\n      0x05\n      tag_47\n      swap3\n      swap2\n      swap1\n      tag_48\n      jump\t// in\n    tag_47:\n      pop\n        /* \"contracts/FixedArray.sol\":1248:1336  function insertDummyDataInArray() public{... */\n      jump\t// out\n        /* \"contracts/FixedArray.sol\":671:818  function cleanValueInArray() public{... */\n    tag_19:\n        /* \"contracts/FixedArray.sol\":721:727  uint i */\n      0x00\n        /* \"contracts/FixedArray.sol\":717:811  for(uint i = 0 ; i < fixedArray.length; i++){... */\n    tag_50:\n        /* \"contracts/FixedArray.sol\":738:755  fixedArray.length */\n      0x05\n        /* \"contracts/FixedArray.sol\":734:735  i */\n      dup2\n        /* \"contracts/FixedArray.sol\":734:755  i < fixedArray.length */\n      lt\n        /* \"contracts/FixedArray.sol\":717:811  for(uint i = 0 ; i < fixedArray.length; i++){... */\n      iszero\n      tag_51\n      jumpi\n        /* \"contracts/FixedArray.sol\":797:798  0 */\n      0x00\n        /* \"contracts/FixedArray.sol\":776:786  fixedArray */\n      dup1\n        /* \"contracts/FixedArray.sol\":787:788  i */\n      dup3\n        /* \"contracts/FixedArray.sol\":776:789  fixedArray[i] */\n      0x05\n      dup2\n      lt\n      tag_53\n      jumpi\n      tag_54\n      tag_44\n      jump\t// in\n    tag_54:\n    tag_53:\n      add\n        /* \"contracts/FixedArray.sol\":776:799  fixedArray[i] = uint(0) */\n      dup2\n      swap1\n      sstore\n      pop\n        /* \"contracts/FixedArray.sol\":757:760  i++ */\n      dup1\n      dup1\n      0x01\n      add\n      swap2\n      pop\n      pop\n        /* \"contracts/FixedArray.sol\":717:811  for(uint i = 0 ; i < fixedArray.length; i++){... */\n      jump(tag_50)\n    tag_51:\n      pop\n        /* \"contracts/FixedArray.sol\":671:818  function cleanValueInArray() public{... */\n      jump\t// out\n        /* \"contracts/FixedArray.sol\":1344:1742  function sortArrayUsingBubbleSort() public {... */\n    tag_21:\n        /* \"contracts/FixedArray.sol\":1402:1408  uint i */\n      0x00\n        /* \"contracts/FixedArray.sol\":1398:1735  for(uint i = 0 ; i < fixedArray.length; i++){... */\n    tag_57:\n        /* \"contracts/FixedArray.sol\":1419:1436  fixedArray.length */\n      0x05\n        /* \"contracts/FixedArray.sol\":1415:1416  i */\n      dup2\n        /* \"contracts/FixedArray.sol\":1415:1436  i < fixedArray.length */\n      lt\n        /* \"contracts/FixedArray.sol\":1398:1735  for(uint i = 0 ; i < fixedArray.length; i++){... */\n      iszero\n      tag_58\n      jumpi\n        /* \"contracts/FixedArray.sol\":1461:1467  uint j */\n      0x00\n        /* \"contracts/FixedArray.sol\":1457:1724  for(uint j = 0 ; j < (fixedArray.length - 1)- i; j++){... */\n    tag_60:\n        /* \"contracts/FixedArray.sol\":1503:1504  i */\n      dup2\n        /* \"contracts/FixedArray.sol\":1499:1500  1 */\n      0x01\n        /* \"contracts/FixedArray.sol\":1479:1496  fixedArray.length */\n      0x05\n        /* \"contracts/FixedArray.sol\":1479:1500  fixedArray.length - 1 */\n      tag_63\n      swap2\n      swap1\n      tag_64\n      jump\t// in\n    tag_63:\n        /* \"contracts/FixedArray.sol\":1478:1504  (fixedArray.length - 1)- i */\n      tag_65\n      swap2\n      swap1\n      tag_64\n      jump\t// in\n    tag_65:\n        /* \"contracts/FixedArray.sol\":1474:1475  j */\n      dup2\n        /* \"contracts/FixedArray.sol\":1474:1504  j < (fixedArray.length - 1)- i */\n      lt\n        /* \"contracts/FixedArray.sol\":1457:1724  for(uint j = 0 ; j < (fixedArray.length - 1)- i; j++){... */\n      iszero\n      tag_61\n      jumpi\n        /* \"contracts/FixedArray.sol\":1544:1554  fixedArray */\n      0x00\n        /* \"contracts/FixedArray.sol\":1557:1558  1 */\n      0x01\n        /* \"contracts/FixedArray.sol\":1555:1556  j */\n      dup3\n        /* \"contracts/FixedArray.sol\":1555:1558  j+1 */\n      tag_66\n      swap2\n      swap1\n      tag_67\n      jump\t// in\n    tag_66:\n        /* \"contracts/FixedArray.sol\":1544:1559  fixedArray[j+1] */\n      0x05\n      dup2\n      lt\n      tag_68\n      jumpi\n      tag_69\n      tag_44\n      jump\t// in\n    tag_69:\n    tag_68:\n      add\n      sload\n        /* \"contracts/FixedArray.sol\":1528:1538  fixedArray */\n      0x00\n        /* \"contracts/FixedArray.sol\":1539:1540  j */\n      dup3\n        /* \"contracts/FixedArray.sol\":1528:1541  fixedArray[j] */\n      0x05\n      dup2\n      lt\n      tag_71\n      jumpi\n      tag_72\n      tag_44\n      jump\t// in\n    tag_72:\n    tag_71:\n      add\n      sload\n        /* \"contracts/FixedArray.sol\":1528:1559  fixedArray[j] > fixedArray[j+1] */\n      gt\n        /* \"contracts/FixedArray.sol\":1525:1713  if(fixedArray[j] > fixedArray[j+1]){... */\n      iszero\n      tag_74\n      jumpi\n        /* \"contracts/FixedArray.sol\":1579:1589  uint value */\n      0x00\n        /* \"contracts/FixedArray.sol\":1592:1602  fixedArray */\n      dup1\n        /* \"contracts/FixedArray.sol\":1605:1606  1 */\n      0x01\n        /* \"contracts/FixedArray.sol\":1603:1604  j */\n      dup4\n        /* \"contracts/FixedArray.sol\":1603:1606  j+1 */\n      tag_75\n      swap2\n      swap1\n      tag_67\n      jump\t// in\n    tag_75:\n        /* \"contracts/FixedArray.sol\":1592:1607  fixedArray[j+1] */\n      0x05\n      dup2\n      lt\n      tag_76\n      jumpi\n      tag_77\n      tag_44\n      jump\t// in\n    tag_77:\n    tag_76:\n      add\n      sload\n        /* \"contracts/FixedArray.sol\":1579:1607  uint value = fixedArray[j+1] */\n      swap1\n      pop\n        /* \"contracts/FixedArray.sol\":1644:1654  fixedArray */\n      0x00\n        /* \"contracts/FixedArray.sol\":1655:1656  j */\n      dup3\n        /* \"contracts/FixedArray.sol\":1644:1657  fixedArray[j] */\n      0x05\n      dup2\n      lt\n      tag_79\n      jumpi\n      tag_80\n      tag_44\n      jump\t// in\n    tag_80:\n    tag_79:\n      add\n      sload\n        /* \"contracts/FixedArray.sol\":1626:1636  fixedArray */\n      0x00\n        /* \"contracts/FixedArray.sol\":1639:1640  1 */\n      0x01\n        /* \"contracts/FixedArray.sol\":1637:1638  j */\n      dup5\n        /* \"contracts/FixedArray.sol\":1637:1640  j+1 */\n      tag_82\n      swap2\n      swap1\n      tag_67\n      jump\t// in\n    tag_82:\n        /* \"contracts/FixedArray.sol\":1626:1641  fixedArray[j+1] */\n      0x05\n      dup2\n      lt\n      tag_83\n      jumpi\n      tag_84\n      tag_44\n      jump\t// in\n    tag_84:\n    tag_83:\n      add\n        /* \"contracts/FixedArray.sol\":1626:1657  fixedArray[j+1] = fixedArray[j] */\n      dup2\n      swap1\n      sstore\n      pop\n        /* \"contracts/FixedArray.sol\":1692:1697  value */\n      dup1\n        /* \"contracts/FixedArray.sol\":1676:1686  fixedArray */\n      0x00\n        /* \"contracts/FixedArray.sol\":1687:1688  j */\n      dup4\n        /* \"contracts/FixedArray.sol\":1676:1689  fixedArray[j] */\n      0x05\n      dup2\n      lt\n      tag_86\n      jumpi\n      tag_87\n      tag_44\n      jump\t// in\n    tag_87:\n    tag_86:\n      add\n        /* \"contracts/FixedArray.sol\":1676:1697  fixedArray[j] = value */\n      dup2\n      swap1\n      sstore\n      pop\n        /* \"contracts/FixedArray.sol\":1560:1713  {... */\n      pop\n        /* \"contracts/FixedArray.sol\":1525:1713  if(fixedArray[j] > fixedArray[j+1]){... */\n    tag_74:\n        /* \"contracts/FixedArray.sol\":1506:1509  j++ */\n      dup1\n      dup1\n      0x01\n      add\n      swap2\n      pop\n      pop\n        /* \"contracts/FixedArray.sol\":1457:1724  for(uint j = 0 ; j < (fixedArray.length - 1)- i; j++){... */\n      jump(tag_60)\n    tag_61:\n      pop\n        /* \"contracts/FixedArray.sol\":1438:1441  i++ */\n      dup1\n      dup1\n      0x01\n      add\n      swap2\n      pop\n      pop\n        /* \"contracts/FixedArray.sol\":1398:1735  for(uint i = 0 ; i < fixedArray.length; i++){... */\n      jump(tag_57)\n    tag_58:\n      pop\n        /* \"contracts/FixedArray.sol\":1344:1742  function sortArrayUsingBubbleSort() public {... */\n      jump\t// out\n        /* \"contracts/FixedArray.sol\":826:1240  function exchangeIndexValueInArray(uint toIndex, uint fromIndex) public{... */\n    tag_24:\n        /* \"contracts/FixedArray.sol\":926:927  5 */\n      0x05\n        /* \"contracts/FixedArray.sol\":916:923  toIndex */\n      dup3\n        /* \"contracts/FixedArray.sol\":916:927  toIndex < 5 */\n      lt\n        /* \"contracts/FixedArray.sol\":908:960  require(toIndex < 5 , \"toIndex must be less then 5\") */\n      tag_90\n      jumpi\n      mload(0x40)\n      0x08c379a000000000000000000000000000000000000000000000000000000000\n      dup2\n      mstore\n      0x04\n      add\n      tag_91\n      swap1\n      tag_92\n      jump\t// in\n    tag_91:\n      mload(0x40)\n      dup1\n      swap2\n      sub\n      swap1\n      revert\n    tag_90:\n        /* \"contracts/FixedArray.sol\":991:992  5 */\n      0x05\n        /* \"contracts/FixedArray.sol\":979:988  fromIndex */\n      dup2\n        /* \"contracts/FixedArray.sol\":979:992  fromIndex < 5 */\n      lt\n        /* \"contracts/FixedArray.sol\":971:1027  require(fromIndex < 5 , \"fromIndex must be less then 5\") */\n      tag_93\n      jumpi\n      mload(0x40)\n      0x08c379a000000000000000000000000000000000000000000000000000000000\n      dup2\n      mstore\n      0x04\n      add\n      tag_94\n      swap1\n      tag_95\n      jump\t// in\n    tag_94:\n      mload(0x40)\n      dup1\n      swap2\n      sub\n      swap1\n      revert\n    tag_93:\n        /* \"contracts/FixedArray.sol\":1058:1067  fromIndex */\n      dup1\n        /* \"contracts/FixedArray.sol\":1047:1054  toIndex */\n      dup3\n        /* \"contracts/FixedArray.sol\":1047:1067  toIndex != fromIndex */\n      sub\n        /* \"contracts/FixedArray.sol\":1038:1095  require( toIndex != fromIndex, \"Index must be different\") */\n      tag_96\n      jumpi\n      mload(0x40)\n      0x08c379a000000000000000000000000000000000000000000000000000000000\n      dup2\n      mstore\n      0x04\n      add\n      tag_97\n      swap1\n      tag_98\n      jump\t// in\n    tag_97:\n      mload(0x40)\n      dup1\n      swap2\n      sub\n      swap1\n      revert\n    tag_96:\n        /* \"contracts/FixedArray.sol\":1106:1116  uint value */\n      0x00\n        /* \"contracts/FixedArray.sol\":1119:1129  fixedArray */\n      dup1\n        /* \"contracts/FixedArray.sol\":1130:1137  toIndex */\n      dup4\n        /* \"contracts/FixedArray.sol\":1119:1138  fixedArray[toIndex] */\n      0x05\n      dup2\n      lt\n      tag_99\n      jumpi\n      tag_100\n      tag_44\n      jump\t// in\n    tag_100:\n    tag_99:\n      add\n      sload\n        /* \"contracts/FixedArray.sol\":1106:1138  uint value = fixedArray[toIndex] */\n      swap1\n      pop\n        /* \"contracts/FixedArray.sol\":1171:1181  fixedArray */\n      0x00\n        /* \"contracts/FixedArray.sol\":1182:1191  fromIndex */\n      dup3\n        /* \"contracts/FixedArray.sol\":1171:1192  fixedArray[fromIndex] */\n      0x05\n      dup2\n      lt\n      tag_102\n      jumpi\n      tag_103\n      tag_44\n      jump\t// in\n    tag_103:\n    tag_102:\n      add\n      sload\n        /* \"contracts/FixedArray.sol\":1149:1159  fixedArray */\n      0x00\n        /* \"contracts/FixedArray.sol\":1160:1167  toIndex */\n      dup5\n        /* \"contracts/FixedArray.sol\":1149:1168  fixedArray[toIndex] */\n      0x05\n      dup2\n      lt\n      tag_105\n      jumpi\n      tag_106\n      tag_44\n      jump\t// in\n    tag_106:\n    tag_105:\n      add\n        /* \"contracts/FixedArray.sol\":1149:1192  fixedArray[toIndex] = fixedArray[fromIndex] */\n      dup2\n      swap1\n      sstore\n      pop\n        /* \"contracts/FixedArray.sol\":1227:1232  value */\n      dup1\n        /* \"contracts/FixedArray.sol\":1203:1213  fixedArray */\n      0x00\n        /* \"contracts/FixedArray.sol\":1214:1223  fromIndex */\n      dup4\n        /* \"contracts/FixedArray.sol\":1203:1224  fixedArray[fromIndex] */\n      0x05\n      dup2\n      lt\n      tag_108\n      jumpi\n      tag_109\n      tag_44\n      jump\t// in\n    tag_109:\n    tag_108:\n      add\n        /* \"contracts/FixedArray.sol\":1203:1232  fixedArray[fromIndex] = value */\n      dup2\n      swap1\n      sstore\n      pop\n        /* \"contracts/FixedArray.sol\":897:1240  {... */\n      pop\n        /* \"contracts/FixedArray.sol\":826:1240  function exchangeIndexValueInArray(uint toIndex, uint fromIndex) public{... */\n      pop\n      pop\n      jump\t// out\n        /* \"contracts/FixedArray.sol\":331:495  function getValueInArray(uint index) public view returns (uint){... */\n    tag_28:\n        /* \"contracts/FixedArray.sol\":389:393  uint */\n      0x00\n        /* \"contracts/FixedArray.sol\":421:422  5 */\n      0x05\n        /* \"contracts/FixedArray.sol\":413:418  index */\n      dup3\n        /* \"contracts/FixedArray.sol\":413:422  index < 5 */\n      lt\n        /* \"contracts/FixedArray.sol\":405:452  require(index < 5, \"Index must be less then 5\") */\n      tag_112\n      jumpi\n      mload(0x40)\n      0x08c379a000000000000000000000000000000000000000000000000000000000\n      dup2\n      mstore\n      0x04\n      add\n      tag_113\n      swap1\n      tag_41\n      jump\t// in\n    tag_113:\n      mload(0x40)\n      dup1\n      swap2\n      sub\n      swap1\n      revert\n    tag_112:\n        /* \"contracts/FixedArray.sol\":470:480  fixedArray */\n      0x00\n        /* \"contracts/FixedArray.sol\":481:486  index */\n      dup3\n        /* \"contracts/FixedArray.sol\":470:487  fixedArray[index] */\n      0x05\n      dup2\n      lt\n      tag_114\n      jumpi\n      tag_115\n      tag_44\n      jump\t// in\n    tag_115:\n    tag_114:\n      add\n      sload\n        /* \"contracts/FixedArray.sol\":463:487  return fixedArray[index] */\n      swap1\n      pop\n        /* \"contracts/FixedArray.sol\":331:495  function getValueInArray(uint index) public view returns (uint){... */\n      swap2\n      swap1\n      pop\n      jump\t// out\n        /* \"contracts/FixedArray.sol\":132:222  function getLength() public view returns (uint){... */\n    tag_32:\n        /* \"contracts/FixedArray.sol\":174:178  uint */\n      0x00\n        /* \"contracts/FixedArray.sol\":197:214  fixedArray.length */\n      0x05\n        /* \"contracts/FixedArray.sol\":190:214  return fixedArray.length */\n      swap1\n      pop\n        /* \"contracts/FixedArray.sol\":132:222  function getLength() public view returns (uint){... */\n      swap1\n      jump\t// out\n        /* \"contracts/FixedArray.sol\":230:323  function getArray() public view returns (uint[5]  memory){... */\n    tag_35:\n        /* \"contracts/FixedArray.sol\":271:286  uint[5]  memory */\n      tag_118\n      tag_119\n      jump\t// in\n    tag_118:\n        /* \"contracts/FixedArray.sol\":305:315  fixedArray */\n      0x00\n        /* \"contracts/FixedArray.sol\":298:315  return fixedArray */\n      0x05\n      dup1\n      0x20\n      mul\n      mload(0x40)\n      swap1\n      dup2\n      add\n      0x40\n      mstore\n      dup1\n      swap3\n      swap2\n      swap1\n      dup3\n      0x05\n      dup1\n      iszero\n      tag_121\n      jumpi\n      0x20\n      mul\n      dup3\n      add\n      swap2\n    tag_122:\n      dup2\n      sload\n      dup2\n      mstore\n      0x20\n      add\n      swap1\n      0x01\n      add\n      swap1\n      dup1\n      dup4\n      gt\n      tag_122\n      jumpi\n    tag_121:\n      pop\n      pop\n      pop\n      pop\n      pop\n      swap1\n      pop\n        /* \"contracts/FixedArray.sol\":230:323  function getArray() public view returns (uint[5]  memory){... */\n      swap1\n      jump\t// out\n    tag_48:\n      dup3\n      0x05\n      dup2\n      add\n      swap3\n      dup3\n      iszero\n      tag_123\n      jumpi\n      swap2\n      0x20\n      mul\n      dup3\n      add\n    tag_124:\n      dup3\n      dup2\n      gt\n      iszero\n      tag_125\n      jumpi\n      dup3\n      mload\n      dup3\n      swap1\n      0xff\n      and\n      swap1\n      sstore\n      swap2\n      0x20\n      add\n      swap2\n      swap1\n      0x01\n      add\n      swap1\n      jump(tag_124)\n    tag_125:\n    tag_123:\n      pop\n      swap1\n      pop\n      tag_126\n      swap2\n      swap1\n      tag_127\n      jump\t// in\n    tag_126:\n      pop\n      swap1\n      jump\t// out\n    tag_119:\n      mload(0x40)\n      dup1\n      0xa0\n      add\n      0x40\n      mstore\n      dup1\n      0x05\n      swap1\n      0x20\n      dup3\n      mul\n      dup1\n      calldatasize\n      dup4\n      calldatacopy\n      dup1\n      dup3\n      add\n      swap2\n      pop\n      pop\n      swap1\n      pop\n      pop\n      swap1\n      jump\t// out\n    tag_127:\n    tag_128:\n      dup1\n      dup3\n      gt\n      iszero\n      tag_129\n      jumpi\n      0x00\n      dup2\n      0x00\n      swap1\n      sstore\n      pop\n      0x01\n      add\n      jump(tag_128)\n    tag_129:\n      pop\n      swap1\n      jump\t// out\n        /* \"#utility.yul\":88:205   */\n    tag_131:\n        /* \"#utility.yul\":197:198   */\n      0x00\n        /* \"#utility.yul\":194:195   */\n      dup1\n        /* \"#utility.yul\":187:199   */\n      revert\n        /* \"#utility.yul\":334:411   */\n    tag_133:\n        /* \"#utility.yul\":371:378   */\n      0x00\n        /* \"#utility.yul\":400:405   */\n      dup2\n        /* \"#utility.yul\":389:405   */\n      swap1\n      pop\n        /* \"#utility.yul\":334:411   */\n      swap2\n      swap1\n      pop\n      jump\t// out\n        /* \"#utility.yul\":417:539   */\n    tag_134:\n        /* \"#utility.yul\":490:514   */\n      tag_160\n        /* \"#utility.yul\":508:513   */\n      dup2\n        /* \"#utility.yul\":490:514   */\n      tag_133\n      jump\t// in\n    tag_160:\n        /* \"#utility.yul\":483:488   */\n      dup2\n        /* \"#utility.yul\":480:515   */\n      eq\n        /* \"#utility.yul\":470:533   */\n      tag_161\n      jumpi\n        /* \"#utility.yul\":529:530   */\n      0x00\n        /* \"#utility.yul\":526:527   */\n      dup1\n        /* \"#utility.yul\":519:531   */\n      revert\n        /* \"#utility.yul\":470:533   */\n    tag_161:\n        /* \"#utility.yul\":417:539   */\n      pop\n      jump\t// out\n        /* \"#utility.yul\":545:684   */\n    tag_135:\n        /* \"#utility.yul\":591:596   */\n      0x00\n        /* \"#utility.yul\":629:635   */\n      dup2\n        /* \"#utility.yul\":616:636   */\n      calldataload\n        /* \"#utility.yul\":607:636   */\n      swap1\n      pop\n        /* \"#utility.yul\":645:678   */\n      tag_163\n        /* \"#utility.yul\":672:677   */\n      dup2\n        /* \"#utility.yul\":645:678   */\n      tag_134\n      jump\t// in\n    tag_163:\n        /* \"#utility.yul\":545:684   */\n      swap3\n      swap2\n      pop\n      pop\n      jump\t// out\n        /* \"#utility.yul\":690:1164   */\n    tag_14:\n        /* \"#utility.yul\":758:764   */\n      0x00\n        /* \"#utility.yul\":766:772   */\n      dup1\n        /* \"#utility.yul\":815:817   */\n      0x40\n        /* \"#utility.yul\":803:812   */\n      dup4\n        /* \"#utility.yul\":794:801   */\n      dup6\n        /* \"#utility.yul\":790:813   */\n      sub\n        /* \"#utility.yul\":786:818   */\n      slt\n        /* \"#utility.yul\":783:902   */\n      iszero\n      tag_165\n      jumpi\n        /* \"#utility.yul\":821:900   */\n      tag_166\n      tag_131\n      jump\t// in\n    tag_166:\n        /* \"#utility.yul\":783:902   */\n    tag_165:\n        /* \"#utility.yul\":941:942   */\n      0x00\n        /* \"#utility.yul\":966:1019   */\n      tag_167\n        /* \"#utility.yul\":1011:1018   */\n      dup6\n        /* \"#utility.yul\":1002:1008   */\n      dup3\n        /* \"#utility.yul\":991:1000   */\n      dup7\n        /* \"#utility.yul\":987:1009   */\n      add\n        /* \"#utility.yul\":966:1019   */\n      tag_135\n      jump\t// in\n    tag_167:\n        /* \"#utility.yul\":956:1019   */\n      swap3\n      pop\n        /* \"#utility.yul\":912:1029   */\n      pop\n        /* \"#utility.yul\":1068:1070   */\n      0x20\n        /* \"#utility.yul\":1094:1147   */\n      tag_168\n        /* \"#utility.yul\":1139:1146   */\n      dup6\n        /* \"#utility.yul\":1130:1136   */\n      dup3\n        /* \"#utility.yul\":1119:1128   */\n      dup7\n        /* \"#utility.yul\":1115:1137   */\n      add\n        /* \"#utility.yul\":1094:1147   */\n      tag_135\n      jump\t// in\n    tag_168:\n        /* \"#utility.yul\":1084:1147   */\n      swap2\n      pop\n        /* \"#utility.yul\":1039:1157   */\n      pop\n        /* \"#utility.yul\":690:1164   */\n      swap3\n      pop\n      swap3\n      swap1\n      pop\n      jump\t// out\n        /* \"#utility.yul\":1170:1499   */\n    tag_27:\n        /* \"#utility.yul\":1229:1235   */\n      0x00\n        /* \"#utility.yul\":1278:1280   */\n      0x20\n        /* \"#utility.yul\":1266:1275   */\n      dup3\n        /* \"#utility.yul\":1257:1264   */\n      dup5\n        /* \"#utility.yul\":1253:1276   */\n      sub\n        /* \"#utility.yul\":1249:1281   */\n      slt\n        /* \"#utility.yul\":1246:1365   */\n      iszero\n      tag_170\n      jumpi\n        /* \"#utility.yul\":1284:1363   */\n      tag_171\n      tag_131\n      jump\t// in\n    tag_171:\n        /* \"#utility.yul\":1246:1365   */\n    tag_170:\n        /* \"#utility.yul\":1404:1405   */\n      0x00\n        /* \"#utility.yul\":1429:1482   */\n      tag_172\n        /* \"#utility.yul\":1474:1481   */\n      dup5\n        /* \"#utility.yul\":1465:1471   */\n      dup3\n        /* \"#utility.yul\":1454:1463   */\n      dup6\n        /* \"#utility.yul\":1450:1472   */\n      add\n        /* \"#utility.yul\":1429:1482   */\n      tag_135\n      jump\t// in\n    tag_172:\n        /* \"#utility.yul\":1419:1482   */\n      swap2\n      pop\n        /* \"#utility.yul\":1375:1492   */\n      pop\n        /* \"#utility.yul\":1170:1499   */\n      swap3\n      swap2\n      pop\n      pop\n      jump\t// out\n        /* \"#utility.yul\":1505:1623   */\n    tag_136:\n        /* \"#utility.yul\":1592:1616   */\n      tag_174\n        /* \"#utility.yul\":1610:1615   */\n      dup2\n        /* \"#utility.yul\":1592:1616   */\n      tag_133\n      jump\t// in\n    tag_174:\n        /* \"#utility.yul\":1587:1590   */\n      dup3\n        /* \"#utility.yul\":1580:1617   */\n      mstore\n        /* \"#utility.yul\":1505:1623   */\n      pop\n      pop\n      jump\t// out\n        /* \"#utility.yul\":1629:1851   */\n    tag_30:\n        /* \"#utility.yul\":1722:1726   */\n      0x00\n        /* \"#utility.yul\":1760:1762   */\n      0x20\n        /* \"#utility.yul\":1749:1758   */\n      dup3\n        /* \"#utility.yul\":1745:1763   */\n      add\n        /* \"#utility.yul\":1737:1763   */\n      swap1\n      pop\n        /* \"#utility.yul\":1773:1844   */\n      tag_176\n        /* \"#utility.yul\":1841:1842   */\n      0x00\n        /* \"#utility.yul\":1830:1839   */\n      dup4\n        /* \"#utility.yul\":1826:1843   */\n      add\n        /* \"#utility.yul\":1817:1823   */\n      dup5\n        /* \"#utility.yul\":1773:1844   */\n      tag_136\n      jump\t// in\n    tag_176:\n        /* \"#utility.yul\":1629:1851   */\n      swap3\n      swap2\n      pop\n      pop\n      jump\t// out\n        /* \"#utility.yul\":1857:1961   */\n    tag_137:\n        /* \"#utility.yul\":1922:1928   */\n      0x00\n        /* \"#utility.yul\":1950:1954   */\n      0x05\n        /* \"#utility.yul\":1940:1954   */\n      swap1\n      pop\n        /* \"#utility.yul\":1857:1961   */\n      swap2\n      swap1\n      pop\n      jump\t// out\n        /* \"#utility.yul\":1967:2110   */\n    tag_138:\n        /* \"#utility.yul\":2064:2075   */\n      0x00\n        /* \"#utility.yul\":2101:2104   */\n      dup2\n        /* \"#utility.yul\":2086:2104   */\n      swap1\n      pop\n        /* \"#utility.yul\":1967:2110   */\n      swap3\n      swap2\n      pop\n      pop\n      jump\t// out\n        /* \"#utility.yul\":2116:2214   */\n    tag_139:\n        /* \"#utility.yul\":2181:2185   */\n      0x00\n        /* \"#utility.yul\":2204:2207   */\n      dup2\n        /* \"#utility.yul\":2196:2207   */\n      swap1\n      pop\n        /* \"#utility.yul\":2116:2214   */\n      swap2\n      swap1\n      pop\n      jump\t// out\n        /* \"#utility.yul\":2220:2328   */\n    tag_140:\n        /* \"#utility.yul\":2297:2321   */\n      tag_181\n        /* \"#utility.yul\":2315:2320   */\n      dup2\n        /* \"#utility.yul\":2297:2321   */\n      tag_133\n      jump\t// in\n    tag_181:\n        /* \"#utility.yul\":2292:2295   */\n      dup3\n        /* \"#utility.yul\":2285:2322   */\n      mstore\n        /* \"#utility.yul\":2220:2328   */\n      pop\n      pop\n      jump\t// out\n        /* \"#utility.yul\":2334:2513   */\n    tag_141:\n        /* \"#utility.yul\":2403:2413   */\n      0x00\n        /* \"#utility.yul\":2424:2470   */\n      tag_183\n        /* \"#utility.yul\":2466:2469   */\n      dup4\n        /* \"#utility.yul\":2458:2464   */\n      dup4\n        /* \"#utility.yul\":2424:2470   */\n      tag_140\n      jump\t// in\n    tag_183:\n        /* \"#utility.yul\":2502:2506   */\n      0x20\n        /* \"#utility.yul\":2497:2500   */\n      dup4\n        /* \"#utility.yul\":2493:2507   */\n      add\n        /* \"#utility.yul\":2479:2507   */\n      swap1\n      pop\n        /* \"#utility.yul\":2334:2513   */\n      swap3\n      swap2\n      pop\n      pop\n      jump\t// out\n        /* \"#utility.yul\":2519:2630   */\n    tag_142:\n        /* \"#utility.yul\":2587:2591   */\n      0x00\n        /* \"#utility.yul\":2619:2623   */\n      0x20\n        /* \"#utility.yul\":2614:2617   */\n      dup3\n        /* \"#utility.yul\":2610:2624   */\n      add\n        /* \"#utility.yul\":2602:2624   */\n      swap1\n      pop\n        /* \"#utility.yul\":2519:2630   */\n      swap2\n      swap1\n      pop\n      jump\t// out\n        /* \"#utility.yul\":2668:3362   */\n    tag_143:\n        /* \"#utility.yul\":2804:2856   */\n      tag_186\n        /* \"#utility.yul\":2850:2855   */\n      dup2\n        /* \"#utility.yul\":2804:2856   */\n      tag_137\n      jump\t// in\n    tag_186:\n        /* \"#utility.yul\":2872:2956   */\n      tag_187\n        /* \"#utility.yul\":2949:2955   */\n      dup2\n        /* \"#utility.yul\":2944:2947   */\n      dup5\n        /* \"#utility.yul\":2872:2956   */\n      tag_138\n      jump\t// in\n    tag_187:\n        /* \"#utility.yul\":2865:2956   */\n      swap3\n      pop\n        /* \"#utility.yul\":2980:3034   */\n      tag_188\n        /* \"#utility.yul\":3028:3033   */\n      dup3\n        /* \"#utility.yul\":2980:3034   */\n      tag_139\n      jump\t// in\n    tag_188:\n        /* \"#utility.yul\":3057:3064   */\n      dup1\n        /* \"#utility.yul\":3088:3089   */\n      0x00\n        /* \"#utility.yul\":3073:3355   */\n    tag_189:\n        /* \"#utility.yul\":3098:3104   */\n      dup4\n        /* \"#utility.yul\":3095:3096   */\n      dup2\n        /* \"#utility.yul\":3092:3105   */\n      lt\n        /* \"#utility.yul\":3073:3355   */\n      iszero\n      tag_191\n      jumpi\n        /* \"#utility.yul\":3174:3180   */\n      dup2\n        /* \"#utility.yul\":3168:3181   */\n      mload\n        /* \"#utility.yul\":3201:3264   */\n      tag_192\n        /* \"#utility.yul\":3260:3263   */\n      dup8\n        /* \"#utility.yul\":3245:3258   */\n      dup3\n        /* \"#utility.yul\":3201:3264   */\n      tag_141\n      jump\t// in\n    tag_192:\n        /* \"#utility.yul\":3194:3264   */\n      swap7\n      pop\n        /* \"#utility.yul\":3287:3345   */\n      tag_193\n        /* \"#utility.yul\":3338:3344   */\n      dup4\n        /* \"#utility.yul\":3287:3345   */\n      tag_142\n      jump\t// in\n    tag_193:\n        /* \"#utility.yul\":3277:3345   */\n      swap3\n      pop\n        /* \"#utility.yul\":3133:3355   */\n      pop\n        /* \"#utility.yul\":3120:3121   */\n      0x01\n        /* \"#utility.yul\":3117:3118   */\n      dup2\n        /* \"#utility.yul\":3113:3122   */\n      add\n        /* \"#utility.yul\":3108:3122   */\n      swap1\n      pop\n        /* \"#utility.yul\":3073:3355   */\n      jump(tag_189)\n    tag_191:\n        /* \"#utility.yul\":3077:3091   */\n      pop\n        /* \"#utility.yul\":2780:3362   */\n      pop\n      pop\n      pop\n        /* \"#utility.yul\":2668:3362   */\n      pop\n      pop\n      jump\t// out\n        /* \"#utility.yul\":3368:3683   */\n    tag_37:\n        /* \"#utility.yul\":3507:3511   */\n      0x00\n        /* \"#utility.yul\":3545:3548   */\n      0xa0\n        /* \"#utility.yul\":3534:3543   */\n      dup3\n        /* \"#utility.yul\":3530:3549   */\n      add\n        /* \"#utility.yul\":3522:3549   */\n      swap1\n      pop\n        /* \"#utility.yul\":3559:3676   */\n      tag_195\n        /* \"#utility.yul\":3673:3674   */\n      0x00\n        /* \"#utility.yul\":3662:3671   */\n      dup4\n        /* \"#utility.yul\":3658:3675   */\n      add\n        /* \"#utility.yul\":3649:3655   */\n      dup5\n        /* \"#utility.yul\":3559:3676   */\n      tag_143\n      jump\t// in\n    tag_195:\n        /* \"#utility.yul\":3368:3683   */\n      swap3\n      swap2\n      pop\n      pop\n      jump\t// out\n        /* \"#utility.yul\":3689:3858   */\n    tag_144:\n        /* \"#utility.yul\":3773:3784   */\n      0x00\n        /* \"#utility.yul\":3807:3813   */\n      dup3\n        /* \"#utility.yul\":3802:3805   */\n      dup3\n        /* \"#utility.yul\":3795:3814   */\n      mstore\n        /* \"#utility.yul\":3847:3851   */\n      0x20\n        /* \"#utility.yul\":3842:3845   */\n      dup3\n        /* \"#utility.yul\":3838:3852   */\n      add\n        /* \"#utility.yul\":3823:3852   */\n      swap1\n      pop\n        /* \"#utility.yul\":3689:3858   */\n      swap3\n      swap2\n      pop\n      pop\n      jump\t// out\n        /* \"#utility.yul\":3864:4039   */\n    tag_145:\n        /* \"#utility.yul\":4004:4031   */\n      0x496e646578206d757374206265206c657373207468656e203500000000000000\n        /* \"#utility.yul\":4000:4001   */\n      0x00\n        /* \"#utility.yul\":3992:3998   */\n      dup3\n        /* \"#utility.yul\":3988:4002   */\n      add\n        /* \"#utility.yul\":3981:4032   */\n      mstore\n        /* \"#utility.yul\":3864:4039   */\n      pop\n      jump\t// out\n        /* \"#utility.yul\":4045:4411   */\n    tag_146:\n        /* \"#utility.yul\":4187:4190   */\n      0x00\n        /* \"#utility.yul\":4208:4275   */\n      tag_199\n        /* \"#utility.yul\":4272:4274   */\n      0x19\n        /* \"#utility.yul\":4267:4270   */\n      dup4\n        /* \"#utility.yul\":4208:4275   */\n      tag_144\n      jump\t// in\n    tag_199:\n        /* \"#utility.yul\":4201:4275   */\n      swap2\n      pop\n        /* \"#utility.yul\":4284:4377   */\n      tag_200\n        /* \"#utility.yul\":4373:4376   */\n      dup3\n        /* \"#utility.yul\":4284:4377   */\n      tag_145\n      jump\t// in\n    tag_200:\n        /* \"#utility.yul\":4402:4404   */\n      0x20\n        /* \"#utility.yul\":4397:4400   */\n      dup3\n        /* \"#utility.yul\":4393:4405   */\n      add\n        /* \"#utility.yul\":4386:4405   */\n      swap1\n      pop\n        /* \"#utility.yul\":4045:4411   */\n      swap2\n      swap1\n      pop\n      jump\t// out\n        /* \"#utility.yul\":4417:4836   */\n    tag_41:\n        /* \"#utility.yul\":4583:4587   */\n      0x00\n        /* \"#utility.yul\":4621:4623   */\n      0x20\n        /* \"#utility.yul\":4610:4619   */\n      dup3\n        /* \"#utility.yul\":4606:4624   */\n      add\n        /* \"#utility.yul\":4598:4624   */\n      swap1\n      pop\n        /* \"#utility.yul\":4670:4679   */\n      dup2\n        /* \"#utility.yul\":4664:4668   */\n      dup2\n        /* \"#utility.yul\":4660:4680   */\n      sub\n        /* \"#utility.yul\":4656:4657   */\n      0x00\n        /* \"#utility.yul\":4645:4654   */\n      dup4\n        /* \"#utility.yul\":4641:4658   */\n      add\n        /* \"#utility.yul\":4634:4681   */\n      mstore\n        /* \"#utility.yul\":4698:4829   */\n      tag_202\n        /* \"#utility.yul\":4824:4828   */\n      dup2\n        /* \"#utility.yul\":4698:4829   */\n      tag_146\n      jump\t// in\n    tag_202:\n        /* \"#utility.yul\":4690:4829   */\n      swap1\n      pop\n        /* \"#utility.yul\":4417:4836   */\n      swap2\n      swap1\n      pop\n      jump\t// out\n        /* \"#utility.yul\":4842:5022   */\n    tag_44:\n        /* \"#utility.yul\":4890:4967   */\n      0x4e487b7100000000000000000000000000000000000000000000000000000000\n        /* \"#utility.yul\":4887:4888   */\n      0x00\n        /* \"#utility.yul\":4880:4968   */\n      mstore\n        /* \"#utility.yul\":4987:4991   */\n      0x32\n        /* \"#utility.yul\":4984:4985   */\n      0x04\n        /* \"#utility.yul\":4977:4992   */\n      mstore\n        /* \"#utility.yul\":5011:5015   */\n      0x24\n        /* \"#utility.yul\":5008:5009   */\n      0x00\n        /* \"#utility.yul\":5001:5016   */\n      revert\n        /* \"#utility.yul\":5028:5208   */\n    tag_147:\n        /* \"#utility.yul\":5076:5153   */\n      0x4e487b7100000000000000000000000000000000000000000000000000000000\n        /* \"#utility.yul\":5073:5074   */\n      0x00\n        /* \"#utility.yul\":5066:5154   */\n      mstore\n        /* \"#utility.yul\":5173:5177   */\n      0x11\n        /* \"#utility.yul\":5170:5171   */\n      0x04\n        /* \"#utility.yul\":5163:5178   */\n      mstore\n        /* \"#utility.yul\":5197:5201   */\n      0x24\n        /* \"#utility.yul\":5194:5195   */\n      0x00\n        /* \"#utility.yul\":5187:5202   */\n      revert\n        /* \"#utility.yul\":5214:5408   */\n    tag_64:\n        /* \"#utility.yul\":5254:5258   */\n      0x00\n        /* \"#utility.yul\":5274:5294   */\n      tag_206\n        /* \"#utility.yul\":5292:5293   */\n      dup3\n        /* \"#utility.yul\":5274:5294   */\n      tag_133\n      jump\t// in\n    tag_206:\n        /* \"#utility.yul\":5269:5294   */\n      swap2\n      pop\n        /* \"#utility.yul\":5308:5328   */\n      tag_207\n        /* \"#utility.yul\":5326:5327   */\n      dup4\n        /* \"#utility.yul\":5308:5328   */\n      tag_133\n      jump\t// in\n    tag_207:\n        /* \"#utility.yul\":5303:5328   */\n      swap3\n      pop\n        /* \"#utility.yul\":5352:5353   */\n      dup3\n        /* \"#utility.yul\":5349:5350   */\n      dup3\n        /* \"#utility.yul\":5345:5354   */\n      sub\n        /* \"#utility.yul\":5337:5354   */\n      swap1\n      pop\n        /* \"#utility.yul\":5376:5377   */\n      dup2\n        /* \"#utility.yul\":5370:5374   */\n      dup2\n        /* \"#utility.yul\":5367:5378   */\n      gt\n        /* \"#utility.yul\":5364:5401   */\n      iszero\n      tag_208\n      jumpi\n        /* \"#utility.yul\":5381:5399   */\n      tag_209\n      tag_147\n      jump\t// in\n    tag_209:\n        /* \"#utility.yul\":5364:5401   */\n    tag_208:\n        /* \"#utility.yul\":5214:5408   */\n      swap3\n      swap2\n      pop\n      pop\n      jump\t// out\n        /* \"#utility.yul\":5414:5605   */\n    tag_67:\n        /* \"#utility.yul\":5454:5457   */\n      0x00\n        /* \"#utility.yul\":5473:5493   */\n      tag_211\n        /* \"#utility.yul\":5491:5492   */\n      dup3\n        /* \"#utility.yul\":5473:5493   */\n      tag_133\n      jump\t// in\n    tag_211:\n        /* \"#utility.yul\":5468:5493   */\n      swap2\n      pop\n        /* \"#utility.yul\":5507:5527   */\n      tag_212\n        /* \"#utility.yul\":5525:5526   */\n      dup4\n        /* \"#utility.yul\":5507:5527   */\n      tag_133\n      jump\t// in\n    tag_212:\n        /* \"#utility.yul\":5502:5527   */\n      swap3\n      pop\n        /* \"#utility.yul\":5550:5551   */\n      dup3\n        /* \"#utility.yul\":5547:5548   */\n      dup3\n        /* \"#utility.yul\":5543:5552   */\n      add\n        /* \"#utility.yul\":5536:5552   */\n      swap1\n      pop\n        /* \"#utility.yul\":5571:5574   */\n      dup1\n        /* \"#utility.yul\":5568:5569   */\n      dup3\n        /* \"#utility.yul\":5565:5575   */\n      gt\n        /* \"#utility.yul\":5562:5598   */\n      iszero\n      tag_213\n      jumpi\n        /* \"#utility.yul\":5578:5596   */\n      tag_214\n      tag_147\n      jump\t// in\n    tag_214:\n        /* \"#utility.yul\":5562:5598   */\n    tag_213:\n        /* \"#utility.yul\":5414:5605   */\n      swap3\n      swap2\n      pop\n      pop\n      jump\t// out\n        /* \"#utility.yul\":5611:5788   */\n    tag_148:\n        /* \"#utility.yul\":5751:5780   */\n      0x746f496e646578206d757374206265206c657373207468656e20350000000000\n        /* \"#utility.yul\":5747:5748   */\n      0x00\n        /* \"#utility.yul\":5739:5745   */\n      dup3\n        /* \"#utility.yul\":5735:5749   */\n      add\n        /* \"#utility.yul\":5728:5781   */\n      mstore\n        /* \"#utility.yul\":5611:5788   */\n      pop\n      jump\t// out\n        /* \"#utility.yul\":5794:6160   */\n    tag_149:\n        /* \"#utility.yul\":5936:5939   */\n      0x00\n        /* \"#utility.yul\":5957:6024   */\n      tag_217\n        /* \"#utility.yul\":6021:6023   */\n      0x1b\n        /* \"#utility.yul\":6016:6019   */\n      dup4\n        /* \"#utility.yul\":5957:6024   */\n      tag_144\n      jump\t// in\n    tag_217:\n        /* \"#utility.yul\":5950:6024   */\n      swap2\n      pop\n        /* \"#utility.yul\":6033:6126   */\n      tag_218\n        /* \"#utility.yul\":6122:6125   */\n      dup3\n        /* \"#utility.yul\":6033:6126   */\n      tag_148\n      jump\t// in\n    tag_218:\n        /* \"#utility.yul\":6151:6153   */\n      0x20\n        /* \"#utility.yul\":6146:6149   */\n      dup3\n        /* \"#utility.yul\":6142:6154   */\n      add\n        /* \"#utility.yul\":6135:6154   */\n      swap1\n      pop\n        /* \"#utility.yul\":5794:6160   */\n      swap2\n      swap1\n      pop\n      jump\t// out\n        /* \"#utility.yul\":6166:6585   */\n    tag_92:\n        /* \"#utility.yul\":6332:6336   */\n      0x00\n        /* \"#utility.yul\":6370:6372   */\n      0x20\n        /* \"#utility.yul\":6359:6368   */\n      dup3\n        /* \"#utility.yul\":6355:6373   */\n      add\n        /* \"#utility.yul\":6347:6373   */\n      swap1\n      pop\n        /* \"#utility.yul\":6419:6428   */\n      dup2\n        /* \"#utility.yul\":6413:6417   */\n      dup2\n        /* \"#utility.yul\":6409:6429   */\n      sub\n        /* \"#utility.yul\":6405:6406   */\n      0x00\n        /* \"#utility.yul\":6394:6403   */\n      dup4\n        /* \"#utility.yul\":6390:6407   */\n      add\n        /* \"#utility.yul\":6383:6430   */\n      mstore\n        /* \"#utility.yul\":6447:6578   */\n      tag_220\n        /* \"#utility.yul\":6573:6577   */\n      dup2\n        /* \"#utility.yul\":6447:6578   */\n      tag_149\n      jump\t// in\n    tag_220:\n        /* \"#utility.yul\":6439:6578   */\n      swap1\n      pop\n        /* \"#utility.yul\":6166:6585   */\n      swap2\n      swap1\n      pop\n      jump\t// out\n        /* \"#utility.yul\":6591:6770   */\n    tag_150:\n        /* \"#utility.yul\":6731:6762   */\n      0x66726f6d496e646578206d757374206265206c657373207468656e2035000000\n        /* \"#utility.yul\":6727:6728   */\n      0x00\n        /* \"#utility.yul\":6719:6725   */\n      dup3\n        /* \"#utility.yul\":6715:6729   */\n      add\n        /* \"#utility.yul\":6708:6763   */\n      mstore\n        /* \"#utility.yul\":6591:6770   */\n      pop\n      jump\t// out\n        /* \"#utility.yul\":6776:7142   */\n    tag_151:\n        /* \"#utility.yul\":6918:6921   */\n      0x00\n        /* \"#utility.yul\":6939:7006   */\n      tag_223\n        /* \"#utility.yul\":7003:7005   */\n      0x1d\n        /* \"#utility.yul\":6998:7001   */\n      dup4\n        /* \"#utility.yul\":6939:7006   */\n      tag_144\n      jump\t// in\n    tag_223:\n        /* \"#utility.yul\":6932:7006   */\n      swap2\n      pop\n        /* \"#utility.yul\":7015:7108   */\n      tag_224\n        /* \"#utility.yul\":7104:7107   */\n      dup3\n        /* \"#utility.yul\":7015:7108   */\n      tag_150\n      jump\t// in\n    tag_224:\n        /* \"#utility.yul\":7133:7135   */\n      0x20\n        /* \"#utility.yul\":7128:7131   */\n      dup3\n        /* \"#utility.yul\":7124:7136   */\n      add\n        /* \"#utility.yul\":7117:7136   */\n      swap1\n      pop\n        /* \"#utility.yul\":6776:7142   */\n      swap2\n      swap1\n      pop\n      jump\t// out\n        /* \"#utility.yul\":7148:7567   */\n    tag_95:\n        /* \"#utility.yul\":7314:7318   */\n      0x00\n        /* \"#utility.yul\":7352:7354   */\n      0x20\n        /* \"#utility.yul\":7341:7350   */\n      dup3\n        /* \"#utility.yul\":7337:7355   */\n      add\n        /* \"#utility.yul\":7329:7355   */\n      swap1\n      pop\n        /* \"#utility.yul\":7401:7410   */\n      dup2\n        /* \"#utility.yul\":7395:7399   */\n      dup2\n        /* \"#utility.yul\":7391:7411   */\n      sub\n        /* \"#utility.yul\":7387:7388   */\n      0x00\n        /* \"#utility.yul\":7376:7385   */\n      dup4\n        /* \"#utility.yul\":7372:7389   */\n      add\n        /* \"#utility.yul\":7365:7412   */\n      mstore\n        /* \"#utility.yul\":7429:7560   */\n      tag_226\n        /* \"#utility.yul\":7555:7559   */\n      dup2\n        /* \"#utility.yul\":7429:7560   */\n      tag_151\n      jump\t// in\n    tag_226:\n        /* \"#utility.yul\":7421:7560   */\n      swap1\n      pop\n        /* \"#utility.yul\":7148:7567   */\n      swap2\n      swap1\n      pop\n      jump\t// out\n        /* \"#utility.yul\":7573:7746   */\n    tag_152:\n        /* \"#utility.yul\":7713:7738   */\n      0x496e646578206d75737420626520646966666572656e74000000000000000000\n        /* \"#utility.yul\":7709:7710   */\n      0x00\n        /* \"#utility.yul\":7701:7707   */\n      dup3\n        /* \"#utility.yul\":7697:7711   */\n      add\n        /* \"#utility.yul\":7690:7739   */\n      mstore\n        /* \"#utility.yul\":7573:7746   */\n      pop\n      jump\t// out\n        /* \"#utility.yul\":7752:8118   */\n    tag_153:\n        /* \"#utility.yul\":7894:7897   */\n      0x00\n        /* \"#utility.yul\":7915:7982   */\n      tag_229\n        /* \"#utility.yul\":7979:7981   */\n      0x17\n        /* \"#utility.yul\":7974:7977   */\n      dup4\n        /* \"#utility.yul\":7915:7982   */\n      tag_144\n      jump\t// in\n    tag_229:\n        /* \"#utility.yul\":7908:7982   */\n      swap2\n      pop\n        /* \"#utility.yul\":7991:8084   */\n      tag_230\n        /* \"#utility.yul\":8080:8083   */\n      dup3\n        /* \"#utility.yul\":7991:8084   */\n      tag_152\n      jump\t// in\n    tag_230:\n        /* \"#utility.yul\":8109:8111   */\n      0x20\n        /* \"#utility.yul\":8104:8107   */\n      dup3\n        /* \"#utility.yul\":8100:8112   */\n      add\n        /* \"#utility.yul\":8093:8112   */\n      swap1\n      pop\n        /* \"#utility.yul\":7752:8118   */\n      swap2\n      swap1\n      pop\n      jump\t// out\n        /* \"#utility.yul\":8124:8543   */\n    tag_98:\n        /* \"#utility.yul\":8290:8294   */\n      0x00\n        /* \"#utility.yul\":8328:8330   */\n      0x20\n        /* \"#utility.yul\":8317:8326   */\n      dup3\n        /* \"#utility.yul\":8313:8331   */\n      add\n        /* \"#utility.yul\":8305:8331   */\n      swap1\n      pop\n        /* \"#utility.yul\":8377:8386   */\n      dup2\n        /* \"#utility.yul\":8371:8375   */\n      dup2\n        /* \"#utility.yul\":8367:8387   */\n      sub\n        /* \"#utility.yul\":8363:8364   */\n      0x00\n        /* \"#utility.yul\":8352:8361   */\n      dup4\n        /* \"#utility.yul\":8348:8365   */\n      add\n        /* \"#utility.yul\":8341:8388   */\n      mstore\n        /* \"#utility.yul\":8405:8536   */\n      tag_232\n        /* \"#utility.yul\":8531:8535   */\n      dup2\n        /* \"#utility.yul\":8405:8536   */\n      tag_153\n      jump\t// in\n    tag_232:\n        /* \"#utility.yul\":8397:8536   */\n      swap1\n      pop\n        /* \"#utility.yul\":8124:8543   */\n      swap2\n      swap1\n      pop\n      jump\t// out\n\n    auxdata: 0xa2646970667358221220e1f344b214d46c3d56c77d5edb2c9e2c8412c45141e99d26cb202151068342e664736f6c634300081a0033\n}\n",
				"bytecode": {
					"linkReferences": {},
					"object": "6080604052348015600e575f80fd5b506109b78061001c5f395ff3fe608060405234801561000f575f80fd5b5060043610610086575f3560e01c806392d837681161005957806392d83768146100c45780639f704154146100e0578063be1c766b14610110578063d504ea1d1461012e57610086565b80631726abc01461008a57806332fb874f146100a6578063823bed2d146100b05780638abc4fb7146100ba575b5f80fd5b6100a4600480360381019061009f91906105c2565b61014c565b005b6100ae6101ac565b005b6100b86101f9565b005b6100c261022d565b005b6100de60048036038101906100d991906105c2565b61032c565b005b6100fa60048036038101906100f59190610600565b610457565b604051610107919061063a565b60405180910390f35b6101186104b7565b604051610125919061063a565b60405180910390f35b6101366104bf565b60405161014391906106f8565b60405180910390f35b6005821061018f576040517f08c379a00000000000000000000000000000000000000000000000000000000081526004016101869061076b565b60405180910390fd5b805f83600581106101a3576101a2610789565b5b01819055505050565b6040518060a00160405280600a60ff168152602001601460ff168152602001605a60ff168152602001600a60ff168152602001601e60ff168152505f9060056101f6929190610509565b50565b5f5b600581101561022a575f80826005811061021857610217610789565b5b018190555080806001019150506101fb565b50565b5f5b6005811015610329575f5b816001600561024991906107e3565b61025391906107e3565b81101561031b575f6001826102689190610816565b6005811061027957610278610789565b5b01545f826005811061028e5761028d610789565b5b0154111561030e575f806001836102a59190610816565b600581106102b6576102b5610789565b5b015490505f82600581106102cd576102cc610789565b5b01545f6001846102dd9190610816565b600581106102ee576102ed610789565b5b0181905550805f836005811061030757610306610789565b5b0181905550505b808060010191505061023a565b50808060010191505061022f565b50565b6005821061036f576040517f08c379a000000000000000000000000000000000000000000000000000000000815260040161036690610893565b60405180910390fd5b600581106103b2576040517f08c379a00000000000000000000000000000000000000000000000000000000081526004016103a9906108fb565b60405180910390fd5b8082036103f4576040517f08c379a00000000000000000000000000000000000000000000000000000000081526004016103eb90610963565b60405180910390fd5b5f80836005811061040857610407610789565b5b015490505f826005811061041f5761041e610789565b5b01545f846005811061043457610433610789565b5b0181905550805f836005811061044d5761044c610789565b5b0181905550505050565b5f6005821061049b576040517f08c379a00000000000000000000000000000000000000000000000000000000081526004016104929061076b565b60405180910390fd5b5f82600581106104ae576104ad610789565b5b01549050919050565b5f6005905090565b6104c761054e565b5f6005806020026040519081016040528092919082600580156104ff576020028201915b8154815260200190600101908083116104eb575b5050505050905090565b826005810192821561053d579160200282015b8281111561053c578251829060ff1690559160200191906001019061051c565b5b50905061054a9190610570565b5090565b6040518060a00160405280600590602082028036833780820191505090505090565b5b80821115610587575f815f905550600101610571565b5090565b5f80fd5b5f819050919050565b6105a18161058f565b81146105ab575f80fd5b50565b5f813590506105bc81610598565b92915050565b5f80604083850312156105d8576105d761058b565b5b5f6105e5858286016105ae565b92505060206105f6858286016105ae565b9150509250929050565b5f602082840312156106155761061461058b565b5b5f610622848285016105ae565b91505092915050565b6106348161058f565b82525050565b5f60208201905061064d5f83018461062b565b92915050565b5f60059050919050565b5f81905092915050565b5f819050919050565b6106798161058f565b82525050565b5f61068a8383610670565b60208301905092915050565b5f602082019050919050565b6106ab81610653565b6106b5818461065d565b92506106c082610667565b805f5b838110156106f05781516106d7878261067f565b96506106e283610696565b9250506001810190506106c3565b505050505050565b5f60a08201905061070b5f8301846106a2565b92915050565b5f82825260208201905092915050565b7f496e646578206d757374206265206c657373207468656e2035000000000000005f82015250565b5f610755601983610711565b915061076082610721565b602082019050919050565b5f6020820190508181035f83015261078281610749565b9050919050565b7f4e487b71000000000000000000000000000000000000000000000000000000005f52603260045260245ffd5b7f4e487b71000000000000000000000000000000000000000000000000000000005f52601160045260245ffd5b5f6107ed8261058f565b91506107f88361058f565b92508282039050818111156108105761080f6107b6565b5b92915050565b5f6108208261058f565b915061082b8361058f565b9250828201905080821115610843576108426107b6565b5b92915050565b7f746f496e646578206d757374206265206c657373207468656e203500000000005f82015250565b5f61087d601b83610711565b915061088882610849565b602082019050919050565b5f6020820190508181035f8301526108aa81610871565b9050919050565b7f66726f6d496e646578206d757374206265206c657373207468656e20350000005f82015250565b5f6108e5601d83610711565b91506108f0826108b1565b602082019050919050565b5f6020820190508181035f830152610912816108d9565b9050919050565b7f496e646578206d75737420626520646966666572656e740000000000000000005f82015250565b5f61094d601783610711565b915061095882610919565b602082019050919050565b5f6020820190508181035f83015261097a81610941565b905091905056fea2646970667358221220e1f344b214d46c3d56c77d5edb2c9e2c8412c45141e99d26cb202151068342e664736f6c634300081a0033",
					"opcodes": "PUSH1 0x80 PUSH1 0x40 MSTORE CALLVALUE DUP1 ISZERO PUSH1 0xE JUMPI PUSH0 DUP1 REVERT JUMPDEST POP PUSH2 0x9B7 DUP1 PUSH2 0x1C PUSH0 CODECOPY PUSH0 RETURN INVALID PUSH1 0x80 PUSH1 0x40 MSTORE CALLVALUE DUP1 ISZERO PUSH2 0xF JUMPI PUSH0 DUP1 REVERT JUMPDEST POP PUSH1 0x4 CALLDATASIZE LT PUSH2 0x86 JUMPI PUSH0 CALLDATALOAD PUSH1 0xE0 SHR DUP1 PUSH4 0x92D83768 GT PUSH2 0x59 JUMPI DUP1 PUSH4 0x92D83768 EQ PUSH2 0xC4 JUMPI DUP1 PUSH4 0x9F704154 EQ PUSH2 0xE0 JUMPI DUP1 PUSH4 0xBE1C766B EQ PUSH2 0x110 JUMPI DUP1 PUSH4 0xD504EA1D EQ PUSH2 0x12E JUMPI PUSH2 0x86 JUMP JUMPDEST DUP1 PUSH4 0x1726ABC0 EQ PUSH2 0x8A JUMPI DUP1 PUSH4 0x32FB874F EQ PUSH2 0xA6 JUMPI DUP1 PUSH4 0x823BED2D EQ PUSH2 0xB0 JUMPI DUP1 PUSH4 0x8ABC4FB7 EQ PUSH2 0xBA JUMPI JUMPDEST PUSH0 DUP1 REVERT JUMPDEST PUSH2 0xA4 PUSH1 0x4 DUP1 CALLDATASIZE SUB DUP2 ADD SWAP1 PUSH2 0x9F SWAP2 SWAP1 PUSH2 0x5C2 JUMP JUMPDEST PUSH2 0x14C JUMP JUMPDEST STOP JUMPDEST PUSH2 0xAE PUSH2 0x1AC JUMP JUMPDEST STOP JUMPDEST PUSH2 0xB8 PUSH2 0x1F9 JUMP JUMPDEST STOP JUMPDEST PUSH2 0xC2 PUSH2 0x22D JUMP JUMPDEST STOP JUMPDEST PUSH2 0xDE PUSH1 0x4 DUP1 CALLDATASIZE SUB DUP2 ADD SWAP1 PUSH2 0xD9 SWAP2 SWAP1 PUSH2 0x5C2 JUMP JUMPDEST PUSH2 0x32C JUMP JUMPDEST STOP JUMPDEST PUSH2 0xFA PUSH1 0x4 DUP1 CALLDATASIZE SUB DUP2 ADD SWAP1 PUSH2 0xF5 SWAP2 SWAP1 PUSH2 0x600 JUMP JUMPDEST PUSH2 0x457 JUMP JUMPDEST PUSH1 0x40 MLOAD PUSH2 0x107 SWAP2 SWAP1 PUSH2 0x63A JUMP JUMPDEST PUSH1 0x40 MLOAD DUP1 SWAP2 SUB SWAP1 RETURN JUMPDEST PUSH2 0x118 PUSH2 0x4B7 JUMP JUMPDEST PUSH1 0x40 MLOAD PUSH2 0x125 SWAP2 SWAP1 PUSH2 0x63A JUMP JUMPDEST PUSH1 0x40 MLOAD DUP1 SWAP2 SUB SWAP1 RETURN JUMPDEST PUSH2 0x136 PUSH2 0x4BF JUMP JUMPDEST PUSH1 0x40 MLOAD PUSH2 0x143 SWAP2 SWAP1 PUSH2 0x6F8 JUMP JUMPDEST PUSH1 0x40 MLOAD DUP1 SWAP2 SUB SWAP1 RETURN JUMPDEST PUSH1 0x5 DUP3 LT PUSH2 0x18F JUMPI PUSH1 0x40 MLOAD PUSH32 0x8C379A000000000000000000000000000000000000000000000000000000000 DUP2 MSTORE PUSH1 0x4 ADD PUSH2 0x186 SWAP1 PUSH2 0x76B JUMP JUMPDEST PUSH1 0x40 MLOAD DUP1 SWAP2 SUB SWAP1 REVERT JUMPDEST DUP1 PUSH0 DUP4 PUSH1 0x5 DUP2 LT PUSH2 0x1A3 JUMPI PUSH2 0x1A2 PUSH2 0x789 JUMP JUMPDEST JUMPDEST ADD DUP2 SWAP1 SSTORE POP POP POP JUMP JUMPDEST PUSH1 0x40 MLOAD DUP1 PUSH1 0xA0 ADD PUSH1 0x40 MSTORE DUP1 PUSH1 0xA PUSH1 0xFF AND DUP2 MSTORE PUSH1 0x20 ADD PUSH1 0x14 PUSH1 0xFF AND DUP2 MSTORE PUSH1 0x20 ADD PUSH1 0x5A PUSH1 0xFF AND DUP2 MSTORE PUSH1 0x20 ADD PUSH1 0xA PUSH1 0xFF AND DUP2 MSTORE PUSH1 0x20 ADD PUSH1 0x1E PUSH1 0xFF AND DUP2 MSTORE POP PUSH0 SWAP1 PUSH1 0x5 PUSH2 0x1F6 SWAP3 SWAP2 SWAP1 PUSH2 0x509 JUMP JUMPDEST POP JUMP JUMPDEST PUSH0 JUMPDEST PUSH1 0x5 DUP2 LT ISZERO PUSH2 0x22A JUMPI PUSH0 DUP1 DUP3 PUSH1 0x5 DUP2 LT PUSH2 0x218 JUMPI PUSH2 0x217 PUSH2 0x789 JUMP JUMPDEST JUMPDEST ADD DUP2 SWAP1 SSTORE POP DUP1 DUP1 PUSH1 0x1 ADD SWAP2 POP POP PUSH2 0x1FB JUMP JUMPDEST POP JUMP JUMPDEST PUSH0 JUMPDEST PUSH1 0x5 DUP2 LT ISZERO PUSH2 0x329 JUMPI PUSH0 JUMPDEST DUP2 PUSH1 0x1 PUSH1 0x5 PUSH2 0x249 SWAP2 SWAP1 PUSH2 0x7E3 JUMP JUMPDEST PUSH2 0x253 SWAP2 SWAP1 PUSH2 0x7E3 JUMP JUMPDEST DUP2 LT ISZERO PUSH2 0x31B JUMPI PUSH0 PUSH1 0x1 DUP3 PUSH2 0x268 SWAP2 SWAP1 PUSH2 0x816 JUMP JUMPDEST PUSH1 0x5 DUP2 LT PUSH2 0x279 JUMPI PUSH2 0x278 PUSH2 0x789 JUMP JUMPDEST JUMPDEST ADD SLOAD PUSH0 DUP3 PUSH1 0x5 DUP2 LT PUSH2 0x28E JUMPI PUSH2 0x28D PUSH2 0x789 JUMP JUMPDEST JUMPDEST ADD SLOAD GT ISZERO PUSH2 0x30E JUMPI PUSH0 DUP1 PUSH1 0x1 DUP4 PUSH2 0x2A5 SWAP2 SWAP1 PUSH2 0x816 JUMP JUMPDEST PUSH1 0x5 DUP2 LT PUSH2 0x2B6 JUMPI PUSH2 0x2B5 PUSH2 0x789 JUMP JUMPDEST JUMPDEST ADD SLOAD SWAP1 POP PUSH0 DUP3 PUSH1 0x5 DUP2 LT PUSH2 0x2CD JUMPI PUSH2 0x2CC PUSH2 0x789 JUMP JUMPDEST JUMPDEST ADD SLOAD PUSH0 PUSH1 0x1 DUP5 PUSH2 0x2DD SWAP2 SWAP1 PUSH2 0x816 JUMP JUMPDEST PUSH1 0x5 DUP2 LT PUSH2 0x2EE JUMPI PUSH2 0x2ED PUSH2 0x789 JUMP JUMPDEST JUMPDEST ADD DUP2 SWAP1 SSTORE POP DUP1 PUSH0 DUP4 PUSH1 0x5 DUP2 LT PUSH2 0x307 JUMPI PUSH2 0x306 PUSH2 0x789 JUMP JUMPDEST JUMPDEST ADD DUP2 SWAP1 SSTORE POP POP JUMPDEST DUP1 DUP1 PUSH1 0x1 ADD SWAP2 POP POP PUSH2 0x23A JUMP JUMPDEST POP DUP1 DUP1 PUSH1 0x1 ADD SWAP2 POP POP PUSH2 0x22F JUMP JUMPDEST POP JUMP JUMPDEST PUSH1 0x5 DUP3 LT PUSH2 0x36F JUMPI PUSH1 0x40 MLOAD PUSH32 0x8C379A000000000000000000000000000000000000000000000000000000000 DUP2 MSTORE PUSH1 0x4 ADD PUSH2 0x366 SWAP1 PUSH2 0x893 JUMP JUMPDEST PUSH1 0x40 MLOAD DUP1 SWAP2 SUB SWAP1 REVERT JUMPDEST PUSH1 0x5 DUP2 LT PUSH2 0x3B2 JUMPI PUSH1 0x40 MLOAD PUSH32 0x8C379A000000000000000000000000000000000000000000000000000000000 DUP2 MSTORE PUSH1 0x4 ADD PUSH2 0x3A9 SWAP1 PUSH2 0x8FB JUMP JUMPDEST PUSH1 0x40 MLOAD DUP1 SWAP2 SUB SWAP1 REVERT JUMPDEST DUP1 DUP3 SUB PUSH2 0x3F4 JUMPI PUSH1 0x40 MLOAD PUSH32 0x8C379A000000000000000000000000000000000000000000000000000000000 DUP2 MSTORE PUSH1 0x4 ADD PUSH2 0x3EB SWAP1 PUSH2 0x963 JUMP JUMPDEST PUSH1 0x40 MLOAD DUP1 SWAP2 SUB SWAP1 REVERT JUMPDEST PUSH0 DUP1 DUP4 PUSH1 0x5 DUP2 LT PUSH2 0x408 JUMPI PUSH2 0x407 PUSH2 0x789 JUMP JUMPDEST JUMPDEST ADD SLOAD SWAP1 POP PUSH0 DUP3 PUSH1 0x5 DUP2 LT PUSH2 0x41F JUMPI PUSH2 0x41E PUSH2 0x789 JUMP JUMPDEST JUMPDEST ADD SLOAD PUSH0 DUP5 PUSH1 0x5 DUP2 LT PUSH2 0x434 JUMPI PUSH2 0x433 PUSH2 0x789 JUMP JUMPDEST JUMPDEST ADD DUP2 SWAP1 SSTORE POP DUP1 PUSH0 DUP4 PUSH1 0x5 DUP2 LT PUSH2 0x44D JUMPI PUSH2 0x44C PUSH2 0x789 JUMP JUMPDEST JUMPDEST ADD DUP2 SWAP1 SSTORE POP POP POP POP JUMP JUMPDEST PUSH0 PUSH1 0x5 DUP3 LT PUSH2 0x49B JUMPI PUSH1 0x40 MLOAD PUSH32 0x8C379A000000000000000000000000000000000000000000000000000000000 DUP2 MSTORE PUSH1 0x4 ADD PUSH2 0x492 SWAP1 PUSH2 0x76B JUMP JUMPDEST PUSH1 0x40 MLOAD DUP1 SWAP2 SUB SWAP1 REVERT JUMPDEST PUSH0 DUP3 PUSH1 0x5 DUP2 LT PUSH2 0x4AE JUMPI PUSH2 0x4AD PUSH2 0x789 JUMP JUMPDEST JUMPDEST ADD SLOAD SWAP1 POP SWAP2 SWAP1 POP JUMP JUMPDEST PUSH0 PUSH1 0x5 SWAP1 POP SWAP1 JUMP JUMPDEST PUSH2 0x4C7 PUSH2 0x54E JUMP JUMPDEST PUSH0 PUSH1 0x5 DUP1 PUSH1 0x20 MUL PUSH1 0x40 MLOAD SWAP1 DUP2 ADD PUSH1 0x40 MSTORE DUP1 SWAP3 SWAP2 SWAP1 DUP3 PUSH1 0x5 DUP1 ISZERO PUSH2 0x4FF JUMPI PUSH1 0x20 MUL DUP3 ADD SWAP2 JUMPDEST DUP2 SLOAD DUP2 MSTORE PUSH1 0x20 ADD SWAP1 PUSH1 0x1 ADD SWAP1 DUP1 DUP4 GT PUSH2 0x4EB JUMPI JUMPDEST POP POP POP POP POP SWAP1 POP SWAP1 JUMP JUMPDEST DUP3 PUSH1 0x5 DUP2 ADD SWAP3 DUP3 ISZERO PUSH2 0x53D JUMPI SWAP2 PUSH1 0x20 MUL DUP3 ADD JUMPDEST DUP3 DUP2 GT ISZERO PUSH2 0x53C JUMPI DUP3 MLOAD DUP3 SWAP1 PUSH1 0xFF AND SWAP1 SSTORE SWAP2 PUSH1 0x20 ADD SWAP2 SWAP1 PUSH1 0x1 ADD SWAP1 PUSH2 0x51C JUMP JUMPDEST JUMPDEST POP SWAP1 POP PUSH2 0x54A SWAP2 SWAP1 PUSH2 0x570 JUMP JUMPDEST POP SWAP1 JUMP JUMPDEST PUSH1 0x40 MLOAD DUP1 PUSH1 0xA0 ADD PUSH1 0x40 MSTORE DUP1 PUSH1 0x5 SWAP1 PUSH1 0x20 DUP3 MUL DUP1 CALLDATASIZE DUP4 CALLDATACOPY DUP1 DUP3 ADD SWAP2 POP POP SWAP1 POP POP SWAP1 JUMP JUMPDEST JUMPDEST DUP1 DUP3 GT ISZERO PUSH2 0x587 JUMPI PUSH0 DUP2 PUSH0 SWAP1 SSTORE POP PUSH1 0x1 ADD PUSH2 0x571 JUMP JUMPDEST POP SWAP1 JUMP JUMPDEST PUSH0 DUP1 REVERT JUMPDEST PUSH0 DUP2 SWAP1 POP SWAP2 SWAP1 POP JUMP JUMPDEST PUSH2 0x5A1 DUP2 PUSH2 0x58F JUMP JUMPDEST DUP2 EQ PUSH2 0x5AB JUMPI PUSH0 DUP1 REVERT JUMPDEST POP JUMP JUMPDEST PUSH0 DUP2 CALLDATALOAD SWAP1 POP PUSH2 0x5BC DUP2 PUSH2 0x598 JUMP JUMPDEST SWAP3 SWAP2 POP POP JUMP JUMPDEST PUSH0 DUP1 PUSH1 0x40 DUP4 DUP6 SUB SLT ISZERO PUSH2 0x5D8 JUMPI PUSH2 0x5D7 PUSH2 0x58B JUMP JUMPDEST JUMPDEST PUSH0 PUSH2 0x5E5 DUP6 DUP3 DUP7 ADD PUSH2 0x5AE JUMP JUMPDEST SWAP3 POP POP PUSH1 0x20 PUSH2 0x5F6 DUP6 DUP3 DUP7 ADD PUSH2 0x5AE JUMP JUMPDEST SWAP2 POP POP SWAP3 POP SWAP3 SWAP1 POP JUMP JUMPDEST PUSH0 PUSH1 0x20 DUP3 DUP5 SUB SLT ISZERO PUSH2 0x615 JUMPI PUSH2 0x614 PUSH2 0x58B JUMP JUMPDEST JUMPDEST PUSH0 PUSH2 0x622 DUP5 DUP3 DUP6 ADD PUSH2 0x5AE JUMP JUMPDEST SWAP2 POP POP SWAP3 SWAP2 POP POP JUMP JUMPDEST PUSH2 0x634 DUP2 PUSH2 0x58F JUMP JUMPDEST DUP3 MSTORE POP POP JUMP JUMPDEST PUSH0 PUSH1 0x20 DUP3 ADD SWAP1 POP PUSH2 0x64D PUSH0 DUP4 ADD DUP5 PUSH2 0x62B JUMP JUMPDEST SWAP3 SWAP2 POP POP JUMP JUMPDEST PUSH0 PUSH1 0x5 SWAP1 POP SWAP2 SWAP1 POP JUMP JUMPDEST PUSH0 DUP2 SWAP1 POP SWAP3 SWAP2 POP POP JUMP JUMPDEST PUSH0 DUP2 SWAP1 POP SWAP2 SWAP1 POP JUMP JUMPDEST PUSH2 0x679 DUP2 PUSH2 0x58F JUMP JUMPDEST DUP3 MSTORE POP POP JUMP JUMPDEST PUSH0 PUSH2 0x68A DUP4 DUP4 PUSH2 0x670 JUMP JUMPDEST PUSH1 0x20 DUP4 ADD SWAP1 POP SWAP3 SWAP2 POP POP JUMP JUMPDEST PUSH0 PUSH1 0x20 DUP3 ADD SWAP1 POP SWAP2 SWAP1 POP JUMP JUMPDEST PUSH2 0x6AB DUP2 PUSH2 0x653 JUMP JUMPDEST PUSH2 0x6B5 DUP2 DUP5 PUSH2 0x65D JUMP JUMPDEST SWAP3 POP PUSH2 0x6C0 DUP3 PUSH2 0x667 JUMP JUMPDEST DUP1 PUSH0 JUMPDEST DUP4 DUP2 LT ISZERO PUSH2 0x6F0 JUMPI DUP2 MLOAD PUSH2 0x6D7 DUP8 DUP3 PUSH2 0x67F JUMP JUMPDEST SWAP7 POP PUSH2 0x6E2 DUP4 PUSH2 0x696 JUMP JUMPDEST SWAP3 POP POP PUSH1 0x1 DUP2 ADD SWAP1 POP PUSH2 0x6C3 JUMP JUMPDEST POP POP POP POP POP POP JUMP JUMPDEST PUSH0 PUSH1 0xA0 DUP3 ADD SWAP1 POP PUSH2 0x70B PUSH0 DUP4 ADD DUP5 PUSH2 0x6A2 JUMP JUMPDEST SWAP3 SWAP2 POP POP JUMP JUMPDEST PUSH0 DUP3 DUP3 MSTORE PUSH1 0x20 DUP3 ADD SWAP1 POP SWAP3 SWAP2 POP POP JUMP JUMPDEST PUSH32 0x496E646578206D757374206265206C657373207468656E203500000000000000 PUSH0 DUP3 ADD MSTORE POP JUMP JUMPDEST PUSH0 PUSH2 0x755 PUSH1 0x19 DUP4 PUSH2 0x711 JUMP JUMPDEST SWAP2 POP PUSH2 0x760 DUP3 PUSH2 0x721 JUMP JUMPDEST PUSH1 0x20 DUP3 ADD SWAP1 POP SWAP2 SWAP1 POP JUMP JUMPDEST PUSH0 PUSH1 0x20 DUP3 ADD SWAP1 POP DUP2 DUP2 SUB PUSH0 DUP4 ADD MSTORE PUSH2 0x782 DUP2 PUSH2 0x749 JUMP JUMPDEST SWAP1 POP SWAP2 SWAP1 POP JUMP JUMPDEST PUSH32 0x4E487B7100000000000000000000000000000000000000000000000000000000 PUSH0 MSTORE PUSH1 0x32 PUSH1 0x4 MSTORE PUSH1 0x24 PUSH0 REVERT JUMPDEST PUSH32 0x4E487B7100000000000000000000000000000000000000000000000000000000 PUSH0 MSTORE PUSH1 0x11 PUSH1 0x4 MSTORE PUSH1 0x24 PUSH0 REVERT JUMPDEST PUSH0 PUSH2 0x7ED DUP3 PUSH2 0x58F JUMP JUMPDEST SWAP2 POP PUSH2 0x7F8 DUP4 PUSH2 0x58F JUMP JUMPDEST SWAP3 POP DUP3 DUP3 SUB SWAP1 POP DUP2 DUP2 GT ISZERO PUSH2 0x810 JUMPI PUSH2 0x80F PUSH2 0x7B6 JUMP JUMPDEST JUMPDEST SWAP3 SWAP2 POP POP JUMP JUMPDEST PUSH0 PUSH2 0x820 DUP3 PUSH2 0x58F JUMP JUMPDEST SWAP2 POP PUSH2 0x82B DUP4 PUSH2 0x58F JUMP JUMPDEST SWAP3 POP DUP3 DUP3 ADD SWAP1 POP DUP1 DUP3 GT ISZERO PUSH2 0x843 JUMPI PUSH2 0x842 PUSH2 0x7B6 JUMP JUMPDEST JUMPDEST SWAP3 SWAP2 POP POP JUMP JUMPDEST PUSH32 0x746F496E646578206D757374206265206C657373207468656E20350000000000 PUSH0 DUP3 ADD MSTORE POP JUMP JUMPDEST PUSH0 PUSH2 0x87D PUSH1 0x1B DUP4 PUSH2 0x711 JUMP JUMPDEST SWAP2 POP PUSH2 0x888 DUP3 PUSH2 0x849 JUMP JUMPDEST PUSH1 0x20 DUP3 ADD SWAP1 POP SWAP2 SWAP1 POP JUMP JUMPDEST PUSH0 PUSH1 0x20 DUP3 ADD SWAP1 POP DUP2 DUP2 SUB PUSH0 DUP4 ADD MSTORE PUSH2 0x8AA DUP2 PUSH2 0x871 JUMP JUMPDEST SWAP1 POP SWAP2 SWAP1 POP JUMP JUMPDEST PUSH32 0x66726F6D496E646578206D757374206265206C657373207468656E2035000000 PUSH0 DUP3 ADD MSTORE POP JUMP JUMPDEST PUSH0 PUSH2 0x8E5 PUSH1 0x1D DUP4 PUSH2 0x711 JUMP JUMPDEST SWAP2 POP PUSH2 0x8F0 DUP3 PUSH2 0x8B1 JUMP JUMPDEST PUSH1 0x20 DUP3 ADD SWAP1 POP SWAP2 SWAP1 POP JUMP JUMPDEST PUSH0 PUSH1 0x20 DUP3 ADD SWAP1 POP DUP2 DUP2 SUB PUSH0 DUP4 ADD MSTORE PUSH2 0x912 DUP2 PUSH2 0x8D9 JUMP JUMPDEST SWAP1 POP SWAP2 SWAP1 POP JUMP JUMPDEST PUSH32 0x496E646578206D75737420626520646966666572656E74000000000000000000 PUSH0 DUP3 ADD MSTORE POP JUMP JUMPDEST PUSH0 PUSH2 0x94D PUSH1 0x17 DUP4 PUSH2 0x711 JUMP JUMPDEST SWAP2 POP PUSH2 0x958 DUP3 PUSH2 0x919 JUMP JUMPDEST PUSH1 0x20 DUP3 ADD SWAP1 POP SWAP2 SWAP1 POP JUMP JUMPDEST PUSH0 PUSH1 0x20 DUP3 ADD SWAP1 POP DUP2 DUP2 SUB PUSH0 DUP4 ADD MSTORE PUSH2 0x97A DUP2 PUSH2 0x941 JUMP JUMPDEST SWAP1 POP SWAP2 SWAP1 POP JUMP INVALID LOG2 PUSH5 0x6970667358 0x22 SLT KECCAK256 0xE1 RETURN PREVRANDAO 0xB2 EQ 0xD4 PUSH13 0x3D56C77D5EDB2C9E2C8412C451 COINBASE 0xE9 SWAP14 0x26 0xCB KECCAK256 0x21 MLOAD MOD DUP4 TIMESTAMP 0xE6 PUSH5 0x736F6C6343 STOP ADDMOD BYTE STOP CALLER "
				},
				"gasEstimates": {
					"creation": {
						"codeDepositCost": "497400",
						"executionCost": "528",
						"totalCost": "497928"
					},
					"external": {
						"cleanValueInArray()": "infinite",
						"exchangeIndexValueInArray(uint256,uint256)": "infinite",
						"getArray()": "infinite",
						"getLength()": "376",
						"getValueInArray(uint256)": "infinite",
						"insertDummyDataInArray()": "infinite",
						"sortArrayUsingBubbleSort()": "infinite",
						"updateValueInArray(uint256,uint256)": "infinite"
					}
				},
				"methodIdentifiers": {
					"cleanValueInArray()": "823bed2d",
					"exchangeIndexValueInArray(uint256,uint256)": "92d83768",
					"getArray()": "d504ea1d",
					"getLength()": "be1c766b",
					"getValueInArray(uint256)": "9f704154",
					"insertDummyDataInArray()": "32fb874f",
					"sortArrayUsingBubbleSort()": "8abc4fb7",
					"updateValueInArray(uint256,uint256)": "1726abc0"
				}
			},
			"storageLayout": {
				"storage": [
					{
						"astId": 5,
						"contract": "contracts/FixedArray.sol:FixedSizeArray",
						"label": "fixedArray",
						"offset": 0,
						"slot": "0",
						"type": "t_array(t_uint256)5_storage"
					}
				],
				"types": {
					"t_array(t_uint256)5_storage": {
						"base": "t_uint256",
						"encoding": "inplace",
						"label": "uint256[5]",
						"numberOfBytes": "160"
					},
					"t_uint256": {
						"encoding": "inplace",
						"label": "uint256",
						"numberOfBytes": "32"
					}
				}
			},
			"userdoc": {
				"kind": "user",
				"methods": {},
				"version": 1
			}
		}
	}
}