{
	"contracts/StructDataType.sol": {
		"StructDataType": {
			"abi": [
				{
					"inputs": [
						{
							"internalType": "string",
							"name": "_name",
							"type": "string"
						},
						{
							"internalType": "uint256",
							"name": "_roll",
							"type": "uint256"
						},
						{
							"internalType": "bool",
							"name": "_pass",
							"type": "bool"
						}
					],
					"name": "insert",
					"outputs": [
						{
							"components": [
								{
									"internalType": "string",
									"name": "name",
									"type": "string"
								},
								{
									"internalType": "uint256",
									"name": "roll",
									"type": "uint256"
								},
								{
									"internalType": "bool",
									"name": "pass",
									"type": "bool"
								}
							],
							"internalType": "struct StructDataType.Student",
							"name": "",
							"type": "tuple"
						}
					],
					"stateMutability": "nonpayable",
					"type": "function"
				},
				{
					"inputs": [],
					"name": "insertDummy",
					"outputs": [
						{
							"components": [
								{
									"internalType": "string",
									"name": "name",
									"type": "string"
								},
								{
									"internalType": "uint256",
									"name": "roll",
									"type": "uint256"
								},
								{
									"internalType": "bool",
									"name": "pass",
									"type": "bool"
								}
							],
							"internalType": "struct StructDataType.Student",
							"name": "",
							"type": "tuple"
						}
					],
					"stateMutability": "nonpayable",
					"type": "function"
				},
				{
					"inputs": [
						{
							"internalType": "string",
							"name": "_name",
							"type": "string"
						},
						{
							"internalType": "uint256",
							"name": "_roll",
							"type": "uint256"
						},
						{
							"internalType": "bool",
							"name": "_pass",
							"type": "bool"
						}
					],
					"name": "insertStudent",
					"outputs": [
						{
							"components": [
								{
									"internalType": "string",
									"name": "name",
									"type": "string"
								},
								{
									"internalType": "uint256",
									"name": "roll",
									"type": "uint256"
								},
								{
									"internalType": "bool",
									"name": "pass",
									"type": "bool"
								}
							],
							"internalType": "struct StructDataType.Student",
							"name": "",
							"type": "tuple"
						}
					],
					"stateMutability": "nonpayable",
					"type": "function"
				},
				{
					"inputs": [],
					"name": "student",
					"outputs": [
						{
							"internalType": "string",
							"name": "name",
							"type": "string"
						},
						{
							"internalType": "uint256",
							"name": "roll",
							"type": "uint256"
						},
						{
							"internalType": "bool",
							"name": "pass",
							"type": "bool"
						}
					],
					"stateMutability": "view",
					"type": "function"
				},
				{
					"inputs": [],
					"name": "studentCount",
					"outputs": [
						{
							"internalType": "uint256",
							"name": "",
							"type": "uint256"
						}
					],
					"stateMutability": "view",
					"type": "function"
				},
				{
					"inputs": [
						{
							"internalType": "uint256",
							"name": "",
							"type": "uint256"
						}
					],
					"name": "students",
					"outputs": [
						{
							"internalType": "string",
							"name": "name",
							"type": "string"
						},
						{
							"internalType": "uint256",
							"name": "roll",
							"type": "uint256"
						},
						{
							"internalType": "bool",
							"name": "pass",
							"type": "bool"
						}
					],
					"stateMutability": "view",
					"type": "function"
				}
			],
			"devdoc": {
				"kind": "dev",
				"methods": {},
				"version": 1
			},
			"evm": {
				"assembly": "    /* \"contracts/StructDataType.sol\":74:1021  contract StructDataType {... */\n  mstore(0x40, 0x80)\n  callvalue\n  dup1\n  iszero\n  tag_1\n  jumpi\n  0x00\n  dup1\n  revert\ntag_1:\n  pop\n  dataSize(sub_0)\n  dup1\n  dataOffset(sub_0)\n  0x00\n  codecopy\n  0x00\n  return\nstop\n\nsub_0: assembly {\n        /* \"contracts/StructDataType.sol\":74:1021  contract StructDataType {... */\n      mstore(0x40, 0x80)\n      callvalue\n      dup1\n      iszero\n      tag_1\n      jumpi\n      0x00\n      dup1\n      revert\n    tag_1:\n      pop\n      jumpi(tag_2, lt(calldatasize, 0x04))\n      shr(0xe0, calldataload(0x00))\n      dup1\n      0x06ead22e\n      eq\n      tag_3\n      jumpi\n      dup1\n      0x2d7464ee\n      eq\n      tag_4\n      jumpi\n      dup1\n      0x3087afc4\n      eq\n      tag_5\n      jumpi\n      dup1\n      0x699450e8\n      eq\n      tag_6\n      jumpi\n      dup1\n      0xc30655a2\n      eq\n      tag_7\n      jumpi\n      dup1\n      0xe581f9ee\n      eq\n      tag_8\n      jumpi\n    tag_2:\n      0x00\n      dup1\n      revert\n        /* \"contracts/StructDataType.sol\":267:307  mapping(uint => Student) public students */\n    tag_3:\n      tag_9\n      0x04\n      dup1\n      calldatasize\n      sub\n      dup2\n      add\n      swap1\n      tag_10\n      swap2\n      swap1\n      tag_11\n      jump\t// in\n    tag_10:\n      tag_12\n      jump\t// in\n    tag_9:\n      mload(0x40)\n      tag_13\n      swap4\n      swap3\n      swap2\n      swap1\n      tag_14\n      jump\t// in\n    tag_13:\n      mload(0x40)\n      dup1\n      swap2\n      sub\n      swap1\n      return\n        /* \"contracts/StructDataType.sol\":771:1012  function insertStudent(string memory _name, uint _roll, bool _pass) public returns (Student memory) {... */\n    tag_4:\n      tag_15\n      0x04\n      dup1\n      calldatasize\n      sub\n      dup2\n      add\n      swap1\n      tag_16\n      swap2\n      swap1\n      tag_17\n      jump\t// in\n    tag_16:\n      tag_18\n      jump\t// in\n    tag_15:\n      mload(0x40)\n      tag_19\n      swap2\n      swap1\n      tag_20\n      jump\t// in\n    tag_19:\n      mload(0x40)\n      dup1\n      swap2\n      sub\n      swap1\n      return\n        /* \"contracts/StructDataType.sol\":351:534  function insertDummy() public returns (Student memory){... */\n    tag_5:\n      tag_21\n      tag_22\n      jump\t// in\n    tag_21:\n      mload(0x40)\n      tag_23\n      swap2\n      swap1\n      tag_20\n      jump\t// in\n    tag_23:\n      mload(0x40)\n      dup1\n      swap2\n      sub\n      swap1\n      return\n        /* \"contracts/StructDataType.sol\":195:217  Student public student */\n    tag_6:\n      tag_24\n      tag_25\n      jump\t// in\n    tag_24:\n      mload(0x40)\n      tag_26\n      swap4\n      swap3\n      swap2\n      swap1\n      tag_14\n      jump\t// in\n    tag_26:\n      mload(0x40)\n      dup1\n      swap2\n      sub\n      swap1\n      return\n        /* \"contracts/StructDataType.sol\":542:761  function insert(string memory _name , uint _roll, bool _pass) public returns (Student memory){... */\n    tag_7:\n      tag_27\n      0x04\n      dup1\n      calldatasize\n      sub\n      dup2\n      add\n      swap1\n      tag_28\n      swap2\n      swap1\n      tag_17\n      jump\t// in\n    tag_28:\n      tag_29\n      jump\t// in\n    tag_27:\n      mload(0x40)\n      tag_30\n      swap2\n      swap1\n      tag_20\n      jump\t// in\n    tag_30:\n      mload(0x40)\n      dup1\n      swap2\n      sub\n      swap1\n      return\n        /* \"contracts/StructDataType.sol\":314:338  uint public studentCount */\n    tag_8:\n      tag_31\n      tag_32\n      jump\t// in\n    tag_31:\n      mload(0x40)\n      tag_33\n      swap2\n      swap1\n      tag_34\n      jump\t// in\n    tag_33:\n      mload(0x40)\n      dup1\n      swap2\n      sub\n      swap1\n      return\n        /* \"contracts/StructDataType.sol\":267:307  mapping(uint => Student) public students */\n    tag_12:\n      mstore(0x20, 0x03)\n      dup1\n      0x00\n      mstore\n      keccak256(0x00, 0x40)\n      0x00\n      swap2\n      pop\n      swap1\n      pop\n      dup1\n      0x00\n      add\n      dup1\n      sload\n      tag_35\n      swap1\n      tag_36\n      jump\t// in\n    tag_35:\n      dup1\n      0x1f\n      add\n      0x20\n      dup1\n      swap2\n      div\n      mul\n      0x20\n      add\n      mload(0x40)\n      swap1\n      dup2\n      add\n      0x40\n      mstore\n      dup1\n      swap3\n      swap2\n      swap1\n      dup2\n      dup2\n      mstore\n      0x20\n      add\n      dup3\n      dup1\n      sload\n      tag_37\n      swap1\n      tag_36\n      jump\t// in\n    tag_37:\n      dup1\n      iszero\n      tag_38\n      jumpi\n      dup1\n      0x1f\n      lt\n      tag_39\n      jumpi\n      0x0100\n      dup1\n      dup4\n      sload\n      div\n      mul\n      dup4\n      mstore\n      swap2\n      0x20\n      add\n      swap2\n      jump(tag_38)\n    tag_39:\n      dup3\n      add\n      swap2\n      swap1\n      0x00\n      mstore\n      keccak256(0x00, 0x20)\n      swap1\n    tag_40:\n      dup2\n      sload\n      dup2\n      mstore\n      swap1\n      0x01\n      add\n      swap1\n      0x20\n      add\n      dup1\n      dup4\n      gt\n      tag_40\n      jumpi\n      dup3\n      swap1\n      sub\n      0x1f\n      and\n      dup3\n      add\n      swap2\n    tag_38:\n      pop\n      pop\n      pop\n      pop\n      pop\n      swap1\n      dup1\n      0x01\n      add\n      sload\n      swap1\n      dup1\n      0x02\n      add\n      0x00\n      swap1\n      sload\n      swap1\n      0x0100\n      exp\n      swap1\n      div\n      0xff\n      and\n      swap1\n      pop\n      dup4\n      jump\t// out\n        /* \"contracts/StructDataType.sol\":771:1012  function insertStudent(string memory _name, uint _roll, bool _pass) public returns (Student memory) {... */\n    tag_18:\n        /* \"contracts/StructDataType.sol\":855:869  Student memory */\n      tag_41\n      tag_42\n      jump\t// in\n    tag_41:\n        /* \"contracts/StructDataType.sol\":907:935  Student(_name, _roll, _pass) */\n      mload(0x40)\n      dup1\n      0x60\n      add\n      0x40\n      mstore\n      dup1\n        /* \"contracts/StructDataType.sol\":915:920  _name */\n      dup6\n        /* \"contracts/StructDataType.sol\":907:935  Student(_name, _roll, _pass) */\n      dup2\n      mstore\n      0x20\n      add\n        /* \"contracts/StructDataType.sol\":922:927  _roll */\n      dup5\n        /* \"contracts/StructDataType.sol\":907:935  Student(_name, _roll, _pass) */\n      dup2\n      mstore\n      0x20\n      add\n        /* \"contracts/StructDataType.sol\":929:934  _pass */\n      dup4\n        /* \"contracts/StructDataType.sol\":907:935  Student(_name, _roll, _pass) */\n      iszero\n      iszero\n      dup2\n      mstore\n      pop\n        /* \"contracts/StructDataType.sol\":882:890  students */\n      0x03\n        /* \"contracts/StructDataType.sol\":882:904  students[studentCount] */\n      0x00\n        /* \"contracts/StructDataType.sol\":891:903  studentCount */\n      sload(0x04)\n        /* \"contracts/StructDataType.sol\":882:904  students[studentCount] */\n      dup2\n      mstore\n      0x20\n      add\n      swap1\n      dup2\n      mstore\n      0x20\n      add\n      0x00\n      keccak256\n        /* \"contracts/StructDataType.sol\":882:935  students[studentCount] = Student(_name, _roll, _pass) */\n      0x00\n      dup3\n      add\n      mload\n      dup2\n      0x00\n      add\n      swap1\n      dup2\n      tag_44\n      swap2\n      swap1\n      tag_45\n      jump\t// in\n    tag_44:\n      pop\n      0x20\n      dup3\n      add\n      mload\n      dup2\n      0x01\n      add\n      sstore\n      0x40\n      dup3\n      add\n      mload\n      dup2\n      0x02\n      add\n      exp(0x0100, 0x00)\n      dup2\n      sload\n      dup2\n      0xff\n      mul\n      not\n      and\n      swap1\n      dup4\n      iszero\n      iszero\n      mul\n      or\n      swap1\n      sstore\n      pop\n      swap1\n      pop\n      pop\n        /* \"contracts/StructDataType.sol\":946:958  studentCount */\n      0x04\n      0x00\n        /* \"contracts/StructDataType.sol\":946:960  studentCount++ */\n      dup2\n      sload\n      dup1\n      swap3\n      swap2\n      swap1\n      tag_46\n      swap1\n      tag_47\n      jump\t// in\n    tag_46:\n      swap2\n      swap1\n      pop\n      sstore\n      pop\n        /* \"contracts/StructDataType.sol\":978:986  students */\n      0x03\n        /* \"contracts/StructDataType.sol\":978:1004  students[studentCount - 1] */\n      0x00\n        /* \"contracts/StructDataType.sol\":1002:1003  1 */\n      0x01\n        /* \"contracts/StructDataType.sol\":987:999  studentCount */\n      sload(0x04)\n        /* \"contracts/StructDataType.sol\":987:1003  studentCount - 1 */\n      tag_48\n      swap2\n      swap1\n      tag_49\n      jump\t// in\n    tag_48:\n        /* \"contracts/StructDataType.sol\":978:1004  students[studentCount - 1] */\n      dup2\n      mstore\n      0x20\n      add\n      swap1\n      dup2\n      mstore\n      0x20\n      add\n      0x00\n      keccak256\n        /* \"contracts/StructDataType.sol\":971:1004  return students[studentCount - 1] */\n      mload(0x40)\n      dup1\n      0x60\n      add\n      0x40\n      mstore\n      swap1\n      dup2\n      0x00\n      dup3\n      add\n      dup1\n      sload\n      tag_50\n      swap1\n      tag_36\n      jump\t// in\n    tag_50:\n      dup1\n      0x1f\n      add\n      0x20\n      dup1\n      swap2\n      div\n      mul\n      0x20\n      add\n      mload(0x40)\n      swap1\n      dup2\n      add\n      0x40\n      mstore\n      dup1\n      swap3\n      swap2\n      swap1\n      dup2\n      dup2\n      mstore\n      0x20\n      add\n      dup3\n      dup1\n      sload\n      tag_51\n      swap1\n      tag_36\n      jump\t// in\n    tag_51:\n      dup1\n      iszero\n      tag_52\n      jumpi\n      dup1\n      0x1f\n      lt\n      tag_53\n      jumpi\n      0x0100\n      dup1\n      dup4\n      sload\n      div\n      mul\n      dup4\n      mstore\n      swap2\n      0x20\n      add\n      swap2\n      jump(tag_52)\n    tag_53:\n      dup3\n      add\n      swap2\n      swap1\n      0x00\n      mstore\n      keccak256(0x00, 0x20)\n      swap1\n    tag_54:\n      dup2\n      sload\n      dup2\n      mstore\n      swap1\n      0x01\n      add\n      swap1\n      0x20\n      add\n      dup1\n      dup4\n      gt\n      tag_54\n      jumpi\n      dup3\n      swap1\n      sub\n      0x1f\n      and\n      dup3\n      add\n      swap2\n    tag_52:\n      pop\n      pop\n      pop\n      pop\n      pop\n      dup2\n      mstore\n      0x20\n      add\n      0x01\n      dup3\n      add\n      sload\n      dup2\n      mstore\n      0x20\n      add\n      0x02\n      dup3\n      add\n      0x00\n      swap1\n      sload\n      swap1\n      0x0100\n      exp\n      swap1\n      div\n      0xff\n      and\n      iszero\n      iszero\n      iszero\n      iszero\n      dup2\n      mstore\n      pop\n      pop\n      swap1\n      pop\n        /* \"contracts/StructDataType.sol\":771:1012  function insertStudent(string memory _name, uint _roll, bool _pass) public returns (Student memory) {... */\n      swap4\n      swap3\n      pop\n      pop\n      pop\n      jump\t// out\n        /* \"contracts/StructDataType.sol\":351:534  function insertDummy() public returns (Student memory){... */\n    tag_22:\n        /* \"contracts/StructDataType.sol\":390:404  Student memory */\n      tag_55\n      tag_42\n      jump\t// in\n    tag_55:\n        /* \"contracts/StructDataType.sol\":416:443  student.name = \"Meemanshoo\" */\n      mload(0x40)\n      dup1\n      0x40\n      add\n      0x40\n      mstore\n      dup1\n      0x0a\n      dup2\n      mstore\n      0x20\n      add\n      0x4d65656d616e73686f6f00000000000000000000000000000000000000000000\n      dup2\n      mstore\n      pop\n        /* \"contracts/StructDataType.sol\":416:423  student */\n      0x00\n        /* \"contracts/StructDataType.sol\":416:428  student.name */\n      dup1\n      add\n        /* \"contracts/StructDataType.sol\":416:443  student.name = \"Meemanshoo\" */\n      swap1\n      dup2\n      tag_57\n      swap2\n      swap1\n      tag_45\n      jump\t// in\n    tag_57:\n      pop\n        /* \"contracts/StructDataType.sol\":469:471  12 */\n      0x0c\n        /* \"contracts/StructDataType.sol\":454:461  student */\n      0x00\n        /* \"contracts/StructDataType.sol\":454:466  student.roll */\n      0x01\n      add\n        /* \"contracts/StructDataType.sol\":454:471  student.roll = 12 */\n      dup2\n      swap1\n      sstore\n      pop\n        /* \"contracts/StructDataType.sol\":497:501  true */\n      0x01\n        /* \"contracts/StructDataType.sol\":482:489  student */\n      0x00\n        /* \"contracts/StructDataType.sol\":482:494  student.pass */\n      0x02\n      add\n      0x00\n        /* \"contracts/StructDataType.sol\":482:501  student.pass = true */\n      0x0100\n      exp\n      dup2\n      sload\n      dup2\n      0xff\n      mul\n      not\n      and\n      swap1\n      dup4\n      iszero\n      iszero\n      mul\n      or\n      swap1\n      sstore\n      pop\n        /* \"contracts/StructDataType.sol\":519:526  student */\n      0x00\n        /* \"contracts/StructDataType.sol\":512:526  return student */\n      mload(0x40)\n      dup1\n      0x60\n      add\n      0x40\n      mstore\n      swap1\n      dup2\n      0x00\n      dup3\n      add\n      dup1\n      sload\n      tag_58\n      swap1\n      tag_36\n      jump\t// in\n    tag_58:\n      dup1\n      0x1f\n      add\n      0x20\n      dup1\n      swap2\n      div\n      mul\n      0x20\n      add\n      mload(0x40)\n      swap1\n      dup2\n      add\n      0x40\n      mstore\n      dup1\n      swap3\n      swap2\n      swap1\n      dup2\n      dup2\n      mstore\n      0x20\n      add\n      dup3\n      dup1\n      sload\n      tag_59\n      swap1\n      tag_36\n      jump\t// in\n    tag_59:\n      dup1\n      iszero\n      tag_60\n      jumpi\n      dup1\n      0x1f\n      lt\n      tag_61\n      jumpi\n      0x0100\n      dup1\n      dup4\n      sload\n      div\n      mul\n      dup4\n      mstore\n      swap2\n      0x20\n      add\n      swap2\n      jump(tag_60)\n    tag_61:\n      dup3\n      add\n      swap2\n      swap1\n      0x00\n      mstore\n      keccak256(0x00, 0x20)\n      swap1\n    tag_62:\n      dup2\n      sload\n      dup2\n      mstore\n      swap1\n      0x01\n      add\n      swap1\n      0x20\n      add\n      dup1\n      dup4\n      gt\n      tag_62\n      jumpi\n      dup3\n      swap1\n      sub\n      0x1f\n      and\n      dup3\n      add\n      swap2\n    tag_60:\n      pop\n      pop\n      pop\n      pop\n      pop\n      dup2\n      mstore\n      0x20\n      add\n      0x01\n      dup3\n      add\n      sload\n      dup2\n      mstore\n      0x20\n      add\n      0x02\n      dup3\n      add\n      0x00\n      swap1\n      sload\n      swap1\n      0x0100\n      exp\n      swap1\n      div\n      0xff\n      and\n      iszero\n      iszero\n      iszero\n      iszero\n      dup2\n      mstore\n      pop\n      pop\n      swap1\n      pop\n        /* \"contracts/StructDataType.sol\":351:534  function insertDummy() public returns (Student memory){... */\n      swap1\n      jump\t// out\n        /* \"contracts/StructDataType.sol\":195:217  Student public student */\n    tag_25:\n      0x00\n      dup1\n      0x00\n      add\n      dup1\n      sload\n      tag_63\n      swap1\n      tag_36\n      jump\t// in\n    tag_63:\n      dup1\n      0x1f\n      add\n      0x20\n      dup1\n      swap2\n      div\n      mul\n      0x20\n      add\n      mload(0x40)\n      swap1\n      dup2\n      add\n      0x40\n      mstore\n      dup1\n      swap3\n      swap2\n      swap1\n      dup2\n      dup2\n      mstore\n      0x20\n      add\n      dup3\n      dup1\n      sload\n      tag_64\n      swap1\n      tag_36\n      jump\t// in\n    tag_64:\n      dup1\n      iszero\n      tag_65\n      jumpi\n      dup1\n      0x1f\n      lt\n      tag_66\n      jumpi\n      0x0100\n      dup1\n      dup4\n      sload\n      div\n      mul\n      dup4\n      mstore\n      swap2\n      0x20\n      add\n      swap2\n      jump(tag_65)\n    tag_66:\n      dup3\n      add\n      swap2\n      swap1\n      0x00\n      mstore\n      keccak256(0x00, 0x20)\n      swap1\n    tag_67:\n      dup2\n      sload\n      dup2\n      mstore\n      swap1\n      0x01\n      add\n      swap1\n      0x20\n      add\n      dup1\n      dup4\n      gt\n      tag_67\n      jumpi\n      dup3\n      swap1\n      sub\n      0x1f\n      and\n      dup3\n      add\n      swap2\n    tag_65:\n      pop\n      pop\n      pop\n      pop\n      pop\n      swap1\n      dup1\n      0x01\n      add\n      sload\n      swap1\n      dup1\n      0x02\n      add\n      0x00\n      swap1\n      sload\n      swap1\n      0x0100\n      exp\n      swap1\n      div\n      0xff\n      and\n      swap1\n      pop\n      dup4\n      jump\t// out\n        /* \"contracts/StructDataType.sol\":542:761  function insert(string memory _name , uint _roll, bool _pass) public returns (Student memory){... */\n    tag_29:\n        /* \"contracts/StructDataType.sol\":620:634  Student memory */\n      tag_68\n      tag_42\n      jump\t// in\n    tag_68:\n        /* \"contracts/StructDataType.sol\":661:666  _name */\n      dup4\n        /* \"contracts/StructDataType.sol\":646:653  student */\n      0x00\n        /* \"contracts/StructDataType.sol\":646:658  student.name */\n      dup1\n      add\n        /* \"contracts/StructDataType.sol\":646:666  student.name = _name */\n      swap1\n      dup2\n      tag_70\n      swap2\n      swap1\n      tag_45\n      jump\t// in\n    tag_70:\n      pop\n        /* \"contracts/StructDataType.sol\":692:697  _roll */\n      dup3\n        /* \"contracts/StructDataType.sol\":677:684  student */\n      0x00\n        /* \"contracts/StructDataType.sol\":677:689  student.roll */\n      0x01\n      add\n        /* \"contracts/StructDataType.sol\":677:697  student.roll = _roll */\n      dup2\n      swap1\n      sstore\n      pop\n        /* \"contracts/StructDataType.sol\":723:728  _pass */\n      dup2\n        /* \"contracts/StructDataType.sol\":708:715  student */\n      0x00\n        /* \"contracts/StructDataType.sol\":708:720  student.pass */\n      0x02\n      add\n      0x00\n        /* \"contracts/StructDataType.sol\":708:728  student.pass = _pass */\n      0x0100\n      exp\n      dup2\n      sload\n      dup2\n      0xff\n      mul\n      not\n      and\n      swap1\n      dup4\n      iszero\n      iszero\n      mul\n      or\n      swap1\n      sstore\n      pop\n        /* \"contracts/StructDataType.sol\":746:753  student */\n      0x00\n        /* \"contracts/StructDataType.sol\":739:753  return student */\n      mload(0x40)\n      dup1\n      0x60\n      add\n      0x40\n      mstore\n      swap1\n      dup2\n      0x00\n      dup3\n      add\n      dup1\n      sload\n      tag_71\n      swap1\n      tag_36\n      jump\t// in\n    tag_71:\n      dup1\n      0x1f\n      add\n      0x20\n      dup1\n      swap2\n      div\n      mul\n      0x20\n      add\n      mload(0x40)\n      swap1\n      dup2\n      add\n      0x40\n      mstore\n      dup1\n      swap3\n      swap2\n      swap1\n      dup2\n      dup2\n      mstore\n      0x20\n      add\n      dup3\n      dup1\n      sload\n      tag_72\n      swap1\n      tag_36\n      jump\t// in\n    tag_72:\n      dup1\n      iszero\n      tag_73\n      jumpi\n      dup1\n      0x1f\n      lt\n      tag_74\n      jumpi\n      0x0100\n      dup1\n      dup4\n      sload\n      div\n      mul\n      dup4\n      mstore\n      swap2\n      0x20\n      add\n      swap2\n      jump(tag_73)\n    tag_74:\n      dup3\n      add\n      swap2\n      swap1\n      0x00\n      mstore\n      keccak256(0x00, 0x20)\n      swap1\n    tag_75:\n      dup2\n      sload\n      dup2\n      mstore\n      swap1\n      0x01\n      add\n      swap1\n      0x20\n      add\n      dup1\n      dup4\n      gt\n      tag_75\n      jumpi\n      dup3\n      swap1\n      sub\n      0x1f\n      and\n      dup3\n      add\n      swap2\n    tag_73:\n      pop\n      pop\n      pop\n      pop\n      pop\n      dup2\n      mstore\n      0x20\n      add\n      0x01\n      dup3\n      add\n      sload\n      dup2\n      mstore\n      0x20\n      add\n      0x02\n      dup3\n      add\n      0x00\n      swap1\n      sload\n      swap1\n      0x0100\n      exp\n      swap1\n      div\n      0xff\n      and\n      iszero\n      iszero\n      iszero\n      iszero\n      dup2\n      mstore\n      pop\n      pop\n      swap1\n      pop\n        /* \"contracts/StructDataType.sol\":542:761  function insert(string memory _name , uint _roll, bool _pass) public returns (Student memory){... */\n      swap4\n      swap3\n      pop\n      pop\n      pop\n      jump\t// out\n        /* \"contracts/StructDataType.sol\":314:338  uint public studentCount */\n    tag_32:\n      sload(0x04)\n      dup2\n      jump\t// out\n    tag_42:\n      mload(0x40)\n      dup1\n      0x60\n      add\n      0x40\n      mstore\n      dup1\n      0x60\n      dup2\n      mstore\n      0x20\n      add\n      0x00\n      dup2\n      mstore\n      0x20\n      add\n      iszero(iszero(0x00))\n      dup2\n      mstore\n      pop\n      swap1\n      jump\t// out\n        /* \"#utility.yul\":7:82   */\n    tag_76:\n        /* \"#utility.yul\":40:46   */\n      0x00\n        /* \"#utility.yul\":73:75   */\n      0x40\n        /* \"#utility.yul\":67:76   */\n      mload\n        /* \"#utility.yul\":57:76   */\n      swap1\n      pop\n        /* \"#utility.yul\":7:82   */\n      swap1\n      jump\t// out\n        /* \"#utility.yul\":88:205   */\n    tag_77:\n        /* \"#utility.yul\":197:198   */\n      0x00\n        /* \"#utility.yul\":194:195   */\n      dup1\n        /* \"#utility.yul\":187:199   */\n      revert\n        /* \"#utility.yul\":211:328   */\n    tag_78:\n        /* \"#utility.yul\":320:321   */\n      0x00\n        /* \"#utility.yul\":317:318   */\n      dup1\n        /* \"#utility.yul\":310:322   */\n      revert\n        /* \"#utility.yul\":334:411   */\n    tag_79:\n        /* \"#utility.yul\":371:378   */\n      0x00\n        /* \"#utility.yul\":400:405   */\n      dup2\n        /* \"#utility.yul\":389:405   */\n      swap1\n      pop\n        /* \"#utility.yul\":334:411   */\n      swap2\n      swap1\n      pop\n      jump\t// out\n        /* \"#utility.yul\":417:539   */\n    tag_80:\n        /* \"#utility.yul\":490:514   */\n      tag_129\n        /* \"#utility.yul\":508:513   */\n      dup2\n        /* \"#utility.yul\":490:514   */\n      tag_79\n      jump\t// in\n    tag_129:\n        /* \"#utility.yul\":483:488   */\n      dup2\n        /* \"#utility.yul\":480:515   */\n      eq\n        /* \"#utility.yul\":470:533   */\n      tag_130\n      jumpi\n        /* \"#utility.yul\":529:530   */\n      0x00\n        /* \"#utility.yul\":526:527   */\n      dup1\n        /* \"#utility.yul\":519:531   */\n      revert\n        /* \"#utility.yul\":470:533   */\n    tag_130:\n        /* \"#utility.yul\":417:539   */\n      pop\n      jump\t// out\n        /* \"#utility.yul\":545:684   */\n    tag_81:\n        /* \"#utility.yul\":591:596   */\n      0x00\n        /* \"#utility.yul\":629:635   */\n      dup2\n        /* \"#utility.yul\":616:636   */\n      calldataload\n        /* \"#utility.yul\":607:636   */\n      swap1\n      pop\n        /* \"#utility.yul\":645:678   */\n      tag_132\n        /* \"#utility.yul\":672:677   */\n      dup2\n        /* \"#utility.yul\":645:678   */\n      tag_80\n      jump\t// in\n    tag_132:\n        /* \"#utility.yul\":545:684   */\n      swap3\n      swap2\n      pop\n      pop\n      jump\t// out\n        /* \"#utility.yul\":690:1019   */\n    tag_11:\n        /* \"#utility.yul\":749:755   */\n      0x00\n        /* \"#utility.yul\":798:800   */\n      0x20\n        /* \"#utility.yul\":786:795   */\n      dup3\n        /* \"#utility.yul\":777:784   */\n      dup5\n        /* \"#utility.yul\":773:796   */\n      sub\n        /* \"#utility.yul\":769:801   */\n      slt\n        /* \"#utility.yul\":766:885   */\n      iszero\n      tag_134\n      jumpi\n        /* \"#utility.yul\":804:883   */\n      tag_135\n      tag_77\n      jump\t// in\n    tag_135:\n        /* \"#utility.yul\":766:885   */\n    tag_134:\n        /* \"#utility.yul\":924:925   */\n      0x00\n        /* \"#utility.yul\":949:1002   */\n      tag_136\n        /* \"#utility.yul\":994:1001   */\n      dup5\n        /* \"#utility.yul\":985:991   */\n      dup3\n        /* \"#utility.yul\":974:983   */\n      dup6\n        /* \"#utility.yul\":970:992   */\n      add\n        /* \"#utility.yul\":949:1002   */\n      tag_81\n      jump\t// in\n    tag_136:\n        /* \"#utility.yul\":939:1002   */\n      swap2\n      pop\n        /* \"#utility.yul\":895:1012   */\n      pop\n        /* \"#utility.yul\":690:1019   */\n      swap3\n      swap2\n      pop\n      pop\n      jump\t// out\n        /* \"#utility.yul\":1025:1124   */\n    tag_82:\n        /* \"#utility.yul\":1077:1083   */\n      0x00\n        /* \"#utility.yul\":1111:1116   */\n      dup2\n        /* \"#utility.yul\":1105:1117   */\n      mload\n        /* \"#utility.yul\":1095:1117   */\n      swap1\n      pop\n        /* \"#utility.yul\":1025:1124   */\n      swap2\n      swap1\n      pop\n      jump\t// out\n        /* \"#utility.yul\":1130:1299   */\n    tag_83:\n        /* \"#utility.yul\":1214:1225   */\n      0x00\n        /* \"#utility.yul\":1248:1254   */\n      dup3\n        /* \"#utility.yul\":1243:1246   */\n      dup3\n        /* \"#utility.yul\":1236:1255   */\n      mstore\n        /* \"#utility.yul\":1288:1292   */\n      0x20\n        /* \"#utility.yul\":1283:1286   */\n      dup3\n        /* \"#utility.yul\":1279:1293   */\n      add\n        /* \"#utility.yul\":1264:1293   */\n      swap1\n      pop\n        /* \"#utility.yul\":1130:1299   */\n      swap3\n      swap2\n      pop\n      pop\n      jump\t// out\n        /* \"#utility.yul\":1305:1444   */\n    tag_84:\n        /* \"#utility.yul\":1394:1400   */\n      dup3\n        /* \"#utility.yul\":1389:1392   */\n      dup2\n        /* \"#utility.yul\":1384:1387   */\n      dup4\n        /* \"#utility.yul\":1378:1401   */\n      mcopy\n        /* \"#utility.yul\":1435:1436   */\n      0x00\n        /* \"#utility.yul\":1426:1432   */\n      dup4\n        /* \"#utility.yul\":1421:1424   */\n      dup4\n        /* \"#utility.yul\":1417:1433   */\n      add\n        /* \"#utility.yul\":1410:1437   */\n      mstore\n        /* \"#utility.yul\":1305:1444   */\n      pop\n      pop\n      pop\n      jump\t// out\n        /* \"#utility.yul\":1450:1552   */\n    tag_85:\n        /* \"#utility.yul\":1491:1497   */\n      0x00\n        /* \"#utility.yul\":1542:1544   */\n      0x1f\n        /* \"#utility.yul\":1538:1545   */\n      not\n        /* \"#utility.yul\":1533:1535   */\n      0x1f\n        /* \"#utility.yul\":1526:1531   */\n      dup4\n        /* \"#utility.yul\":1522:1536   */\n      add\n        /* \"#utility.yul\":1518:1546   */\n      and\n        /* \"#utility.yul\":1508:1546   */\n      swap1\n      pop\n        /* \"#utility.yul\":1450:1552   */\n      swap2\n      swap1\n      pop\n      jump\t// out\n        /* \"#utility.yul\":1558:1935   */\n    tag_86:\n        /* \"#utility.yul\":1646:1649   */\n      0x00\n        /* \"#utility.yul\":1674:1713   */\n      tag_142\n        /* \"#utility.yul\":1707:1712   */\n      dup3\n        /* \"#utility.yul\":1674:1713   */\n      tag_82\n      jump\t// in\n    tag_142:\n        /* \"#utility.yul\":1729:1800   */\n      tag_143\n        /* \"#utility.yul\":1793:1799   */\n      dup2\n        /* \"#utility.yul\":1788:1791   */\n      dup6\n        /* \"#utility.yul\":1729:1800   */\n      tag_83\n      jump\t// in\n    tag_143:\n        /* \"#utility.yul\":1722:1800   */\n      swap4\n      pop\n        /* \"#utility.yul\":1809:1874   */\n      tag_144\n        /* \"#utility.yul\":1867:1873   */\n      dup2\n        /* \"#utility.yul\":1862:1865   */\n      dup6\n        /* \"#utility.yul\":1855:1859   */\n      0x20\n        /* \"#utility.yul\":1848:1853   */\n      dup7\n        /* \"#utility.yul\":1844:1860   */\n      add\n        /* \"#utility.yul\":1809:1874   */\n      tag_84\n      jump\t// in\n    tag_144:\n        /* \"#utility.yul\":1899:1928   */\n      tag_145\n        /* \"#utility.yul\":1921:1927   */\n      dup2\n        /* \"#utility.yul\":1899:1928   */\n      tag_85\n      jump\t// in\n    tag_145:\n        /* \"#utility.yul\":1894:1897   */\n      dup5\n        /* \"#utility.yul\":1890:1929   */\n      add\n        /* \"#utility.yul\":1883:1929   */\n      swap2\n      pop\n        /* \"#utility.yul\":1650:1935   */\n      pop\n        /* \"#utility.yul\":1558:1935   */\n      swap3\n      swap2\n      pop\n      pop\n      jump\t// out\n        /* \"#utility.yul\":1941:2059   */\n    tag_87:\n        /* \"#utility.yul\":2028:2052   */\n      tag_147\n        /* \"#utility.yul\":2046:2051   */\n      dup2\n        /* \"#utility.yul\":2028:2052   */\n      tag_79\n      jump\t// in\n    tag_147:\n        /* \"#utility.yul\":2023:2026   */\n      dup3\n        /* \"#utility.yul\":2016:2053   */\n      mstore\n        /* \"#utility.yul\":1941:2059   */\n      pop\n      pop\n      jump\t// out\n        /* \"#utility.yul\":2065:2155   */\n    tag_88:\n        /* \"#utility.yul\":2099:2106   */\n      0x00\n        /* \"#utility.yul\":2142:2147   */\n      dup2\n        /* \"#utility.yul\":2135:2148   */\n      iszero\n        /* \"#utility.yul\":2128:2149   */\n      iszero\n        /* \"#utility.yul\":2117:2149   */\n      swap1\n      pop\n        /* \"#utility.yul\":2065:2155   */\n      swap2\n      swap1\n      pop\n      jump\t// out\n        /* \"#utility.yul\":2161:2270   */\n    tag_89:\n        /* \"#utility.yul\":2242:2263   */\n      tag_150\n        /* \"#utility.yul\":2257:2262   */\n      dup2\n        /* \"#utility.yul\":2242:2263   */\n      tag_88\n      jump\t// in\n    tag_150:\n        /* \"#utility.yul\":2237:2240   */\n      dup3\n        /* \"#utility.yul\":2230:2264   */\n      mstore\n        /* \"#utility.yul\":2161:2270   */\n      pop\n      pop\n      jump\t// out\n        /* \"#utility.yul\":2276:2797   */\n    tag_14:\n        /* \"#utility.yul\":2439:2443   */\n      0x00\n        /* \"#utility.yul\":2477:2479   */\n      0x60\n        /* \"#utility.yul\":2466:2475   */\n      dup3\n        /* \"#utility.yul\":2462:2480   */\n      add\n        /* \"#utility.yul\":2454:2480   */\n      swap1\n      pop\n        /* \"#utility.yul\":2526:2535   */\n      dup2\n        /* \"#utility.yul\":2520:2524   */\n      dup2\n        /* \"#utility.yul\":2516:2536   */\n      sub\n        /* \"#utility.yul\":2512:2513   */\n      0x00\n        /* \"#utility.yul\":2501:2510   */\n      dup4\n        /* \"#utility.yul\":2497:2514   */\n      add\n        /* \"#utility.yul\":2490:2537   */\n      mstore\n        /* \"#utility.yul\":2554:2632   */\n      tag_152\n        /* \"#utility.yul\":2627:2631   */\n      dup2\n        /* \"#utility.yul\":2618:2624   */\n      dup7\n        /* \"#utility.yul\":2554:2632   */\n      tag_86\n      jump\t// in\n    tag_152:\n        /* \"#utility.yul\":2546:2632   */\n      swap1\n      pop\n        /* \"#utility.yul\":2642:2714   */\n      tag_153\n        /* \"#utility.yul\":2710:2712   */\n      0x20\n        /* \"#utility.yul\":2699:2708   */\n      dup4\n        /* \"#utility.yul\":2695:2713   */\n      add\n        /* \"#utility.yul\":2686:2692   */\n      dup6\n        /* \"#utility.yul\":2642:2714   */\n      tag_87\n      jump\t// in\n    tag_153:\n        /* \"#utility.yul\":2724:2790   */\n      tag_154\n        /* \"#utility.yul\":2786:2788   */\n      0x40\n        /* \"#utility.yul\":2775:2784   */\n      dup4\n        /* \"#utility.yul\":2771:2789   */\n      add\n        /* \"#utility.yul\":2762:2768   */\n      dup5\n        /* \"#utility.yul\":2724:2790   */\n      tag_89\n      jump\t// in\n    tag_154:\n        /* \"#utility.yul\":2276:2797   */\n      swap5\n      swap4\n      pop\n      pop\n      pop\n      pop\n      jump\t// out\n        /* \"#utility.yul\":2803:2920   */\n    tag_90:\n        /* \"#utility.yul\":2912:2913   */\n      0x00\n        /* \"#utility.yul\":2909:2910   */\n      dup1\n        /* \"#utility.yul\":2902:2914   */\n      revert\n        /* \"#utility.yul\":2926:3043   */\n    tag_91:\n        /* \"#utility.yul\":3035:3036   */\n      0x00\n        /* \"#utility.yul\":3032:3033   */\n      dup1\n        /* \"#utility.yul\":3025:3037   */\n      revert\n        /* \"#utility.yul\":3049:3229   */\n    tag_92:\n        /* \"#utility.yul\":3097:3174   */\n      0x4e487b7100000000000000000000000000000000000000000000000000000000\n        /* \"#utility.yul\":3094:3095   */\n      0x00\n        /* \"#utility.yul\":3087:3175   */\n      mstore\n        /* \"#utility.yul\":3194:3198   */\n      0x41\n        /* \"#utility.yul\":3191:3192   */\n      0x04\n        /* \"#utility.yul\":3184:3199   */\n      mstore\n        /* \"#utility.yul\":3218:3222   */\n      0x24\n        /* \"#utility.yul\":3215:3216   */\n      0x00\n        /* \"#utility.yul\":3208:3223   */\n      revert\n        /* \"#utility.yul\":3235:3516   */\n    tag_93:\n        /* \"#utility.yul\":3318:3345   */\n      tag_159\n        /* \"#utility.yul\":3340:3344   */\n      dup3\n        /* \"#utility.yul\":3318:3345   */\n      tag_85\n      jump\t// in\n    tag_159:\n        /* \"#utility.yul\":3310:3316   */\n      dup2\n        /* \"#utility.yul\":3306:3346   */\n      add\n        /* \"#utility.yul\":3448:3454   */\n      dup2\n        /* \"#utility.yul\":3436:3446   */\n      dup2\n        /* \"#utility.yul\":3433:3455   */\n      lt\n        /* \"#utility.yul\":3412:3430   */\n      0xffffffffffffffff\n        /* \"#utility.yul\":3400:3410   */\n      dup3\n        /* \"#utility.yul\":3397:3431   */\n      gt\n        /* \"#utility.yul\":3394:3456   */\n      or\n        /* \"#utility.yul\":3391:3479   */\n      iszero\n      tag_160\n      jumpi\n        /* \"#utility.yul\":3459:3477   */\n      tag_161\n      tag_92\n      jump\t// in\n    tag_161:\n        /* \"#utility.yul\":3391:3479   */\n    tag_160:\n        /* \"#utility.yul\":3499:3509   */\n      dup1\n        /* \"#utility.yul\":3495:3497   */\n      0x40\n        /* \"#utility.yul\":3488:3510   */\n      mstore\n        /* \"#utility.yul\":3278:3516   */\n      pop\n        /* \"#utility.yul\":3235:3516   */\n      pop\n      pop\n      jump\t// out\n        /* \"#utility.yul\":3522:3651   */\n    tag_94:\n        /* \"#utility.yul\":3556:3562   */\n      0x00\n        /* \"#utility.yul\":3583:3603   */\n      tag_163\n      tag_76\n      jump\t// in\n    tag_163:\n        /* \"#utility.yul\":3573:3603   */\n      swap1\n      pop\n        /* \"#utility.yul\":3612:3645   */\n      tag_164\n        /* \"#utility.yul\":3640:3644   */\n      dup3\n        /* \"#utility.yul\":3632:3638   */\n      dup3\n        /* \"#utility.yul\":3612:3645   */\n      tag_93\n      jump\t// in\n    tag_164:\n        /* \"#utility.yul\":3522:3651   */\n      swap2\n      swap1\n      pop\n      jump\t// out\n        /* \"#utility.yul\":3657:3965   */\n    tag_95:\n        /* \"#utility.yul\":3719:3723   */\n      0x00\n        /* \"#utility.yul\":3809:3827   */\n      0xffffffffffffffff\n        /* \"#utility.yul\":3801:3807   */\n      dup3\n        /* \"#utility.yul\":3798:3828   */\n      gt\n        /* \"#utility.yul\":3795:3851   */\n      iszero\n      tag_166\n      jumpi\n        /* \"#utility.yul\":3831:3849   */\n      tag_167\n      tag_92\n      jump\t// in\n    tag_167:\n        /* \"#utility.yul\":3795:3851   */\n    tag_166:\n        /* \"#utility.yul\":3869:3898   */\n      tag_168\n        /* \"#utility.yul\":3891:3897   */\n      dup3\n        /* \"#utility.yul\":3869:3898   */\n      tag_85\n      jump\t// in\n    tag_168:\n        /* \"#utility.yul\":3861:3898   */\n      swap1\n      pop\n        /* \"#utility.yul\":3953:3957   */\n      0x20\n        /* \"#utility.yul\":3947:3951   */\n      dup2\n        /* \"#utility.yul\":3943:3958   */\n      add\n        /* \"#utility.yul\":3935:3958   */\n      swap1\n      pop\n        /* \"#utility.yul\":3657:3965   */\n      swap2\n      swap1\n      pop\n      jump\t// out\n        /* \"#utility.yul\":3971:4119   */\n    tag_96:\n        /* \"#utility.yul\":4069:4075   */\n      dup3\n        /* \"#utility.yul\":4064:4067   */\n      dup2\n        /* \"#utility.yul\":4059:4062   */\n      dup4\n        /* \"#utility.yul\":4046:4076   */\n      calldatacopy\n        /* \"#utility.yul\":4110:4111   */\n      0x00\n        /* \"#utility.yul\":4101:4107   */\n      dup4\n        /* \"#utility.yul\":4096:4099   */\n      dup4\n        /* \"#utility.yul\":4092:4108   */\n      add\n        /* \"#utility.yul\":4085:4112   */\n      mstore\n        /* \"#utility.yul\":3971:4119   */\n      pop\n      pop\n      pop\n      jump\t// out\n        /* \"#utility.yul\":4125:4550   */\n    tag_97:\n        /* \"#utility.yul\":4203:4208   */\n      0x00\n        /* \"#utility.yul\":4228:4294   */\n      tag_171\n        /* \"#utility.yul\":4244:4293   */\n      tag_172\n        /* \"#utility.yul\":4286:4292   */\n      dup5\n        /* \"#utility.yul\":4244:4293   */\n      tag_95\n      jump\t// in\n    tag_172:\n        /* \"#utility.yul\":4228:4294   */\n      tag_94\n      jump\t// in\n    tag_171:\n        /* \"#utility.yul\":4219:4294   */\n      swap1\n      pop\n        /* \"#utility.yul\":4317:4323   */\n      dup3\n        /* \"#utility.yul\":4310:4315   */\n      dup2\n        /* \"#utility.yul\":4303:4324   */\n      mstore\n        /* \"#utility.yul\":4355:4359   */\n      0x20\n        /* \"#utility.yul\":4348:4353   */\n      dup2\n        /* \"#utility.yul\":4344:4360   */\n      add\n        /* \"#utility.yul\":4393:4396   */\n      dup5\n        /* \"#utility.yul\":4384:4390   */\n      dup5\n        /* \"#utility.yul\":4379:4382   */\n      dup5\n        /* \"#utility.yul\":4375:4391   */\n      add\n        /* \"#utility.yul\":4372:4397   */\n      gt\n        /* \"#utility.yul\":4369:4481   */\n      iszero\n      tag_173\n      jumpi\n        /* \"#utility.yul\":4400:4479   */\n      tag_174\n      tag_91\n      jump\t// in\n    tag_174:\n        /* \"#utility.yul\":4369:4481   */\n    tag_173:\n        /* \"#utility.yul\":4490:4544   */\n      tag_175\n        /* \"#utility.yul\":4537:4543   */\n      dup5\n        /* \"#utility.yul\":4532:4535   */\n      dup3\n        /* \"#utility.yul\":4527:4530   */\n      dup6\n        /* \"#utility.yul\":4490:4544   */\n      tag_96\n      jump\t// in\n    tag_175:\n        /* \"#utility.yul\":4209:4550   */\n      pop\n        /* \"#utility.yul\":4125:4550   */\n      swap4\n      swap3\n      pop\n      pop\n      pop\n      jump\t// out\n        /* \"#utility.yul\":4570:4910   */\n    tag_98:\n        /* \"#utility.yul\":4626:4631   */\n      0x00\n        /* \"#utility.yul\":4675:4678   */\n      dup3\n        /* \"#utility.yul\":4668:4672   */\n      0x1f\n        /* \"#utility.yul\":4660:4666   */\n      dup4\n        /* \"#utility.yul\":4656:4673   */\n      add\n        /* \"#utility.yul\":4652:4679   */\n      slt\n        /* \"#utility.yul\":4642:4764   */\n      tag_177\n      jumpi\n        /* \"#utility.yul\":4683:4762   */\n      tag_178\n      tag_90\n      jump\t// in\n    tag_178:\n        /* \"#utility.yul\":4642:4764   */\n    tag_177:\n        /* \"#utility.yul\":4800:4806   */\n      dup2\n        /* \"#utility.yul\":4787:4807   */\n      calldataload\n        /* \"#utility.yul\":4825:4904   */\n      tag_179\n        /* \"#utility.yul\":4900:4903   */\n      dup5\n        /* \"#utility.yul\":4892:4898   */\n      dup3\n        /* \"#utility.yul\":4885:4889   */\n      0x20\n        /* \"#utility.yul\":4877:4883   */\n      dup7\n        /* \"#utility.yul\":4873:4890   */\n      add\n        /* \"#utility.yul\":4825:4904   */\n      tag_97\n      jump\t// in\n    tag_179:\n        /* \"#utility.yul\":4816:4904   */\n      swap2\n      pop\n        /* \"#utility.yul\":4632:4910   */\n      pop\n        /* \"#utility.yul\":4570:4910   */\n      swap3\n      swap2\n      pop\n      pop\n      jump\t// out\n        /* \"#utility.yul\":4916:5032   */\n    tag_99:\n        /* \"#utility.yul\":4986:5007   */\n      tag_181\n        /* \"#utility.yul\":5001:5006   */\n      dup2\n        /* \"#utility.yul\":4986:5007   */\n      tag_88\n      jump\t// in\n    tag_181:\n        /* \"#utility.yul\":4979:4984   */\n      dup2\n        /* \"#utility.yul\":4976:5008   */\n      eq\n        /* \"#utility.yul\":4966:5026   */\n      tag_182\n      jumpi\n        /* \"#utility.yul\":5022:5023   */\n      0x00\n        /* \"#utility.yul\":5019:5020   */\n      dup1\n        /* \"#utility.yul\":5012:5024   */\n      revert\n        /* \"#utility.yul\":4966:5026   */\n    tag_182:\n        /* \"#utility.yul\":4916:5032   */\n      pop\n      jump\t// out\n        /* \"#utility.yul\":5038:5171   */\n    tag_100:\n        /* \"#utility.yul\":5081:5086   */\n      0x00\n        /* \"#utility.yul\":5119:5125   */\n      dup2\n        /* \"#utility.yul\":5106:5126   */\n      calldataload\n        /* \"#utility.yul\":5097:5126   */\n      swap1\n      pop\n        /* \"#utility.yul\":5135:5165   */\n      tag_184\n        /* \"#utility.yul\":5159:5164   */\n      dup2\n        /* \"#utility.yul\":5135:5165   */\n      tag_99\n      jump\t// in\n    tag_184:\n        /* \"#utility.yul\":5038:5171   */\n      swap3\n      swap2\n      pop\n      pop\n      jump\t// out\n        /* \"#utility.yul\":5177:5970   */\n    tag_17:\n        /* \"#utility.yul\":5261:5267   */\n      0x00\n        /* \"#utility.yul\":5269:5275   */\n      dup1\n        /* \"#utility.yul\":5277:5283   */\n      0x00\n        /* \"#utility.yul\":5326:5328   */\n      0x60\n        /* \"#utility.yul\":5314:5323   */\n      dup5\n        /* \"#utility.yul\":5305:5312   */\n      dup7\n        /* \"#utility.yul\":5301:5324   */\n      sub\n        /* \"#utility.yul\":5297:5329   */\n      slt\n        /* \"#utility.yul\":5294:5413   */\n      iszero\n      tag_186\n      jumpi\n        /* \"#utility.yul\":5332:5411   */\n      tag_187\n      tag_77\n      jump\t// in\n    tag_187:\n        /* \"#utility.yul\":5294:5413   */\n    tag_186:\n        /* \"#utility.yul\":5480:5481   */\n      0x00\n        /* \"#utility.yul\":5469:5478   */\n      dup5\n        /* \"#utility.yul\":5465:5482   */\n      add\n        /* \"#utility.yul\":5452:5483   */\n      calldataload\n        /* \"#utility.yul\":5510:5528   */\n      0xffffffffffffffff\n        /* \"#utility.yul\":5502:5508   */\n      dup2\n        /* \"#utility.yul\":5499:5529   */\n      gt\n        /* \"#utility.yul\":5496:5613   */\n      iszero\n      tag_188\n      jumpi\n        /* \"#utility.yul\":5532:5611   */\n      tag_189\n      tag_78\n      jump\t// in\n    tag_189:\n        /* \"#utility.yul\":5496:5613   */\n    tag_188:\n        /* \"#utility.yul\":5637:5700   */\n      tag_190\n        /* \"#utility.yul\":5692:5699   */\n      dup7\n        /* \"#utility.yul\":5683:5689   */\n      dup3\n        /* \"#utility.yul\":5672:5681   */\n      dup8\n        /* \"#utility.yul\":5668:5690   */\n      add\n        /* \"#utility.yul\":5637:5700   */\n      tag_98\n      jump\t// in\n    tag_190:\n        /* \"#utility.yul\":5627:5700   */\n      swap4\n      pop\n        /* \"#utility.yul\":5423:5710   */\n      pop\n        /* \"#utility.yul\":5749:5751   */\n      0x20\n        /* \"#utility.yul\":5775:5828   */\n      tag_191\n        /* \"#utility.yul\":5820:5827   */\n      dup7\n        /* \"#utility.yul\":5811:5817   */\n      dup3\n        /* \"#utility.yul\":5800:5809   */\n      dup8\n        /* \"#utility.yul\":5796:5818   */\n      add\n        /* \"#utility.yul\":5775:5828   */\n      tag_81\n      jump\t// in\n    tag_191:\n        /* \"#utility.yul\":5765:5828   */\n      swap3\n      pop\n        /* \"#utility.yul\":5720:5838   */\n      pop\n        /* \"#utility.yul\":5877:5879   */\n      0x40\n        /* \"#utility.yul\":5903:5953   */\n      tag_192\n        /* \"#utility.yul\":5945:5952   */\n      dup7\n        /* \"#utility.yul\":5936:5942   */\n      dup3\n        /* \"#utility.yul\":5925:5934   */\n      dup8\n        /* \"#utility.yul\":5921:5943   */\n      add\n        /* \"#utility.yul\":5903:5953   */\n      tag_100\n      jump\t// in\n    tag_192:\n        /* \"#utility.yul\":5893:5953   */\n      swap2\n      pop\n        /* \"#utility.yul\":5848:5963   */\n      pop\n        /* \"#utility.yul\":5177:5970   */\n      swap3\n      pop\n      swap3\n      pop\n      swap3\n      jump\t// out\n        /* \"#utility.yul\":5976:6135   */\n    tag_101:\n        /* \"#utility.yul\":6050:6061   */\n      0x00\n        /* \"#utility.yul\":6084:6090   */\n      dup3\n        /* \"#utility.yul\":6079:6082   */\n      dup3\n        /* \"#utility.yul\":6072:6091   */\n      mstore\n        /* \"#utility.yul\":6124:6128   */\n      0x20\n        /* \"#utility.yul\":6119:6122   */\n      dup3\n        /* \"#utility.yul\":6115:6129   */\n      add\n        /* \"#utility.yul\":6100:6129   */\n      swap1\n      pop\n        /* \"#utility.yul\":5976:6135   */\n      swap3\n      swap2\n      pop\n      pop\n      jump\t// out\n        /* \"#utility.yul\":6141:6498   */\n    tag_102:\n        /* \"#utility.yul\":6219:6222   */\n      0x00\n        /* \"#utility.yul\":6247:6286   */\n      tag_195\n        /* \"#utility.yul\":6280:6285   */\n      dup3\n        /* \"#utility.yul\":6247:6286   */\n      tag_82\n      jump\t// in\n    tag_195:\n        /* \"#utility.yul\":6302:6363   */\n      tag_196\n        /* \"#utility.yul\":6356:6362   */\n      dup2\n        /* \"#utility.yul\":6351:6354   */\n      dup6\n        /* \"#utility.yul\":6302:6363   */\n      tag_101\n      jump\t// in\n    tag_196:\n        /* \"#utility.yul\":6295:6363   */\n      swap4\n      pop\n        /* \"#utility.yul\":6372:6437   */\n      tag_197\n        /* \"#utility.yul\":6430:6436   */\n      dup2\n        /* \"#utility.yul\":6425:6428   */\n      dup6\n        /* \"#utility.yul\":6418:6422   */\n      0x20\n        /* \"#utility.yul\":6411:6416   */\n      dup7\n        /* \"#utility.yul\":6407:6423   */\n      add\n        /* \"#utility.yul\":6372:6437   */\n      tag_84\n      jump\t// in\n    tag_197:\n        /* \"#utility.yul\":6462:6491   */\n      tag_198\n        /* \"#utility.yul\":6484:6490   */\n      dup2\n        /* \"#utility.yul\":6462:6491   */\n      tag_85\n      jump\t// in\n    tag_198:\n        /* \"#utility.yul\":6457:6460   */\n      dup5\n        /* \"#utility.yul\":6453:6492   */\n      add\n        /* \"#utility.yul\":6446:6492   */\n      swap2\n      pop\n        /* \"#utility.yul\":6223:6498   */\n      pop\n        /* \"#utility.yul\":6141:6498   */\n      swap3\n      swap2\n      pop\n      pop\n      jump\t// out\n        /* \"#utility.yul\":6504:6612   */\n    tag_103:\n        /* \"#utility.yul\":6581:6605   */\n      tag_200\n        /* \"#utility.yul\":6599:6604   */\n      dup2\n        /* \"#utility.yul\":6581:6605   */\n      tag_79\n      jump\t// in\n    tag_200:\n        /* \"#utility.yul\":6576:6579   */\n      dup3\n        /* \"#utility.yul\":6569:6606   */\n      mstore\n        /* \"#utility.yul\":6504:6612   */\n      pop\n      pop\n      jump\t// out\n        /* \"#utility.yul\":6618:6717   */\n    tag_104:\n        /* \"#utility.yul\":6689:6710   */\n      tag_202\n        /* \"#utility.yul\":6704:6709   */\n      dup2\n        /* \"#utility.yul\":6689:6710   */\n      tag_88\n      jump\t// in\n    tag_202:\n        /* \"#utility.yul\":6684:6687   */\n      dup3\n        /* \"#utility.yul\":6677:6711   */\n      mstore\n        /* \"#utility.yul\":6618:6717   */\n      pop\n      pop\n      jump\t// out\n        /* \"#utility.yul\":6793:7561   */\n    tag_105:\n        /* \"#utility.yul\":6906:6909   */\n      0x00\n        /* \"#utility.yul\":6942:6946   */\n      0x60\n        /* \"#utility.yul\":6937:6940   */\n      dup4\n        /* \"#utility.yul\":6933:6947   */\n      add\n        /* \"#utility.yul\":7029:7033   */\n      0x00\n        /* \"#utility.yul\":7022:7027   */\n      dup4\n        /* \"#utility.yul\":7018:7034   */\n      add\n        /* \"#utility.yul\":7012:7035   */\n      mload\n        /* \"#utility.yul\":7082:7085   */\n      dup5\n        /* \"#utility.yul\":7076:7080   */\n      dup3\n        /* \"#utility.yul\":7072:7086   */\n      sub\n        /* \"#utility.yul\":7065:7069   */\n      0x00\n        /* \"#utility.yul\":7060:7063   */\n      dup7\n        /* \"#utility.yul\":7056:7070   */\n      add\n        /* \"#utility.yul\":7049:7087   */\n      mstore\n        /* \"#utility.yul\":7108:7181   */\n      tag_204\n        /* \"#utility.yul\":7176:7180   */\n      dup3\n        /* \"#utility.yul\":7162:7174   */\n      dup3\n        /* \"#utility.yul\":7108:7181   */\n      tag_102\n      jump\t// in\n    tag_204:\n        /* \"#utility.yul\":7100:7181   */\n      swap2\n      pop\n        /* \"#utility.yul\":6957:7192   */\n      pop\n        /* \"#utility.yul\":7274:7278   */\n      0x20\n        /* \"#utility.yul\":7267:7272   */\n      dup4\n        /* \"#utility.yul\":7263:7279   */\n      add\n        /* \"#utility.yul\":7257:7280   */\n      mload\n        /* \"#utility.yul\":7293:7356   */\n      tag_205\n        /* \"#utility.yul\":7350:7354   */\n      0x20\n        /* \"#utility.yul\":7345:7348   */\n      dup7\n        /* \"#utility.yul\":7341:7355   */\n      add\n        /* \"#utility.yul\":7327:7339   */\n      dup3\n        /* \"#utility.yul\":7293:7356   */\n      tag_103\n      jump\t// in\n    tag_205:\n        /* \"#utility.yul\":7202:7366   */\n      pop\n        /* \"#utility.yul\":7448:7452   */\n      0x40\n        /* \"#utility.yul\":7441:7446   */\n      dup4\n        /* \"#utility.yul\":7437:7453   */\n      add\n        /* \"#utility.yul\":7431:7454   */\n      mload\n        /* \"#utility.yul\":7467:7524   */\n      tag_206\n        /* \"#utility.yul\":7518:7522   */\n      0x40\n        /* \"#utility.yul\":7513:7516   */\n      dup7\n        /* \"#utility.yul\":7509:7523   */\n      add\n        /* \"#utility.yul\":7495:7507   */\n      dup3\n        /* \"#utility.yul\":7467:7524   */\n      tag_104\n      jump\t// in\n    tag_206:\n        /* \"#utility.yul\":7376:7534   */\n      pop\n        /* \"#utility.yul\":7551:7555   */\n      dup1\n        /* \"#utility.yul\":7544:7555   */\n      swap2\n      pop\n        /* \"#utility.yul\":6911:7561   */\n      pop\n        /* \"#utility.yul\":6793:7561   */\n      swap3\n      swap2\n      pop\n      pop\n      jump\t// out\n        /* \"#utility.yul\":7567:7928   */\n    tag_20:\n        /* \"#utility.yul\":7704:7708   */\n      0x00\n        /* \"#utility.yul\":7742:7744   */\n      0x20\n        /* \"#utility.yul\":7731:7740   */\n      dup3\n        /* \"#utility.yul\":7727:7745   */\n      add\n        /* \"#utility.yul\":7719:7745   */\n      swap1\n      pop\n        /* \"#utility.yul\":7791:7800   */\n      dup2\n        /* \"#utility.yul\":7785:7789   */\n      dup2\n        /* \"#utility.yul\":7781:7801   */\n      sub\n        /* \"#utility.yul\":7777:7778   */\n      0x00\n        /* \"#utility.yul\":7766:7775   */\n      dup4\n        /* \"#utility.yul\":7762:7779   */\n      add\n        /* \"#utility.yul\":7755:7802   */\n      mstore\n        /* \"#utility.yul\":7819:7921   */\n      tag_208\n        /* \"#utility.yul\":7916:7920   */\n      dup2\n        /* \"#utility.yul\":7907:7913   */\n      dup5\n        /* \"#utility.yul\":7819:7921   */\n      tag_105\n      jump\t// in\n    tag_208:\n        /* \"#utility.yul\":7811:7921   */\n      swap1\n      pop\n        /* \"#utility.yul\":7567:7928   */\n      swap3\n      swap2\n      pop\n      pop\n      jump\t// out\n        /* \"#utility.yul\":7934:8156   */\n    tag_34:\n        /* \"#utility.yul\":8027:8031   */\n      0x00\n        /* \"#utility.yul\":8065:8067   */\n      0x20\n        /* \"#utility.yul\":8054:8063   */\n      dup3\n        /* \"#utility.yul\":8050:8068   */\n      add\n        /* \"#utility.yul\":8042:8068   */\n      swap1\n      pop\n        /* \"#utility.yul\":8078:8149   */\n      tag_210\n        /* \"#utility.yul\":8146:8147   */\n      0x00\n        /* \"#utility.yul\":8135:8144   */\n      dup4\n        /* \"#utility.yul\":8131:8148   */\n      add\n        /* \"#utility.yul\":8122:8128   */\n      dup5\n        /* \"#utility.yul\":8078:8149   */\n      tag_87\n      jump\t// in\n    tag_210:\n        /* \"#utility.yul\":7934:8156   */\n      swap3\n      swap2\n      pop\n      pop\n      jump\t// out\n        /* \"#utility.yul\":8162:8342   */\n    tag_106:\n        /* \"#utility.yul\":8210:8287   */\n      0x4e487b7100000000000000000000000000000000000000000000000000000000\n        /* \"#utility.yul\":8207:8208   */\n      0x00\n        /* \"#utility.yul\":8200:8288   */\n      mstore\n        /* \"#utility.yul\":8307:8311   */\n      0x22\n        /* \"#utility.yul\":8304:8305   */\n      0x04\n        /* \"#utility.yul\":8297:8312   */\n      mstore\n        /* \"#utility.yul\":8331:8335   */\n      0x24\n        /* \"#utility.yul\":8328:8329   */\n      0x00\n        /* \"#utility.yul\":8321:8336   */\n      revert\n        /* \"#utility.yul\":8348:8668   */\n    tag_36:\n        /* \"#utility.yul\":8392:8398   */\n      0x00\n        /* \"#utility.yul\":8429:8430   */\n      0x02\n        /* \"#utility.yul\":8423:8427   */\n      dup3\n        /* \"#utility.yul\":8419:8431   */\n      div\n        /* \"#utility.yul\":8409:8431   */\n      swap1\n      pop\n        /* \"#utility.yul\":8476:8477   */\n      0x01\n        /* \"#utility.yul\":8470:8474   */\n      dup3\n        /* \"#utility.yul\":8466:8478   */\n      and\n        /* \"#utility.yul\":8497:8515   */\n      dup1\n        /* \"#utility.yul\":8487:8568   */\n      tag_213\n      jumpi\n        /* \"#utility.yul\":8553:8557   */\n      0x7f\n        /* \"#utility.yul\":8545:8551   */\n      dup3\n        /* \"#utility.yul\":8541:8558   */\n      and\n        /* \"#utility.yul\":8531:8558   */\n      swap2\n      pop\n        /* \"#utility.yul\":8487:8568   */\n    tag_213:\n        /* \"#utility.yul\":8615:8617   */\n      0x20\n        /* \"#utility.yul\":8607:8613   */\n      dup3\n        /* \"#utility.yul\":8604:8618   */\n      lt\n        /* \"#utility.yul\":8584:8602   */\n      dup2\n        /* \"#utility.yul\":8581:8619   */\n      sub\n        /* \"#utility.yul\":8578:8662   */\n      tag_214\n      jumpi\n        /* \"#utility.yul\":8634:8652   */\n      tag_215\n      tag_106\n      jump\t// in\n    tag_215:\n        /* \"#utility.yul\":8578:8662   */\n    tag_214:\n        /* \"#utility.yul\":8399:8668   */\n      pop\n        /* \"#utility.yul\":8348:8668   */\n      swap2\n      swap1\n      pop\n      jump\t// out\n        /* \"#utility.yul\":8674:8815   */\n    tag_107:\n        /* \"#utility.yul\":8723:8727   */\n      0x00\n        /* \"#utility.yul\":8746:8749   */\n      dup2\n        /* \"#utility.yul\":8738:8749   */\n      swap1\n      pop\n        /* \"#utility.yul\":8769:8772   */\n      dup2\n        /* \"#utility.yul\":8766:8767   */\n      0x00\n        /* \"#utility.yul\":8759:8773   */\n      mstore\n        /* \"#utility.yul\":8803:8807   */\n      0x20\n        /* \"#utility.yul\":8800:8801   */\n      0x00\n        /* \"#utility.yul\":8790:8808   */\n      keccak256\n        /* \"#utility.yul\":8782:8808   */\n      swap1\n      pop\n        /* \"#utility.yul\":8674:8815   */\n      swap2\n      swap1\n      pop\n      jump\t// out\n        /* \"#utility.yul\":8821:8914   */\n    tag_108:\n        /* \"#utility.yul\":8858:8864   */\n      0x00\n        /* \"#utility.yul\":8905:8907   */\n      0x20\n        /* \"#utility.yul\":8900:8902   */\n      0x1f\n        /* \"#utility.yul\":8893:8898   */\n      dup4\n        /* \"#utility.yul\":8889:8903   */\n      add\n        /* \"#utility.yul\":8885:8908   */\n      div\n        /* \"#utility.yul\":8875:8908   */\n      swap1\n      pop\n        /* \"#utility.yul\":8821:8914   */\n      swap2\n      swap1\n      pop\n      jump\t// out\n        /* \"#utility.yul\":8920:9027   */\n    tag_109:\n        /* \"#utility.yul\":8964:8972   */\n      0x00\n        /* \"#utility.yul\":9014:9019   */\n      dup3\n        /* \"#utility.yul\":9008:9012   */\n      dup3\n        /* \"#utility.yul\":9004:9020   */\n      shl\n        /* \"#utility.yul\":8983:9020   */\n      swap1\n      pop\n        /* \"#utility.yul\":8920:9027   */\n      swap3\n      swap2\n      pop\n      pop\n      jump\t// out\n        /* \"#utility.yul\":9033:9426   */\n    tag_110:\n        /* \"#utility.yul\":9102:9108   */\n      0x00\n        /* \"#utility.yul\":9152:9153   */\n      0x08\n        /* \"#utility.yul\":9140:9150   */\n      dup4\n        /* \"#utility.yul\":9136:9154   */\n      mul\n        /* \"#utility.yul\":9175:9272   */\n      tag_220\n        /* \"#utility.yul\":9205:9271   */\n      0xffffffffffffffffffffffffffffffffffffffffffffffffffffffffffffffff\n        /* \"#utility.yul\":9194:9203   */\n      dup3\n        /* \"#utility.yul\":9175:9272   */\n      tag_109\n      jump\t// in\n    tag_220:\n        /* \"#utility.yul\":9293:9332   */\n      tag_221\n        /* \"#utility.yul\":9323:9331   */\n      dup7\n        /* \"#utility.yul\":9312:9321   */\n      dup4\n        /* \"#utility.yul\":9293:9332   */\n      tag_109\n      jump\t// in\n    tag_221:\n        /* \"#utility.yul\":9281:9332   */\n      swap6\n      pop\n        /* \"#utility.yul\":9365:9369   */\n      dup1\n        /* \"#utility.yul\":9361:9370   */\n      not\n        /* \"#utility.yul\":9354:9359   */\n      dup5\n        /* \"#utility.yul\":9350:9371   */\n      and\n        /* \"#utility.yul\":9341:9371   */\n      swap4\n      pop\n        /* \"#utility.yul\":9414:9418   */\n      dup1\n        /* \"#utility.yul\":9404:9412   */\n      dup7\n        /* \"#utility.yul\":9400:9419   */\n      and\n        /* \"#utility.yul\":9393:9398   */\n      dup5\n        /* \"#utility.yul\":9390:9420   */\n      or\n        /* \"#utility.yul\":9380:9420   */\n      swap3\n      pop\n        /* \"#utility.yul\":9109:9426   */\n      pop\n      pop\n        /* \"#utility.yul\":9033:9426   */\n      swap4\n      swap3\n      pop\n      pop\n      pop\n      jump\t// out\n        /* \"#utility.yul\":9432:9492   */\n    tag_111:\n        /* \"#utility.yul\":9460:9463   */\n      0x00\n        /* \"#utility.yul\":9481:9486   */\n      dup2\n        /* \"#utility.yul\":9474:9486   */\n      swap1\n      pop\n        /* \"#utility.yul\":9432:9492   */\n      swap2\n      swap1\n      pop\n      jump\t// out\n        /* \"#utility.yul\":9498:9640   */\n    tag_112:\n        /* \"#utility.yul\":9548:9557   */\n      0x00\n        /* \"#utility.yul\":9581:9634   */\n      tag_224\n        /* \"#utility.yul\":9599:9633   */\n      tag_225\n        /* \"#utility.yul\":9608:9632   */\n      tag_226\n        /* \"#utility.yul\":9626:9631   */\n      dup5\n        /* \"#utility.yul\":9608:9632   */\n      tag_79\n      jump\t// in\n    tag_226:\n        /* \"#utility.yul\":9599:9633   */\n      tag_111\n      jump\t// in\n    tag_225:\n        /* \"#utility.yul\":9581:9634   */\n      tag_79\n      jump\t// in\n    tag_224:\n        /* \"#utility.yul\":9568:9634   */\n      swap1\n      pop\n        /* \"#utility.yul\":9498:9640   */\n      swap2\n      swap1\n      pop\n      jump\t// out\n        /* \"#utility.yul\":9646:9721   */\n    tag_113:\n        /* \"#utility.yul\":9689:9692   */\n      0x00\n        /* \"#utility.yul\":9710:9715   */\n      dup2\n        /* \"#utility.yul\":9703:9715   */\n      swap1\n      pop\n        /* \"#utility.yul\":9646:9721   */\n      swap2\n      swap1\n      pop\n      jump\t// out\n        /* \"#utility.yul\":9727:9996   */\n    tag_114:\n        /* \"#utility.yul\":9837:9876   */\n      tag_229\n        /* \"#utility.yul\":9868:9875   */\n      dup4\n        /* \"#utility.yul\":9837:9876   */\n      tag_112\n      jump\t// in\n    tag_229:\n        /* \"#utility.yul\":9898:9989   */\n      tag_230\n        /* \"#utility.yul\":9947:9988   */\n      tag_231\n        /* \"#utility.yul\":9971:9987   */\n      dup3\n        /* \"#utility.yul\":9947:9988   */\n      tag_113\n      jump\t// in\n    tag_231:\n        /* \"#utility.yul\":9939:9945   */\n      dup5\n        /* \"#utility.yul\":9932:9936   */\n      dup5\n        /* \"#utility.yul\":9926:9937   */\n      sload\n        /* \"#utility.yul\":9898:9989   */\n      tag_110\n      jump\t// in\n    tag_230:\n        /* \"#utility.yul\":9892:9896   */\n      dup3\n        /* \"#utility.yul\":9885:9990   */\n      sstore\n        /* \"#utility.yul\":9803:9996   */\n      pop\n        /* \"#utility.yul\":9727:9996   */\n      pop\n      pop\n      pop\n      jump\t// out\n        /* \"#utility.yul\":10002:10075   */\n    tag_115:\n        /* \"#utility.yul\":10047:10050   */\n      0x00\n        /* \"#utility.yul\":10002:10075   */\n      swap1\n      jump\t// out\n        /* \"#utility.yul\":10081:10270   */\n    tag_116:\n        /* \"#utility.yul\":10158:10190   */\n      tag_234\n      tag_115\n      jump\t// in\n    tag_234:\n        /* \"#utility.yul\":10199:10264   */\n      tag_235\n        /* \"#utility.yul\":10257:10263   */\n      dup2\n        /* \"#utility.yul\":10249:10255   */\n      dup5\n        /* \"#utility.yul\":10243:10247   */\n      dup5\n        /* \"#utility.yul\":10199:10264   */\n      tag_114\n      jump\t// in\n    tag_235:\n        /* \"#utility.yul\":10134:10270   */\n      pop\n        /* \"#utility.yul\":10081:10270   */\n      pop\n      pop\n      jump\t// out\n        /* \"#utility.yul\":10276:10462   */\n    tag_117:\n        /* \"#utility.yul\":10336:10456   */\n    tag_237:\n        /* \"#utility.yul\":10353:10356   */\n      dup2\n        /* \"#utility.yul\":10346:10351   */\n      dup2\n        /* \"#utility.yul\":10343:10357   */\n      lt\n        /* \"#utility.yul\":10336:10456   */\n      iszero\n      tag_239\n      jumpi\n        /* \"#utility.yul\":10407:10446   */\n      tag_240\n        /* \"#utility.yul\":10444:10445   */\n      0x00\n        /* \"#utility.yul\":10437:10442   */\n      dup3\n        /* \"#utility.yul\":10407:10446   */\n      tag_116\n      jump\t// in\n    tag_240:\n        /* \"#utility.yul\":10380:10381   */\n      0x01\n        /* \"#utility.yul\":10373:10378   */\n      dup2\n        /* \"#utility.yul\":10369:10382   */\n      add\n        /* \"#utility.yul\":10360:10382   */\n      swap1\n      pop\n        /* \"#utility.yul\":10336:10456   */\n      jump(tag_237)\n    tag_239:\n        /* \"#utility.yul\":10276:10462   */\n      pop\n      pop\n      jump\t// out\n        /* \"#utility.yul\":10468:11011   */\n    tag_118:\n        /* \"#utility.yul\":10569:10571   */\n      0x1f\n        /* \"#utility.yul\":10564:10567   */\n      dup3\n        /* \"#utility.yul\":10561:10572   */\n      gt\n        /* \"#utility.yul\":10558:11004   */\n      iszero\n      tag_242\n      jumpi\n        /* \"#utility.yul\":10603:10641   */\n      tag_243\n        /* \"#utility.yul\":10635:10640   */\n      dup2\n        /* \"#utility.yul\":10603:10641   */\n      tag_107\n      jump\t// in\n    tag_243:\n        /* \"#utility.yul\":10687:10716   */\n      tag_244\n        /* \"#utility.yul\":10705:10715   */\n      dup5\n        /* \"#utility.yul\":10687:10716   */\n      tag_108\n      jump\t// in\n    tag_244:\n        /* \"#utility.yul\":10677:10685   */\n      dup2\n        /* \"#utility.yul\":10673:10717   */\n      add\n        /* \"#utility.yul\":10870:10872   */\n      0x20\n        /* \"#utility.yul\":10858:10868   */\n      dup6\n        /* \"#utility.yul\":10855:10873   */\n      lt\n        /* \"#utility.yul\":10852:10901   */\n      iszero\n      tag_245\n      jumpi\n        /* \"#utility.yul\":10891:10899   */\n      dup2\n        /* \"#utility.yul\":10876:10899   */\n      swap1\n      pop\n        /* \"#utility.yul\":10852:10901   */\n    tag_245:\n        /* \"#utility.yul\":10914:10994   */\n      tag_246\n        /* \"#utility.yul\":10970:10992   */\n      tag_247\n        /* \"#utility.yul\":10988:10991   */\n      dup6\n        /* \"#utility.yul\":10970:10992   */\n      tag_108\n      jump\t// in\n    tag_247:\n        /* \"#utility.yul\":10960:10968   */\n      dup4\n        /* \"#utility.yul\":10956:10993   */\n      add\n        /* \"#utility.yul\":10943:10954   */\n      dup3\n        /* \"#utility.yul\":10914:10994   */\n      tag_117\n      jump\t// in\n    tag_246:\n        /* \"#utility.yul\":10573:11004   */\n      pop\n      pop\n        /* \"#utility.yul\":10558:11004   */\n    tag_242:\n        /* \"#utility.yul\":10468:11011   */\n      pop\n      pop\n      pop\n      jump\t// out\n        /* \"#utility.yul\":11017:11134   */\n    tag_119:\n        /* \"#utility.yul\":11071:11079   */\n      0x00\n        /* \"#utility.yul\":11121:11126   */\n      dup3\n        /* \"#utility.yul\":11115:11119   */\n      dup3\n        /* \"#utility.yul\":11111:11127   */\n      shr\n        /* \"#utility.yul\":11090:11127   */\n      swap1\n      pop\n        /* \"#utility.yul\":11017:11134   */\n      swap3\n      swap2\n      pop\n      pop\n      jump\t// out\n        /* \"#utility.yul\":11140:11309   */\n    tag_120:\n        /* \"#utility.yul\":11184:11190   */\n      0x00\n        /* \"#utility.yul\":11217:11268   */\n      tag_250\n        /* \"#utility.yul\":11265:11266   */\n      0x00\n        /* \"#utility.yul\":11261:11267   */\n      not\n        /* \"#utility.yul\":11253:11258   */\n      dup5\n        /* \"#utility.yul\":11250:11251   */\n      0x08\n        /* \"#utility.yul\":11246:11259   */\n      mul\n        /* \"#utility.yul\":11217:11268   */\n      tag_119\n      jump\t// in\n    tag_250:\n        /* \"#utility.yul\":11213:11269   */\n      not\n        /* \"#utility.yul\":11298:11302   */\n      dup1\n        /* \"#utility.yul\":11292:11296   */\n      dup4\n        /* \"#utility.yul\":11288:11303   */\n      and\n        /* \"#utility.yul\":11278:11303   */\n      swap2\n      pop\n        /* \"#utility.yul\":11191:11309   */\n      pop\n        /* \"#utility.yul\":11140:11309   */\n      swap3\n      swap2\n      pop\n      pop\n      jump\t// out\n        /* \"#utility.yul\":11314:11609   */\n    tag_121:\n        /* \"#utility.yul\":11390:11394   */\n      0x00\n        /* \"#utility.yul\":11536:11565   */\n      tag_252\n        /* \"#utility.yul\":11561:11564   */\n      dup4\n        /* \"#utility.yul\":11555:11559   */\n      dup4\n        /* \"#utility.yul\":11536:11565   */\n      tag_120\n      jump\t// in\n    tag_252:\n        /* \"#utility.yul\":11528:11565   */\n      swap2\n      pop\n        /* \"#utility.yul\":11598:11601   */\n      dup3\n        /* \"#utility.yul\":11595:11596   */\n      0x02\n        /* \"#utility.yul\":11591:11602   */\n      mul\n        /* \"#utility.yul\":11585:11589   */\n      dup3\n        /* \"#utility.yul\":11582:11603   */\n      or\n        /* \"#utility.yul\":11574:11603   */\n      swap1\n      pop\n        /* \"#utility.yul\":11314:11609   */\n      swap3\n      swap2\n      pop\n      pop\n      jump\t// out\n        /* \"#utility.yul\":11614:13009   */\n    tag_45:\n        /* \"#utility.yul\":11731:11768   */\n      tag_254\n        /* \"#utility.yul\":11764:11767   */\n      dup3\n        /* \"#utility.yul\":11731:11768   */\n      tag_82\n      jump\t// in\n    tag_254:\n        /* \"#utility.yul\":11833:11851   */\n      0xffffffffffffffff\n        /* \"#utility.yul\":11825:11831   */\n      dup2\n        /* \"#utility.yul\":11822:11852   */\n      gt\n        /* \"#utility.yul\":11819:11875   */\n      iszero\n      tag_255\n      jumpi\n        /* \"#utility.yul\":11855:11873   */\n      tag_256\n      tag_92\n      jump\t// in\n    tag_256:\n        /* \"#utility.yul\":11819:11875   */\n    tag_255:\n        /* \"#utility.yul\":11899:11937   */\n      tag_257\n        /* \"#utility.yul\":11931:11935   */\n      dup3\n        /* \"#utility.yul\":11925:11936   */\n      sload\n        /* \"#utility.yul\":11899:11937   */\n      tag_36\n      jump\t// in\n    tag_257:\n        /* \"#utility.yul\":11984:12051   */\n      tag_258\n        /* \"#utility.yul\":12044:12050   */\n      dup3\n        /* \"#utility.yul\":12036:12042   */\n      dup3\n        /* \"#utility.yul\":12030:12034   */\n      dup6\n        /* \"#utility.yul\":11984:12051   */\n      tag_118\n      jump\t// in\n    tag_258:\n        /* \"#utility.yul\":12078:12079   */\n      0x00\n        /* \"#utility.yul\":12102:12106   */\n      0x20\n        /* \"#utility.yul\":12089:12106   */\n      swap1\n      pop\n        /* \"#utility.yul\":12134:12136   */\n      0x1f\n        /* \"#utility.yul\":12126:12132   */\n      dup4\n        /* \"#utility.yul\":12123:12137   */\n      gt\n        /* \"#utility.yul\":12151:12152   */\n      0x01\n        /* \"#utility.yul\":12146:12764   */\n      dup2\n      eq\n      tag_260\n      jumpi\n        /* \"#utility.yul\":12808:12809   */\n      0x00\n        /* \"#utility.yul\":12825:12831   */\n      dup5\n        /* \"#utility.yul\":12822:12899   */\n      iszero\n      tag_261\n      jumpi\n        /* \"#utility.yul\":12874:12883   */\n      dup3\n        /* \"#utility.yul\":12869:12872   */\n      dup8\n        /* \"#utility.yul\":12865:12884   */\n      add\n        /* \"#utility.yul\":12859:12885   */\n      mload\n        /* \"#utility.yul\":12850:12885   */\n      swap1\n      pop\n        /* \"#utility.yul\":12822:12899   */\n    tag_261:\n        /* \"#utility.yul\":12925:12992   */\n      tag_262\n        /* \"#utility.yul\":12985:12991   */\n      dup6\n        /* \"#utility.yul\":12978:12983   */\n      dup3\n        /* \"#utility.yul\":12925:12992   */\n      tag_121\n      jump\t// in\n    tag_262:\n        /* \"#utility.yul\":12919:12923   */\n      dup7\n        /* \"#utility.yul\":12912:12993   */\n      sstore\n        /* \"#utility.yul\":12781:13003   */\n      pop\n        /* \"#utility.yul\":12116:13003   */\n      jump(tag_259)\n        /* \"#utility.yul\":12146:12764   */\n    tag_260:\n        /* \"#utility.yul\":12198:12202   */\n      0x1f\n        /* \"#utility.yul\":12194:12203   */\n      not\n        /* \"#utility.yul\":12186:12192   */\n      dup5\n        /* \"#utility.yul\":12182:12204   */\n      and\n        /* \"#utility.yul\":12232:12269   */\n      tag_263\n        /* \"#utility.yul\":12264:12268   */\n      dup7\n        /* \"#utility.yul\":12232:12269   */\n      tag_107\n      jump\t// in\n    tag_263:\n        /* \"#utility.yul\":12291:12292   */\n      0x00\n        /* \"#utility.yul\":12305:12513   */\n    tag_264:\n        /* \"#utility.yul\":12319:12326   */\n      dup3\n        /* \"#utility.yul\":12316:12317   */\n      dup2\n        /* \"#utility.yul\":12313:12327   */\n      lt\n        /* \"#utility.yul\":12305:12513   */\n      iszero\n      tag_266\n      jumpi\n        /* \"#utility.yul\":12398:12407   */\n      dup5\n        /* \"#utility.yul\":12393:12396   */\n      dup10\n        /* \"#utility.yul\":12389:12408   */\n      add\n        /* \"#utility.yul\":12383:12409   */\n      mload\n        /* \"#utility.yul\":12375:12381   */\n      dup3\n        /* \"#utility.yul\":12368:12410   */\n      sstore\n        /* \"#utility.yul\":12449:12450   */\n      0x01\n        /* \"#utility.yul\":12441:12447   */\n      dup3\n        /* \"#utility.yul\":12437:12451   */\n      add\n        /* \"#utility.yul\":12427:12451   */\n      swap2\n      pop\n        /* \"#utility.yul\":12496:12498   */\n      0x20\n        /* \"#utility.yul\":12485:12494   */\n      dup6\n        /* \"#utility.yul\":12481:12499   */\n      add\n        /* \"#utility.yul\":12468:12499   */\n      swap5\n      pop\n        /* \"#utility.yul\":12342:12346   */\n      0x20\n        /* \"#utility.yul\":12339:12340   */\n      dup2\n        /* \"#utility.yul\":12335:12347   */\n      add\n        /* \"#utility.yul\":12330:12347   */\n      swap1\n      pop\n        /* \"#utility.yul\":12305:12513   */\n      jump(tag_264)\n    tag_266:\n        /* \"#utility.yul\":12541:12547   */\n      dup7\n        /* \"#utility.yul\":12532:12539   */\n      dup4\n        /* \"#utility.yul\":12529:12548   */\n      lt\n        /* \"#utility.yul\":12526:12705   */\n      iszero\n      tag_267\n      jumpi\n        /* \"#utility.yul\":12599:12608   */\n      dup5\n        /* \"#utility.yul\":12594:12597   */\n      dup10\n        /* \"#utility.yul\":12590:12609   */\n      add\n        /* \"#utility.yul\":12584:12610   */\n      mload\n        /* \"#utility.yul\":12642:12690   */\n      tag_268\n        /* \"#utility.yul\":12684:12688   */\n      0x1f\n        /* \"#utility.yul\":12676:12682   */\n      dup10\n        /* \"#utility.yul\":12672:12689   */\n      and\n        /* \"#utility.yul\":12661:12670   */\n      dup3\n        /* \"#utility.yul\":12642:12690   */\n      tag_120\n      jump\t// in\n    tag_268:\n        /* \"#utility.yul\":12634:12640   */\n      dup4\n        /* \"#utility.yul\":12627:12691   */\n      sstore\n        /* \"#utility.yul\":12549:12705   */\n      pop\n        /* \"#utility.yul\":12526:12705   */\n    tag_267:\n        /* \"#utility.yul\":12751:12752   */\n      0x01\n        /* \"#utility.yul\":12747:12748   */\n      0x02\n        /* \"#utility.yul\":12739:12745   */\n      dup9\n        /* \"#utility.yul\":12735:12749   */\n      mul\n        /* \"#utility.yul\":12731:12753   */\n      add\n        /* \"#utility.yul\":12725:12729   */\n      dup9\n        /* \"#utility.yul\":12718:12754   */\n      sstore\n        /* \"#utility.yul\":12153:12764   */\n      pop\n      pop\n      pop\n        /* \"#utility.yul\":12116:13003   */\n    tag_259:\n      pop\n        /* \"#utility.yul\":11706:13009   */\n      pop\n      pop\n      pop\n        /* \"#utility.yul\":11614:13009   */\n      pop\n      pop\n      jump\t// out\n        /* \"#utility.yul\":13015:13195   */\n    tag_122:\n        /* \"#utility.yul\":13063:13140   */\n      0x4e487b7100000000000000000000000000000000000000000000000000000000\n        /* \"#utility.yul\":13060:13061   */\n      0x00\n        /* \"#utility.yul\":13053:13141   */\n      mstore\n        /* \"#utility.yul\":13160:13164   */\n      0x11\n        /* \"#utility.yul\":13157:13158   */\n      0x04\n        /* \"#utility.yul\":13150:13165   */\n      mstore\n        /* \"#utility.yul\":13184:13188   */\n      0x24\n        /* \"#utility.yul\":13181:13182   */\n      0x00\n        /* \"#utility.yul\":13174:13189   */\n      revert\n        /* \"#utility.yul\":13201:13434   */\n    tag_47:\n        /* \"#utility.yul\":13240:13243   */\n      0x00\n        /* \"#utility.yul\":13263:13287   */\n      tag_271\n        /* \"#utility.yul\":13281:13286   */\n      dup3\n        /* \"#utility.yul\":13263:13287   */\n      tag_79\n      jump\t// in\n    tag_271:\n        /* \"#utility.yul\":13254:13287   */\n      swap2\n      pop\n        /* \"#utility.yul\":13309:13375   */\n      0xffffffffffffffffffffffffffffffffffffffffffffffffffffffffffffffff\n        /* \"#utility.yul\":13302:13307   */\n      dup3\n        /* \"#utility.yul\":13299:13376   */\n      sub\n        /* \"#utility.yul\":13296:13399   */\n      tag_272\n      jumpi\n        /* \"#utility.yul\":13379:13397   */\n      tag_273\n      tag_122\n      jump\t// in\n    tag_273:\n        /* \"#utility.yul\":13296:13399   */\n    tag_272:\n        /* \"#utility.yul\":13426:13427   */\n      0x01\n        /* \"#utility.yul\":13419:13424   */\n      dup3\n        /* \"#utility.yul\":13415:13428   */\n      add\n        /* \"#utility.yul\":13408:13428   */\n      swap1\n      pop\n        /* \"#utility.yul\":13201:13434   */\n      swap2\n      swap1\n      pop\n      jump\t// out\n        /* \"#utility.yul\":13440:13634   */\n    tag_49:\n        /* \"#utility.yul\":13480:13484   */\n      0x00\n        /* \"#utility.yul\":13500:13520   */\n      tag_275\n        /* \"#utility.yul\":13518:13519   */\n      dup3\n        /* \"#utility.yul\":13500:13520   */\n      tag_79\n      jump\t// in\n    tag_275:\n        /* \"#utility.yul\":13495:13520   */\n      swap2\n      pop\n        /* \"#utility.yul\":13534:13554   */\n      tag_276\n        /* \"#utility.yul\":13552:13553   */\n      dup4\n        /* \"#utility.yul\":13534:13554   */\n      tag_79\n      jump\t// in\n    tag_276:\n        /* \"#utility.yul\":13529:13554   */\n      swap3\n      pop\n        /* \"#utility.yul\":13578:13579   */\n      dup3\n        /* \"#utility.yul\":13575:13576   */\n      dup3\n        /* \"#utility.yul\":13571:13580   */\n      sub\n        /* \"#utility.yul\":13563:13580   */\n      swap1\n      pop\n        /* \"#utility.yul\":13602:13603   */\n      dup2\n        /* \"#utility.yul\":13596:13600   */\n      dup2\n        /* \"#utility.yul\":13593:13604   */\n      gt\n        /* \"#utility.yul\":13590:13627   */\n      iszero\n      tag_277\n      jumpi\n        /* \"#utility.yul\":13607:13625   */\n      tag_278\n      tag_122\n      jump\t// in\n    tag_278:\n        /* \"#utility.yul\":13590:13627   */\n    tag_277:\n        /* \"#utility.yul\":13440:13634   */\n      swap3\n      swap2\n      pop\n      pop\n      jump\t// out\n\n    auxdata: 0xa26469706673582212208e04a9dbf955c7a36a06aa792c3bb9388bad445a28f900385dd52233c363ac5c64736f6c634300081a0033\n}\n",
				"bytecode": {
					"linkReferences": {},
					"object": "6080604052348015600e575f80fd5b50610e238061001c5f395ff3fe608060405234801561000f575f80fd5b5060043610610060575f3560e01c806306ead22e146100645780632d7464ee146100965780633087afc4146100c6578063699450e8146100e4578063c30655a214610104578063e581f9ee14610134575b5f80fd5b61007e600480360381019061007991906106cf565b610152565b60405161008d93929190610793565b60405180910390f35b6100b060048036038101906100ab9190610925565b61020a565b6040516100bd9190610a44565b60405180910390f35b6100ce61037f565b6040516100db9190610a44565b60405180910390f35b6100ec6104b7565b6040516100fb93929190610793565b60405180910390f35b61011e60048036038101906101199190610925565b61055f565b60405161012b9190610a44565b60405180910390f35b61013c610664565b6040516101499190610a64565b60405180910390f35b6003602052805f5260405f205f91509050805f01805461017190610aaa565b80601f016020809104026020016040519081016040528092919081815260200182805461019d90610aaa565b80156101e85780601f106101bf576101008083540402835291602001916101e8565b820191905f5260205f20905b8154815290600101906020018083116101cb57829003601f168201915b505050505090806001015490806002015f9054906101000a900460ff16905083565b61021261066a565b604051806060016040528085815260200184815260200183151581525060035f60045481526020019081526020015f205f820151815f0190816102559190610c77565b50602082015181600101556040820151816002015f6101000a81548160ff02191690831515021790555090505060045f81548092919061029490610d73565b919050555060035f60016004546102ab9190610dba565b81526020019081526020015f206040518060600160405290815f820180546102d290610aaa565b80601f01602080910402602001604051908101604052809291908181526020018280546102fe90610aaa565b80156103495780601f1061032057610100808354040283529160200191610349565b820191905f5260205f20905b81548152906001019060200180831161032c57829003601f168201915b5050505050815260200160018201548152602001600282015f9054906101000a900460ff16151515158152505090509392505050565b61038761066a565b6040518060400160405280600a81526020017f4d65656d616e73686f6f000000000000000000000000000000000000000000008152505f800190816103cc9190610c77565b50600c5f6001018190555060015f6002015f6101000a81548160ff0219169083151502179055505f6040518060600160405290815f8201805461040e90610aaa565b80601f016020809104026020016040519081016040528092919081815260200182805461043a90610aaa565b80156104855780601f1061045c57610100808354040283529160200191610485565b820191905f5260205f20905b81548152906001019060200180831161046857829003601f168201915b5050505050815260200160018201548152602001600282015f9054906101000a900460ff161515151581525050905090565b5f805f0180546104c690610aaa565b80601f01602080910402602001604051908101604052809291908181526020018280546104f290610aaa565b801561053d5780601f106105145761010080835404028352916020019161053d565b820191905f5260205f20905b81548152906001019060200180831161052057829003601f168201915b505050505090806001015490806002015f9054906101000a900460ff16905083565b61056761066a565b835f800190816105779190610c77565b50825f60010181905550815f6002015f6101000a81548160ff0219169083151502179055505f6040518060600160405290815f820180546105b790610aaa565b80601f01602080910402602001604051908101604052809291908181526020018280546105e390610aaa565b801561062e5780601f106106055761010080835404028352916020019161062e565b820191905f5260205f20905b81548152906001019060200180831161061157829003601f168201915b5050505050815260200160018201548152602001600282015f9054906101000a900460ff16151515158152505090509392505050565b60045481565b6040518060600160405280606081526020015f81526020015f151581525090565b5f604051905090565b5f80fd5b5f80fd5b5f819050919050565b6106ae8161069c565b81146106b8575f80fd5b50565b5f813590506106c9816106a5565b92915050565b5f602082840312156106e4576106e3610694565b5b5f6106f1848285016106bb565b91505092915050565b5f81519050919050565b5f82825260208201905092915050565b8281835e5f83830152505050565b5f601f19601f8301169050919050565b5f61073c826106fa565b6107468185610704565b9350610756818560208601610714565b61075f81610722565b840191505092915050565b6107738161069c565b82525050565b5f8115159050919050565b61078d81610779565b82525050565b5f6060820190508181035f8301526107ab8186610732565b90506107ba602083018561076a565b6107c76040830184610784565b949350505050565b5f80fd5b5f80fd5b7f4e487b71000000000000000000000000000000000000000000000000000000005f52604160045260245ffd5b61080d82610722565b810181811067ffffffffffffffff8211171561082c5761082b6107d7565b5b80604052505050565b5f61083e61068b565b905061084a8282610804565b919050565b5f67ffffffffffffffff821115610869576108686107d7565b5b61087282610722565b9050602081019050919050565b828183375f83830152505050565b5f61089f61089a8461084f565b610835565b9050828152602081018484840111156108bb576108ba6107d3565b5b6108c684828561087f565b509392505050565b5f82601f8301126108e2576108e16107cf565b5b81356108f284826020860161088d565b91505092915050565b61090481610779565b811461090e575f80fd5b50565b5f8135905061091f816108fb565b92915050565b5f805f6060848603121561093c5761093b610694565b5b5f84013567ffffffffffffffff81111561095957610958610698565b5b610965868287016108ce565b9350506020610976868287016106bb565b925050604061098786828701610911565b9150509250925092565b5f82825260208201905092915050565b5f6109ab826106fa565b6109b58185610991565b93506109c5818560208601610714565b6109ce81610722565b840191505092915050565b6109e28161069c565b82525050565b6109f181610779565b82525050565b5f606083015f8301518482035f860152610a1182826109a1565b9150506020830151610a2660208601826109d9565b506040830151610a3960408601826109e8565b508091505092915050565b5f6020820190508181035f830152610a5c81846109f7565b905092915050565b5f602082019050610a775f83018461076a565b92915050565b7f4e487b71000000000000000000000000000000000000000000000000000000005f52602260045260245ffd5b5f6002820490506001821680610ac157607f821691505b602082108103610ad457610ad3610a7d565b5b50919050565b5f819050815f5260205f209050919050565b5f6020601f8301049050919050565b5f82821b905092915050565b5f60088302610b367fffffffffffffffffffffffffffffffffffffffffffffffffffffffffffffffff82610afb565b610b408683610afb565b95508019841693508086168417925050509392505050565b5f819050919050565b5f610b7b610b76610b718461069c565b610b58565b61069c565b9050919050565b5f819050919050565b610b9483610b61565b610ba8610ba082610b82565b848454610b07565b825550505050565b5f90565b610bbc610bb0565b610bc7818484610b8b565b505050565b5b81811015610bea57610bdf5f82610bb4565b600181019050610bcd565b5050565b601f821115610c2f57610c0081610ada565b610c0984610aec565b81016020851015610c18578190505b610c2c610c2485610aec565b830182610bcc565b50505b505050565b5f82821c905092915050565b5f610c4f5f1984600802610c34565b1980831691505092915050565b5f610c678383610c40565b9150826002028217905092915050565b610c80826106fa565b67ffffffffffffffff811115610c9957610c986107d7565b5b610ca38254610aaa565b610cae828285610bee565b5f60209050601f831160018114610cdf575f8415610ccd578287015190505b610cd78582610c5c565b865550610d3e565b601f198416610ced86610ada565b5f5b82811015610d1457848901518255600182019150602085019450602081019050610cef565b86831015610d315784890151610d2d601f891682610c40565b8355505b6001600288020188555050505b505050505050565b7f4e487b71000000000000000000000000000000000000000000000000000000005f52601160045260245ffd5b5f610d7d8261069c565b91507fffffffffffffffffffffffffffffffffffffffffffffffffffffffffffffffff8203610daf57610dae610d46565b5b600182019050919050565b5f610dc48261069c565b9150610dcf8361069c565b9250828203905081811115610de757610de6610d46565b5b9291505056fea26469706673582212208e04a9dbf955c7a36a06aa792c3bb9388bad445a28f900385dd52233c363ac5c64736f6c634300081a0033",
					"opcodes": "PUSH1 0x80 PUSH1 0x40 MSTORE CALLVALUE DUP1 ISZERO PUSH1 0xE JUMPI PUSH0 DUP1 REVERT JUMPDEST POP PUSH2 0xE23 DUP1 PUSH2 0x1C PUSH0 CODECOPY PUSH0 RETURN INVALID PUSH1 0x80 PUSH1 0x40 MSTORE CALLVALUE DUP1 ISZERO PUSH2 0xF JUMPI PUSH0 DUP1 REVERT JUMPDEST POP PUSH1 0x4 CALLDATASIZE LT PUSH2 0x60 JUMPI PUSH0 CALLDATALOAD PUSH1 0xE0 SHR DUP1 PUSH4 0x6EAD22E EQ PUSH2 0x64 JUMPI DUP1 PUSH4 0x2D7464EE EQ PUSH2 0x96 JUMPI DUP1 PUSH4 0x3087AFC4 EQ PUSH2 0xC6 JUMPI DUP1 PUSH4 0x699450E8 EQ PUSH2 0xE4 JUMPI DUP1 PUSH4 0xC30655A2 EQ PUSH2 0x104 JUMPI DUP1 PUSH4 0xE581F9EE EQ PUSH2 0x134 JUMPI JUMPDEST PUSH0 DUP1 REVERT JUMPDEST PUSH2 0x7E PUSH1 0x4 DUP1 CALLDATASIZE SUB DUP2 ADD SWAP1 PUSH2 0x79 SWAP2 SWAP1 PUSH2 0x6CF JUMP JUMPDEST PUSH2 0x152 JUMP JUMPDEST PUSH1 0x40 MLOAD PUSH2 0x8D SWAP4 SWAP3 SWAP2 SWAP1 PUSH2 0x793 JUMP JUMPDEST PUSH1 0x40 MLOAD DUP1 SWAP2 SUB SWAP1 RETURN JUMPDEST PUSH2 0xB0 PUSH1 0x4 DUP1 CALLDATASIZE SUB DUP2 ADD SWAP1 PUSH2 0xAB SWAP2 SWAP1 PUSH2 0x925 JUMP JUMPDEST PUSH2 0x20A JUMP JUMPDEST PUSH1 0x40 MLOAD PUSH2 0xBD SWAP2 SWAP1 PUSH2 0xA44 JUMP JUMPDEST PUSH1 0x40 MLOAD DUP1 SWAP2 SUB SWAP1 RETURN JUMPDEST PUSH2 0xCE PUSH2 0x37F JUMP JUMPDEST PUSH1 0x40 MLOAD PUSH2 0xDB SWAP2 SWAP1 PUSH2 0xA44 JUMP JUMPDEST PUSH1 0x40 MLOAD DUP1 SWAP2 SUB SWAP1 RETURN JUMPDEST PUSH2 0xEC PUSH2 0x4B7 JUMP JUMPDEST PUSH1 0x40 MLOAD PUSH2 0xFB SWAP4 SWAP3 SWAP2 SWAP1 PUSH2 0x793 JUMP JUMPDEST PUSH1 0x40 MLOAD DUP1 SWAP2 SUB SWAP1 RETURN JUMPDEST PUSH2 0x11E PUSH1 0x4 DUP1 CALLDATASIZE SUB DUP2 ADD SWAP1 PUSH2 0x119 SWAP2 SWAP1 PUSH2 0x925 JUMP JUMPDEST PUSH2 0x55F JUMP JUMPDEST PUSH1 0x40 MLOAD PUSH2 0x12B SWAP2 SWAP1 PUSH2 0xA44 JUMP JUMPDEST PUSH1 0x40 MLOAD DUP1 SWAP2 SUB SWAP1 RETURN JUMPDEST PUSH2 0x13C PUSH2 0x664 JUMP JUMPDEST PUSH1 0x40 MLOAD PUSH2 0x149 SWAP2 SWAP1 PUSH2 0xA64 JUMP JUMPDEST PUSH1 0x40 MLOAD DUP1 SWAP2 SUB SWAP1 RETURN JUMPDEST PUSH1 0x3 PUSH1 0x20 MSTORE DUP1 PUSH0 MSTORE PUSH1 0x40 PUSH0 KECCAK256 PUSH0 SWAP2 POP SWAP1 POP DUP1 PUSH0 ADD DUP1 SLOAD PUSH2 0x171 SWAP1 PUSH2 0xAAA JUMP JUMPDEST DUP1 PUSH1 0x1F ADD PUSH1 0x20 DUP1 SWAP2 DIV MUL PUSH1 0x20 ADD PUSH1 0x40 MLOAD SWAP1 DUP2 ADD PUSH1 0x40 MSTORE DUP1 SWAP3 SWAP2 SWAP1 DUP2 DUP2 MSTORE PUSH1 0x20 ADD DUP3 DUP1 SLOAD PUSH2 0x19D SWAP1 PUSH2 0xAAA JUMP JUMPDEST DUP1 ISZERO PUSH2 0x1E8 JUMPI DUP1 PUSH1 0x1F LT PUSH2 0x1BF JUMPI PUSH2 0x100 DUP1 DUP4 SLOAD DIV MUL DUP4 MSTORE SWAP2 PUSH1 0x20 ADD SWAP2 PUSH2 0x1E8 JUMP JUMPDEST DUP3 ADD SWAP2 SWAP1 PUSH0 MSTORE PUSH1 0x20 PUSH0 KECCAK256 SWAP1 JUMPDEST DUP2 SLOAD DUP2 MSTORE SWAP1 PUSH1 0x1 ADD SWAP1 PUSH1 0x20 ADD DUP1 DUP4 GT PUSH2 0x1CB JUMPI DUP3 SWAP1 SUB PUSH1 0x1F AND DUP3 ADD SWAP2 JUMPDEST POP POP POP POP POP SWAP1 DUP1 PUSH1 0x1 ADD SLOAD SWAP1 DUP1 PUSH1 0x2 ADD PUSH0 SWAP1 SLOAD SWAP1 PUSH2 0x100 EXP SWAP1 DIV PUSH1 0xFF AND SWAP1 POP DUP4 JUMP JUMPDEST PUSH2 0x212 PUSH2 0x66A JUMP JUMPDEST PUSH1 0x40 MLOAD DUP1 PUSH1 0x60 ADD PUSH1 0x40 MSTORE DUP1 DUP6 DUP2 MSTORE PUSH1 0x20 ADD DUP5 DUP2 MSTORE PUSH1 0x20 ADD DUP4 ISZERO ISZERO DUP2 MSTORE POP PUSH1 0x3 PUSH0 PUSH1 0x4 SLOAD DUP2 MSTORE PUSH1 0x20 ADD SWAP1 DUP2 MSTORE PUSH1 0x20 ADD PUSH0 KECCAK256 PUSH0 DUP3 ADD MLOAD DUP2 PUSH0 ADD SWAP1 DUP2 PUSH2 0x255 SWAP2 SWAP1 PUSH2 0xC77 JUMP JUMPDEST POP PUSH1 0x20 DUP3 ADD MLOAD DUP2 PUSH1 0x1 ADD SSTORE PUSH1 0x40 DUP3 ADD MLOAD DUP2 PUSH1 0x2 ADD PUSH0 PUSH2 0x100 EXP DUP2 SLOAD DUP2 PUSH1 0xFF MUL NOT AND SWAP1 DUP4 ISZERO ISZERO MUL OR SWAP1 SSTORE POP SWAP1 POP POP PUSH1 0x4 PUSH0 DUP2 SLOAD DUP1 SWAP3 SWAP2 SWAP1 PUSH2 0x294 SWAP1 PUSH2 0xD73 JUMP JUMPDEST SWAP2 SWAP1 POP SSTORE POP PUSH1 0x3 PUSH0 PUSH1 0x1 PUSH1 0x4 SLOAD PUSH2 0x2AB SWAP2 SWAP1 PUSH2 0xDBA JUMP JUMPDEST DUP2 MSTORE PUSH1 0x20 ADD SWAP1 DUP2 MSTORE PUSH1 0x20 ADD PUSH0 KECCAK256 PUSH1 0x40 MLOAD DUP1 PUSH1 0x60 ADD PUSH1 0x40 MSTORE SWAP1 DUP2 PUSH0 DUP3 ADD DUP1 SLOAD PUSH2 0x2D2 SWAP1 PUSH2 0xAAA JUMP JUMPDEST DUP1 PUSH1 0x1F ADD PUSH1 0x20 DUP1 SWAP2 DIV MUL PUSH1 0x20 ADD PUSH1 0x40 MLOAD SWAP1 DUP2 ADD PUSH1 0x40 MSTORE DUP1 SWAP3 SWAP2 SWAP1 DUP2 DUP2 MSTORE PUSH1 0x20 ADD DUP3 DUP1 SLOAD PUSH2 0x2FE SWAP1 PUSH2 0xAAA JUMP JUMPDEST DUP1 ISZERO PUSH2 0x349 JUMPI DUP1 PUSH1 0x1F LT PUSH2 0x320 JUMPI PUSH2 0x100 DUP1 DUP4 SLOAD DIV MUL DUP4 MSTORE SWAP2 PUSH1 0x20 ADD SWAP2 PUSH2 0x349 JUMP JUMPDEST DUP3 ADD SWAP2 SWAP1 PUSH0 MSTORE PUSH1 0x20 PUSH0 KECCAK256 SWAP1 JUMPDEST DUP2 SLOAD DUP2 MSTORE SWAP1 PUSH1 0x1 ADD SWAP1 PUSH1 0x20 ADD DUP1 DUP4 GT PUSH2 0x32C JUMPI DUP3 SWAP1 SUB PUSH1 0x1F AND DUP3 ADD SWAP2 JUMPDEST POP POP POP POP POP DUP2 MSTORE PUSH1 0x20 ADD PUSH1 0x1 DUP3 ADD SLOAD DUP2 MSTORE PUSH1 0x20 ADD PUSH1 0x2 DUP3 ADD PUSH0 SWAP1 SLOAD SWAP1 PUSH2 0x100 EXP SWAP1 DIV PUSH1 0xFF AND ISZERO ISZERO ISZERO ISZERO DUP2 MSTORE POP POP SWAP1 POP SWAP4 SWAP3 POP POP POP JUMP JUMPDEST PUSH2 0x387 PUSH2 0x66A JUMP JUMPDEST PUSH1 0x40 MLOAD DUP1 PUSH1 0x40 ADD PUSH1 0x40 MSTORE DUP1 PUSH1 0xA DUP2 MSTORE PUSH1 0x20 ADD PUSH32 0x4D65656D616E73686F6F00000000000000000000000000000000000000000000 DUP2 MSTORE POP PUSH0 DUP1 ADD SWAP1 DUP2 PUSH2 0x3CC SWAP2 SWAP1 PUSH2 0xC77 JUMP JUMPDEST POP PUSH1 0xC PUSH0 PUSH1 0x1 ADD DUP2 SWAP1 SSTORE POP PUSH1 0x1 PUSH0 PUSH1 0x2 ADD PUSH0 PUSH2 0x100 EXP DUP2 SLOAD DUP2 PUSH1 0xFF MUL NOT AND SWAP1 DUP4 ISZERO ISZERO MUL OR SWAP1 SSTORE POP PUSH0 PUSH1 0x40 MLOAD DUP1 PUSH1 0x60 ADD PUSH1 0x40 MSTORE SWAP1 DUP2 PUSH0 DUP3 ADD DUP1 SLOAD PUSH2 0x40E SWAP1 PUSH2 0xAAA JUMP JUMPDEST DUP1 PUSH1 0x1F ADD PUSH1 0x20 DUP1 SWAP2 DIV MUL PUSH1 0x20 ADD PUSH1 0x40 MLOAD SWAP1 DUP2 ADD PUSH1 0x40 MSTORE DUP1 SWAP3 SWAP2 SWAP1 DUP2 DUP2 MSTORE PUSH1 0x20 ADD DUP3 DUP1 SLOAD PUSH2 0x43A SWAP1 PUSH2 0xAAA JUMP JUMPDEST DUP1 ISZERO PUSH2 0x485 JUMPI DUP1 PUSH1 0x1F LT PUSH2 0x45C JUMPI PUSH2 0x100 DUP1 DUP4 SLOAD DIV MUL DUP4 MSTORE SWAP2 PUSH1 0x20 ADD SWAP2 PUSH2 0x485 JUMP JUMPDEST DUP3 ADD SWAP2 SWAP1 PUSH0 MSTORE PUSH1 0x20 PUSH0 KECCAK256 SWAP1 JUMPDEST DUP2 SLOAD DUP2 MSTORE SWAP1 PUSH1 0x1 ADD SWAP1 PUSH1 0x20 ADD DUP1 DUP4 GT PUSH2 0x468 JUMPI DUP3 SWAP1 SUB PUSH1 0x1F AND DUP3 ADD SWAP2 JUMPDEST POP POP POP POP POP DUP2 MSTORE PUSH1 0x20 ADD PUSH1 0x1 DUP3 ADD SLOAD DUP2 MSTORE PUSH1 0x20 ADD PUSH1 0x2 DUP3 ADD PUSH0 SWAP1 SLOAD SWAP1 PUSH2 0x100 EXP SWAP1 DIV PUSH1 0xFF AND ISZERO ISZERO ISZERO ISZERO DUP2 MSTORE POP POP SWAP1 POP SWAP1 JUMP JUMPDEST PUSH0 DUP1 PUSH0 ADD DUP1 SLOAD PUSH2 0x4C6 SWAP1 PUSH2 0xAAA JUMP JUMPDEST DUP1 PUSH1 0x1F ADD PUSH1 0x20 DUP1 SWAP2 DIV MUL PUSH1 0x20 ADD PUSH1 0x40 MLOAD SWAP1 DUP2 ADD PUSH1 0x40 MSTORE DUP1 SWAP3 SWAP2 SWAP1 DUP2 DUP2 MSTORE PUSH1 0x20 ADD DUP3 DUP1 SLOAD PUSH2 0x4F2 SWAP1 PUSH2 0xAAA JUMP JUMPDEST DUP1 ISZERO PUSH2 0x53D JUMPI DUP1 PUSH1 0x1F LT PUSH2 0x514 JUMPI PUSH2 0x100 DUP1 DUP4 SLOAD DIV MUL DUP4 MSTORE SWAP2 PUSH1 0x20 ADD SWAP2 PUSH2 0x53D JUMP JUMPDEST DUP3 ADD SWAP2 SWAP1 PUSH0 MSTORE PUSH1 0x20 PUSH0 KECCAK256 SWAP1 JUMPDEST DUP2 SLOAD DUP2 MSTORE SWAP1 PUSH1 0x1 ADD SWAP1 PUSH1 0x20 ADD DUP1 DUP4 GT PUSH2 0x520 JUMPI DUP3 SWAP1 SUB PUSH1 0x1F AND DUP3 ADD SWAP2 JUMPDEST POP POP POP POP POP SWAP1 DUP1 PUSH1 0x1 ADD SLOAD SWAP1 DUP1 PUSH1 0x2 ADD PUSH0 SWAP1 SLOAD SWAP1 PUSH2 0x100 EXP SWAP1 DIV PUSH1 0xFF AND SWAP1 POP DUP4 JUMP JUMPDEST PUSH2 0x567 PUSH2 0x66A JUMP JUMPDEST DUP4 PUSH0 DUP1 ADD SWAP1 DUP2 PUSH2 0x577 SWAP2 SWAP1 PUSH2 0xC77 JUMP JUMPDEST POP DUP3 PUSH0 PUSH1 0x1 ADD DUP2 SWAP1 SSTORE POP DUP2 PUSH0 PUSH1 0x2 ADD PUSH0 PUSH2 0x100 EXP DUP2 SLOAD DUP2 PUSH1 0xFF MUL NOT AND SWAP1 DUP4 ISZERO ISZERO MUL OR SWAP1 SSTORE POP PUSH0 PUSH1 0x40 MLOAD DUP1 PUSH1 0x60 ADD PUSH1 0x40 MSTORE SWAP1 DUP2 PUSH0 DUP3 ADD DUP1 SLOAD PUSH2 0x5B7 SWAP1 PUSH2 0xAAA JUMP JUMPDEST DUP1 PUSH1 0x1F ADD PUSH1 0x20 DUP1 SWAP2 DIV MUL PUSH1 0x20 ADD PUSH1 0x40 MLOAD SWAP1 DUP2 ADD PUSH1 0x40 MSTORE DUP1 SWAP3 SWAP2 SWAP1 DUP2 DUP2 MSTORE PUSH1 0x20 ADD DUP3 DUP1 SLOAD PUSH2 0x5E3 SWAP1 PUSH2 0xAAA JUMP JUMPDEST DUP1 ISZERO PUSH2 0x62E JUMPI DUP1 PUSH1 0x1F LT PUSH2 0x605 JUMPI PUSH2 0x100 DUP1 DUP4 SLOAD DIV MUL DUP4 MSTORE SWAP2 PUSH1 0x20 ADD SWAP2 PUSH2 0x62E JUMP JUMPDEST DUP3 ADD SWAP2 SWAP1 PUSH0 MSTORE PUSH1 0x20 PUSH0 KECCAK256 SWAP1 JUMPDEST DUP2 SLOAD DUP2 MSTORE SWAP1 PUSH1 0x1 ADD SWAP1 PUSH1 0x20 ADD DUP1 DUP4 GT PUSH2 0x611 JUMPI DUP3 SWAP1 SUB PUSH1 0x1F AND DUP3 ADD SWAP2 JUMPDEST POP POP POP POP POP DUP2 MSTORE PUSH1 0x20 ADD PUSH1 0x1 DUP3 ADD SLOAD DUP2 MSTORE PUSH1 0x20 ADD PUSH1 0x2 DUP3 ADD PUSH0 SWAP1 SLOAD SWAP1 PUSH2 0x100 EXP SWAP1 DIV PUSH1 0xFF AND ISZERO ISZERO ISZERO ISZERO DUP2 MSTORE POP POP SWAP1 POP SWAP4 SWAP3 POP POP POP JUMP JUMPDEST PUSH1 0x4 SLOAD DUP2 JUMP JUMPDEST PUSH1 0x40 MLOAD DUP1 PUSH1 0x60 ADD PUSH1 0x40 MSTORE DUP1 PUSH1 0x60 DUP2 MSTORE PUSH1 0x20 ADD PUSH0 DUP2 MSTORE PUSH1 0x20 ADD PUSH0 ISZERO ISZERO DUP2 MSTORE POP SWAP1 JUMP JUMPDEST PUSH0 PUSH1 0x40 MLOAD SWAP1 POP SWAP1 JUMP JUMPDEST PUSH0 DUP1 REVERT JUMPDEST PUSH0 DUP1 REVERT JUMPDEST PUSH0 DUP2 SWAP1 POP SWAP2 SWAP1 POP JUMP JUMPDEST PUSH2 0x6AE DUP2 PUSH2 0x69C JUMP JUMPDEST DUP2 EQ PUSH2 0x6B8 JUMPI PUSH0 DUP1 REVERT JUMPDEST POP JUMP JUMPDEST PUSH0 DUP2 CALLDATALOAD SWAP1 POP PUSH2 0x6C9 DUP2 PUSH2 0x6A5 JUMP JUMPDEST SWAP3 SWAP2 POP POP JUMP JUMPDEST PUSH0 PUSH1 0x20 DUP3 DUP5 SUB SLT ISZERO PUSH2 0x6E4 JUMPI PUSH2 0x6E3 PUSH2 0x694 JUMP JUMPDEST JUMPDEST PUSH0 PUSH2 0x6F1 DUP5 DUP3 DUP6 ADD PUSH2 0x6BB JUMP JUMPDEST SWAP2 POP POP SWAP3 SWAP2 POP POP JUMP JUMPDEST PUSH0 DUP2 MLOAD SWAP1 POP SWAP2 SWAP1 POP JUMP JUMPDEST PUSH0 DUP3 DUP3 MSTORE PUSH1 0x20 DUP3 ADD SWAP1 POP SWAP3 SWAP2 POP POP JUMP JUMPDEST DUP3 DUP2 DUP4 MCOPY PUSH0 DUP4 DUP4 ADD MSTORE POP POP POP JUMP JUMPDEST PUSH0 PUSH1 0x1F NOT PUSH1 0x1F DUP4 ADD AND SWAP1 POP SWAP2 SWAP1 POP JUMP JUMPDEST PUSH0 PUSH2 0x73C DUP3 PUSH2 0x6FA JUMP JUMPDEST PUSH2 0x746 DUP2 DUP6 PUSH2 0x704 JUMP JUMPDEST SWAP4 POP PUSH2 0x756 DUP2 DUP6 PUSH1 0x20 DUP7 ADD PUSH2 0x714 JUMP JUMPDEST PUSH2 0x75F DUP2 PUSH2 0x722 JUMP JUMPDEST DUP5 ADD SWAP2 POP POP SWAP3 SWAP2 POP POP JUMP JUMPDEST PUSH2 0x773 DUP2 PUSH2 0x69C JUMP JUMPDEST DUP3 MSTORE POP POP JUMP JUMPDEST PUSH0 DUP2 ISZERO ISZERO SWAP1 POP SWAP2 SWAP1 POP JUMP JUMPDEST PUSH2 0x78D DUP2 PUSH2 0x779 JUMP JUMPDEST DUP3 MSTORE POP POP JUMP JUMPDEST PUSH0 PUSH1 0x60 DUP3 ADD SWAP1 POP DUP2 DUP2 SUB PUSH0 DUP4 ADD MSTORE PUSH2 0x7AB DUP2 DUP7 PUSH2 0x732 JUMP JUMPDEST SWAP1 POP PUSH2 0x7BA PUSH1 0x20 DUP4 ADD DUP6 PUSH2 0x76A JUMP JUMPDEST PUSH2 0x7C7 PUSH1 0x40 DUP4 ADD DUP5 PUSH2 0x784 JUMP JUMPDEST SWAP5 SWAP4 POP POP POP POP JUMP JUMPDEST PUSH0 DUP1 REVERT JUMPDEST PUSH0 DUP1 REVERT JUMPDEST PUSH32 0x4E487B7100000000000000000000000000000000000000000000000000000000 PUSH0 MSTORE PUSH1 0x41 PUSH1 0x4 MSTORE PUSH1 0x24 PUSH0 REVERT JUMPDEST PUSH2 0x80D DUP3 PUSH2 0x722 JUMP JUMPDEST DUP2 ADD DUP2 DUP2 LT PUSH8 0xFFFFFFFFFFFFFFFF DUP3 GT OR ISZERO PUSH2 0x82C JUMPI PUSH2 0x82B PUSH2 0x7D7 JUMP JUMPDEST JUMPDEST DUP1 PUSH1 0x40 MSTORE POP POP POP JUMP JUMPDEST PUSH0 PUSH2 0x83E PUSH2 0x68B JUMP JUMPDEST SWAP1 POP PUSH2 0x84A DUP3 DUP3 PUSH2 0x804 JUMP JUMPDEST SWAP2 SWAP1 POP JUMP JUMPDEST PUSH0 PUSH8 0xFFFFFFFFFFFFFFFF DUP3 GT ISZERO PUSH2 0x869 JUMPI PUSH2 0x868 PUSH2 0x7D7 JUMP JUMPDEST JUMPDEST PUSH2 0x872 DUP3 PUSH2 0x722 JUMP JUMPDEST SWAP1 POP PUSH1 0x20 DUP2 ADD SWAP1 POP SWAP2 SWAP1 POP JUMP JUMPDEST DUP3 DUP2 DUP4 CALLDATACOPY PUSH0 DUP4 DUP4 ADD MSTORE POP POP POP JUMP JUMPDEST PUSH0 PUSH2 0x89F PUSH2 0x89A DUP5 PUSH2 0x84F JUMP JUMPDEST PUSH2 0x835 JUMP JUMPDEST SWAP1 POP DUP3 DUP2 MSTORE PUSH1 0x20 DUP2 ADD DUP5 DUP5 DUP5 ADD GT ISZERO PUSH2 0x8BB JUMPI PUSH2 0x8BA PUSH2 0x7D3 JUMP JUMPDEST JUMPDEST PUSH2 0x8C6 DUP5 DUP3 DUP6 PUSH2 0x87F JUMP JUMPDEST POP SWAP4 SWAP3 POP POP POP JUMP JUMPDEST PUSH0 DUP3 PUSH1 0x1F DUP4 ADD SLT PUSH2 0x8E2 JUMPI PUSH2 0x8E1 PUSH2 0x7CF JUMP JUMPDEST JUMPDEST DUP2 CALLDATALOAD PUSH2 0x8F2 DUP5 DUP3 PUSH1 0x20 DUP7 ADD PUSH2 0x88D JUMP JUMPDEST SWAP2 POP POP SWAP3 SWAP2 POP POP JUMP JUMPDEST PUSH2 0x904 DUP2 PUSH2 0x779 JUMP JUMPDEST DUP2 EQ PUSH2 0x90E JUMPI PUSH0 DUP1 REVERT JUMPDEST POP JUMP JUMPDEST PUSH0 DUP2 CALLDATALOAD SWAP1 POP PUSH2 0x91F DUP2 PUSH2 0x8FB JUMP JUMPDEST SWAP3 SWAP2 POP POP JUMP JUMPDEST PUSH0 DUP1 PUSH0 PUSH1 0x60 DUP5 DUP7 SUB SLT ISZERO PUSH2 0x93C JUMPI PUSH2 0x93B PUSH2 0x694 JUMP JUMPDEST JUMPDEST PUSH0 DUP5 ADD CALLDATALOAD PUSH8 0xFFFFFFFFFFFFFFFF DUP2 GT ISZERO PUSH2 0x959 JUMPI PUSH2 0x958 PUSH2 0x698 JUMP JUMPDEST JUMPDEST PUSH2 0x965 DUP7 DUP3 DUP8 ADD PUSH2 0x8CE JUMP JUMPDEST SWAP4 POP POP PUSH1 0x20 PUSH2 0x976 DUP7 DUP3 DUP8 ADD PUSH2 0x6BB JUMP JUMPDEST SWAP3 POP POP PUSH1 0x40 PUSH2 0x987 DUP7 DUP3 DUP8 ADD PUSH2 0x911 JUMP JUMPDEST SWAP2 POP POP SWAP3 POP SWAP3 POP SWAP3 JUMP JUMPDEST PUSH0 DUP3 DUP3 MSTORE PUSH1 0x20 DUP3 ADD SWAP1 POP SWAP3 SWAP2 POP POP JUMP JUMPDEST PUSH0 PUSH2 0x9AB DUP3 PUSH2 0x6FA JUMP JUMPDEST PUSH2 0x9B5 DUP2 DUP6 PUSH2 0x991 JUMP JUMPDEST SWAP4 POP PUSH2 0x9C5 DUP2 DUP6 PUSH1 0x20 DUP7 ADD PUSH2 0x714 JUMP JUMPDEST PUSH2 0x9CE DUP2 PUSH2 0x722 JUMP JUMPDEST DUP5 ADD SWAP2 POP POP SWAP3 SWAP2 POP POP JUMP JUMPDEST PUSH2 0x9E2 DUP2 PUSH2 0x69C JUMP JUMPDEST DUP3 MSTORE POP POP JUMP JUMPDEST PUSH2 0x9F1 DUP2 PUSH2 0x779 JUMP JUMPDEST DUP3 MSTORE POP POP JUMP JUMPDEST PUSH0 PUSH1 0x60 DUP4 ADD PUSH0 DUP4 ADD MLOAD DUP5 DUP3 SUB PUSH0 DUP7 ADD MSTORE PUSH2 0xA11 DUP3 DUP3 PUSH2 0x9A1 JUMP JUMPDEST SWAP2 POP POP PUSH1 0x20 DUP4 ADD MLOAD PUSH2 0xA26 PUSH1 0x20 DUP7 ADD DUP3 PUSH2 0x9D9 JUMP JUMPDEST POP PUSH1 0x40 DUP4 ADD MLOAD PUSH2 0xA39 PUSH1 0x40 DUP7 ADD DUP3 PUSH2 0x9E8 JUMP JUMPDEST POP DUP1 SWAP2 POP POP SWAP3 SWAP2 POP POP JUMP JUMPDEST PUSH0 PUSH1 0x20 DUP3 ADD SWAP1 POP DUP2 DUP2 SUB PUSH0 DUP4 ADD MSTORE PUSH2 0xA5C DUP2 DUP5 PUSH2 0x9F7 JUMP JUMPDEST SWAP1 POP SWAP3 SWAP2 POP POP JUMP JUMPDEST PUSH0 PUSH1 0x20 DUP3 ADD SWAP1 POP PUSH2 0xA77 PUSH0 DUP4 ADD DUP5 PUSH2 0x76A JUMP JUMPDEST SWAP3 SWAP2 POP POP JUMP JUMPDEST PUSH32 0x4E487B7100000000000000000000000000000000000000000000000000000000 PUSH0 MSTORE PUSH1 0x22 PUSH1 0x4 MSTORE PUSH1 0x24 PUSH0 REVERT JUMPDEST PUSH0 PUSH1 0x2 DUP3 DIV SWAP1 POP PUSH1 0x1 DUP3 AND DUP1 PUSH2 0xAC1 JUMPI PUSH1 0x7F DUP3 AND SWAP2 POP JUMPDEST PUSH1 0x20 DUP3 LT DUP2 SUB PUSH2 0xAD4 JUMPI PUSH2 0xAD3 PUSH2 0xA7D JUMP JUMPDEST JUMPDEST POP SWAP2 SWAP1 POP JUMP JUMPDEST PUSH0 DUP2 SWAP1 POP DUP2 PUSH0 MSTORE PUSH1 0x20 PUSH0 KECCAK256 SWAP1 POP SWAP2 SWAP1 POP JUMP JUMPDEST PUSH0 PUSH1 0x20 PUSH1 0x1F DUP4 ADD DIV SWAP1 POP SWAP2 SWAP1 POP JUMP JUMPDEST PUSH0 DUP3 DUP3 SHL SWAP1 POP SWAP3 SWAP2 POP POP JUMP JUMPDEST PUSH0 PUSH1 0x8 DUP4 MUL PUSH2 0xB36 PUSH32 0xFFFFFFFFFFFFFFFFFFFFFFFFFFFFFFFFFFFFFFFFFFFFFFFFFFFFFFFFFFFFFFFF DUP3 PUSH2 0xAFB JUMP JUMPDEST PUSH2 0xB40 DUP7 DUP4 PUSH2 0xAFB JUMP JUMPDEST SWAP6 POP DUP1 NOT DUP5 AND SWAP4 POP DUP1 DUP7 AND DUP5 OR SWAP3 POP POP POP SWAP4 SWAP3 POP POP POP JUMP JUMPDEST PUSH0 DUP2 SWAP1 POP SWAP2 SWAP1 POP JUMP JUMPDEST PUSH0 PUSH2 0xB7B PUSH2 0xB76 PUSH2 0xB71 DUP5 PUSH2 0x69C JUMP JUMPDEST PUSH2 0xB58 JUMP JUMPDEST PUSH2 0x69C JUMP JUMPDEST SWAP1 POP SWAP2 SWAP1 POP JUMP JUMPDEST PUSH0 DUP2 SWAP1 POP SWAP2 SWAP1 POP JUMP JUMPDEST PUSH2 0xB94 DUP4 PUSH2 0xB61 JUMP JUMPDEST PUSH2 0xBA8 PUSH2 0xBA0 DUP3 PUSH2 0xB82 JUMP JUMPDEST DUP5 DUP5 SLOAD PUSH2 0xB07 JUMP JUMPDEST DUP3 SSTORE POP POP POP POP JUMP JUMPDEST PUSH0 SWAP1 JUMP JUMPDEST PUSH2 0xBBC PUSH2 0xBB0 JUMP JUMPDEST PUSH2 0xBC7 DUP2 DUP5 DUP5 PUSH2 0xB8B JUMP JUMPDEST POP POP POP JUMP JUMPDEST JUMPDEST DUP2 DUP2 LT ISZERO PUSH2 0xBEA JUMPI PUSH2 0xBDF PUSH0 DUP3 PUSH2 0xBB4 JUMP JUMPDEST PUSH1 0x1 DUP2 ADD SWAP1 POP PUSH2 0xBCD JUMP JUMPDEST POP POP JUMP JUMPDEST PUSH1 0x1F DUP3 GT ISZERO PUSH2 0xC2F JUMPI PUSH2 0xC00 DUP2 PUSH2 0xADA JUMP JUMPDEST PUSH2 0xC09 DUP5 PUSH2 0xAEC JUMP JUMPDEST DUP2 ADD PUSH1 0x20 DUP6 LT ISZERO PUSH2 0xC18 JUMPI DUP2 SWAP1 POP JUMPDEST PUSH2 0xC2C PUSH2 0xC24 DUP6 PUSH2 0xAEC JUMP JUMPDEST DUP4 ADD DUP3 PUSH2 0xBCC JUMP JUMPDEST POP POP JUMPDEST POP POP POP JUMP JUMPDEST PUSH0 DUP3 DUP3 SHR SWAP1 POP SWAP3 SWAP2 POP POP JUMP JUMPDEST PUSH0 PUSH2 0xC4F PUSH0 NOT DUP5 PUSH1 0x8 MUL PUSH2 0xC34 JUMP JUMPDEST NOT DUP1 DUP4 AND SWAP2 POP POP SWAP3 SWAP2 POP POP JUMP JUMPDEST PUSH0 PUSH2 0xC67 DUP4 DUP4 PUSH2 0xC40 JUMP JUMPDEST SWAP2 POP DUP3 PUSH1 0x2 MUL DUP3 OR SWAP1 POP SWAP3 SWAP2 POP POP JUMP JUMPDEST PUSH2 0xC80 DUP3 PUSH2 0x6FA JUMP JUMPDEST PUSH8 0xFFFFFFFFFFFFFFFF DUP2 GT ISZERO PUSH2 0xC99 JUMPI PUSH2 0xC98 PUSH2 0x7D7 JUMP JUMPDEST JUMPDEST PUSH2 0xCA3 DUP3 SLOAD PUSH2 0xAAA JUMP JUMPDEST PUSH2 0xCAE DUP3 DUP3 DUP6 PUSH2 0xBEE JUMP JUMPDEST PUSH0 PUSH1 0x20 SWAP1 POP PUSH1 0x1F DUP4 GT PUSH1 0x1 DUP2 EQ PUSH2 0xCDF JUMPI PUSH0 DUP5 ISZERO PUSH2 0xCCD JUMPI DUP3 DUP8 ADD MLOAD SWAP1 POP JUMPDEST PUSH2 0xCD7 DUP6 DUP3 PUSH2 0xC5C JUMP JUMPDEST DUP7 SSTORE POP PUSH2 0xD3E JUMP JUMPDEST PUSH1 0x1F NOT DUP5 AND PUSH2 0xCED DUP7 PUSH2 0xADA JUMP JUMPDEST PUSH0 JUMPDEST DUP3 DUP2 LT ISZERO PUSH2 0xD14 JUMPI DUP5 DUP10 ADD MLOAD DUP3 SSTORE PUSH1 0x1 DUP3 ADD SWAP2 POP PUSH1 0x20 DUP6 ADD SWAP5 POP PUSH1 0x20 DUP2 ADD SWAP1 POP PUSH2 0xCEF JUMP JUMPDEST DUP7 DUP4 LT ISZERO PUSH2 0xD31 JUMPI DUP5 DUP10 ADD MLOAD PUSH2 0xD2D PUSH1 0x1F DUP10 AND DUP3 PUSH2 0xC40 JUMP JUMPDEST DUP4 SSTORE POP JUMPDEST PUSH1 0x1 PUSH1 0x2 DUP9 MUL ADD DUP9 SSTORE POP POP POP JUMPDEST POP POP POP POP POP POP JUMP JUMPDEST PUSH32 0x4E487B7100000000000000000000000000000000000000000000000000000000 PUSH0 MSTORE PUSH1 0x11 PUSH1 0x4 MSTORE PUSH1 0x24 PUSH0 REVERT JUMPDEST PUSH0 PUSH2 0xD7D DUP3 PUSH2 0x69C JUMP JUMPDEST SWAP2 POP PUSH32 0xFFFFFFFFFFFFFFFFFFFFFFFFFFFFFFFFFFFFFFFFFFFFFFFFFFFFFFFFFFFFFFFF DUP3 SUB PUSH2 0xDAF JUMPI PUSH2 0xDAE PUSH2 0xD46 JUMP JUMPDEST JUMPDEST PUSH1 0x1 DUP3 ADD SWAP1 POP SWAP2 SWAP1 POP JUMP JUMPDEST PUSH0 PUSH2 0xDC4 DUP3 PUSH2 0x69C JUMP JUMPDEST SWAP2 POP PUSH2 0xDCF DUP4 PUSH2 0x69C JUMP JUMPDEST SWAP3 POP DUP3 DUP3 SUB SWAP1 POP DUP2 DUP2 GT ISZERO PUSH2 0xDE7 JUMPI PUSH2 0xDE6 PUSH2 0xD46 JUMP JUMPDEST JUMPDEST SWAP3 SWAP2 POP POP JUMP INVALID LOG2 PUSH5 0x6970667358 0x22 SLT KECCAK256 DUP15 DIV 0xA9 0xDB 0xF9 SSTORE 0xC7 LOG3 PUSH11 0x6AA792C3BB9388BAD445A 0x28 0xF9 STOP CODESIZE TSTORE 0xD5 0x22 CALLER 0xC3 PUSH4 0xAC5C6473 PUSH16 0x6C634300081A00330000000000000000 "
				},
				"gasEstimates": {
					"creation": {
						"codeDepositCost": "723800",
						"executionCost": "758",
						"totalCost": "724558"
					},
					"external": {
						"insert(string,uint256,bool)": "infinite",
						"insertDummy()": "infinite",
						"insertStudent(string,uint256,bool)": "infinite",
						"student()": "infinite",
						"studentCount()": "2513",
						"students(uint256)": "infinite"
					}
				},
				"methodIdentifiers": {
					"insert(string,uint256,bool)": "c30655a2",
					"insertDummy()": "3087afc4",
					"insertStudent(string,uint256,bool)": "2d7464ee",
					"student()": "699450e8",
					"studentCount()": "e581f9ee",
					"students(uint256)": "06ead22e"
				}
			},
			"storageLayout": {
				"storage": [
					{
						"astId": 11,
						"contract": "contracts/StructDataType.sol:StructDataType",
						"label": "student",
						"offset": 0,
						"slot": "0",
						"type": "t_struct(Student)8_storage"
					},
					{
						"astId": 16,
						"contract": "contracts/StructDataType.sol:StructDataType",
						"label": "students",
						"offset": 0,
						"slot": "3",
						"type": "t_mapping(t_uint256,t_struct(Student)8_storage)"
					},
					{
						"astId": 18,
						"contract": "contracts/StructDataType.sol:StructDataType",
						"label": "studentCount",
						"offset": 0,
						"slot": "4",
						"type": "t_uint256"
					}
				],
				"types": {
					"t_bool": {
						"encoding": "inplace",
						"label": "bool",
						"numberOfBytes": "1"
					},
					"t_mapping(t_uint256,t_struct(Student)8_storage)": {
						"encoding": "mapping",
						"key": "t_uint256",
						"label": "mapping(uint256 => struct StructDataType.Student)",
						"numberOfBytes": "32",
						"value": "t_struct(Student)8_storage"
					},
					"t_string_storage": {
						"encoding": "bytes",
						"label": "string",
						"numberOfBytes": "32"
					},
					"t_struct(Student)8_storage": {
						"encoding": "inplace",
						"label": "struct StructDataType.Student",
						"members": [
							{
								"astId": 3,
								"contract": "contracts/StructDataType.sol:StructDataType",
								"label": "name",
								"offset": 0,
								"slot": "0",
								"type": "t_string_storage"
							},
							{
								"astId": 5,
								"contract": "contracts/StructDataType.sol:StructDataType",
								"label": "roll",
								"offset": 0,
								"slot": "1",
								"type": "t_uint256"
							},
							{
								"astId": 7,
								"contract": "contracts/StructDataType.sol:StructDataType",
								"label": "pass",
								"offset": 0,
								"slot": "2",
								"type": "t_bool"
							}
						],
						"numberOfBytes": "96"
					},
					"t_uint256": {
						"encoding": "inplace",
						"label": "uint256",
						"numberOfBytes": "32"
					}
				}
			},
			"userdoc": {
				"kind": "user",
				"methods": {},
				"version": 1
			}
		}
	}
}