{
	"contracts/StringDataType.sol": {
		"StringDataType": {
			"abi": [
				{
					"inputs": [],
					"name": "getString",
					"outputs": [
						{
							"internalType": "string",
							"name": "",
							"type": "string"
						}
					],
					"stateMutability": "view",
					"type": "function"
				},
				{
					"inputs": [],
					"name": "getStringLength",
					"outputs": [
						{
							"internalType": "uint256",
							"name": "",
							"type": "uint256"
						}
					],
					"stateMutability": "view",
					"type": "function"
				},
				{
					"inputs": [],
					"name": "myString",
					"outputs": [
						{
							"internalType": "string",
							"name": "",
							"type": "string"
						}
					],
					"stateMutability": "view",
					"type": "function"
				},
				{
					"inputs": [
						{
							"internalType": "string",
							"name": "value",
							"type": "string"
						}
					],
					"name": "setString",
					"outputs": [],
					"stateMutability": "nonpayable",
					"type": "function"
				}
			],
			"devdoc": {
				"kind": "dev",
				"methods": {},
				"version": 1
			},
			"evm": {
				"assembly": "    /* \"contracts/StringDataType.sol\":74:434  contract StringDataType {... */\n  mstore(0x40, 0x80)\n  callvalue\n  dup1\n  iszero\n  tag_1\n  jumpi\n  0x00\n  dup1\n  revert\ntag_1:\n  pop\n  dataSize(sub_0)\n  dup1\n  dataOffset(sub_0)\n  0x00\n  codecopy\n  0x00\n  return\nstop\n\nsub_0: assembly {\n        /* \"contracts/StringDataType.sol\":74:434  contract StringDataType {... */\n      mstore(0x40, 0x80)\n      callvalue\n      dup1\n      iszero\n      tag_1\n      jumpi\n      0x00\n      dup1\n      revert\n    tag_1:\n      pop\n      jumpi(tag_2, lt(calldatasize, 0x04))\n      shr(0xe0, calldataload(0x00))\n      dup1\n      0x492bfa18\n      eq\n      tag_3\n      jumpi\n      dup1\n      0x7fcaf666\n      eq\n      tag_4\n      jumpi\n      dup1\n      0x89ea642f\n      eq\n      tag_5\n      jumpi\n      dup1\n      0xd1cfd048\n      eq\n      tag_6\n      jumpi\n    tag_2:\n      0x00\n      dup1\n      revert\n        /* \"contracts/StringDataType.sol\":111:133  string public myString */\n    tag_3:\n      tag_7\n      tag_8\n      jump\t// in\n    tag_7:\n      mload(0x40)\n      tag_9\n      swap2\n      swap1\n      tag_10\n      jump\t// in\n    tag_9:\n      mload(0x40)\n      dup1\n      swap2\n      sub\n      swap1\n      return\n        /* \"contracts/StringDataType.sol\":240:322  function setString(string memory value) public {... */\n    tag_4:\n      tag_11\n      0x04\n      dup1\n      calldatasize\n      sub\n      dup2\n      add\n      swap1\n      tag_12\n      swap2\n      swap1\n      tag_13\n      jump\t// in\n    tag_12:\n      tag_14\n      jump\t// in\n    tag_11:\n      stop\n        /* \"contracts/StringDataType.sol\":142:232  function getString() public view returns(string memory) {... */\n    tag_5:\n      tag_15\n      tag_16\n      jump\t// in\n    tag_15:\n      mload(0x40)\n      tag_17\n      swap2\n      swap1\n      tag_10\n      jump\t// in\n    tag_17:\n      mload(0x40)\n      dup1\n      swap2\n      sub\n      swap1\n      return\n        /* \"contracts/StringDataType.sol\":330:431  function getStringLength() public view returns(uint) {... */\n    tag_6:\n      tag_18\n      tag_19\n      jump\t// in\n    tag_18:\n      mload(0x40)\n      tag_20\n      swap2\n      swap1\n      tag_21\n      jump\t// in\n    tag_20:\n      mload(0x40)\n      dup1\n      swap2\n      sub\n      swap1\n      return\n        /* \"contracts/StringDataType.sol\":111:133  string public myString */\n    tag_8:\n      0x00\n      dup1\n      sload\n      tag_22\n      swap1\n      tag_23\n      jump\t// in\n    tag_22:\n      dup1\n      0x1f\n      add\n      0x20\n      dup1\n      swap2\n      div\n      mul\n      0x20\n      add\n      mload(0x40)\n      swap1\n      dup2\n      add\n      0x40\n      mstore\n      dup1\n      swap3\n      swap2\n      swap1\n      dup2\n      dup2\n      mstore\n      0x20\n      add\n      dup3\n      dup1\n      sload\n      tag_24\n      swap1\n      tag_23\n      jump\t// in\n    tag_24:\n      dup1\n      iszero\n      tag_25\n      jumpi\n      dup1\n      0x1f\n      lt\n      tag_26\n      jumpi\n      0x0100\n      dup1\n      dup4\n      sload\n      div\n      mul\n      dup4\n      mstore\n      swap2\n      0x20\n      add\n      swap2\n      jump(tag_25)\n    tag_26:\n      dup3\n      add\n      swap2\n      swap1\n      0x00\n      mstore\n      keccak256(0x00, 0x20)\n      swap1\n    tag_27:\n      dup2\n      sload\n      dup2\n      mstore\n      swap1\n      0x01\n      add\n      swap1\n      0x20\n      add\n      dup1\n      dup4\n      gt\n      tag_27\n      jumpi\n      dup3\n      swap1\n      sub\n      0x1f\n      and\n      dup3\n      add\n      swap2\n    tag_25:\n      pop\n      pop\n      pop\n      pop\n      pop\n      dup2\n      jump\t// out\n        /* \"contracts/StringDataType.sol\":240:322  function setString(string memory value) public {... */\n    tag_14:\n        /* \"contracts/StringDataType.sol\":309:314  value */\n      dup1\n        /* \"contracts/StringDataType.sol\":298:306  myString */\n      0x00\n        /* \"contracts/StringDataType.sol\":298:314  myString = value */\n      swap1\n      dup2\n      tag_29\n      swap2\n      swap1\n      tag_30\n      jump\t// in\n    tag_29:\n      pop\n        /* \"contracts/StringDataType.sol\":240:322  function setString(string memory value) public {... */\n      pop\n      jump\t// out\n        /* \"contracts/StringDataType.sol\":142:232  function getString() public view returns(string memory) {... */\n    tag_16:\n        /* \"contracts/StringDataType.sol\":183:196  string memory */\n      0x60\n        /* \"contracts/StringDataType.sol\":216:224  myString */\n      0x00\n        /* \"contracts/StringDataType.sol\":209:224  return myString */\n      dup1\n      sload\n      tag_32\n      swap1\n      tag_23\n      jump\t// in\n    tag_32:\n      dup1\n      0x1f\n      add\n      0x20\n      dup1\n      swap2\n      div\n      mul\n      0x20\n      add\n      mload(0x40)\n      swap1\n      dup2\n      add\n      0x40\n      mstore\n      dup1\n      swap3\n      swap2\n      swap1\n      dup2\n      dup2\n      mstore\n      0x20\n      add\n      dup3\n      dup1\n      sload\n      tag_33\n      swap1\n      tag_23\n      jump\t// in\n    tag_33:\n      dup1\n      iszero\n      tag_34\n      jumpi\n      dup1\n      0x1f\n      lt\n      tag_35\n      jumpi\n      0x0100\n      dup1\n      dup4\n      sload\n      div\n      mul\n      dup4\n      mstore\n      swap2\n      0x20\n      add\n      swap2\n      jump(tag_34)\n    tag_35:\n      dup3\n      add\n      swap2\n      swap1\n      0x00\n      mstore\n      keccak256(0x00, 0x20)\n      swap1\n    tag_36:\n      dup2\n      sload\n      dup2\n      mstore\n      swap1\n      0x01\n      add\n      swap1\n      0x20\n      add\n      dup1\n      dup4\n      gt\n      tag_36\n      jumpi\n      dup3\n      swap1\n      sub\n      0x1f\n      and\n      dup3\n      add\n      swap2\n    tag_34:\n      pop\n      pop\n      pop\n      pop\n      pop\n      swap1\n      pop\n        /* \"contracts/StringDataType.sol\":142:232  function getString() public view returns(string memory) {... */\n      swap1\n      jump\t// out\n        /* \"contracts/StringDataType.sol\":330:431  function getStringLength() public view returns(uint) {... */\n    tag_19:\n        /* \"contracts/StringDataType.sol\":377:381  uint */\n      0x00\n        /* \"contracts/StringDataType.sol\":407:415  myString */\n      dup1\n        /* \"contracts/StringDataType.sol\":401:423  bytes(myString).length */\n      dup1\n      sload\n      tag_38\n      swap1\n      tag_23\n      jump\t// in\n    tag_38:\n      swap1\n      pop\n        /* \"contracts/StringDataType.sol\":394:423  return bytes(myString).length */\n      swap1\n      pop\n        /* \"contracts/StringDataType.sol\":330:431  function getStringLength() public view returns(uint) {... */\n      swap1\n      jump\t// out\n        /* \"#utility.yul\":7:106   */\n    tag_39:\n        /* \"#utility.yul\":59:65   */\n      0x00\n        /* \"#utility.yul\":93:98   */\n      dup2\n        /* \"#utility.yul\":87:99   */\n      mload\n        /* \"#utility.yul\":77:99   */\n      swap1\n      pop\n        /* \"#utility.yul\":7:106   */\n      swap2\n      swap1\n      pop\n      jump\t// out\n        /* \"#utility.yul\":112:281   */\n    tag_40:\n        /* \"#utility.yul\":196:207   */\n      0x00\n        /* \"#utility.yul\":230:236   */\n      dup3\n        /* \"#utility.yul\":225:228   */\n      dup3\n        /* \"#utility.yul\":218:237   */\n      mstore\n        /* \"#utility.yul\":270:274   */\n      0x20\n        /* \"#utility.yul\":265:268   */\n      dup3\n        /* \"#utility.yul\":261:275   */\n      add\n        /* \"#utility.yul\":246:275   */\n      swap1\n      pop\n        /* \"#utility.yul\":112:281   */\n      swap3\n      swap2\n      pop\n      pop\n      jump\t// out\n        /* \"#utility.yul\":287:426   */\n    tag_41:\n        /* \"#utility.yul\":376:382   */\n      dup3\n        /* \"#utility.yul\":371:374   */\n      dup2\n        /* \"#utility.yul\":366:369   */\n      dup4\n        /* \"#utility.yul\":360:383   */\n      mcopy\n        /* \"#utility.yul\":417:418   */\n      0x00\n        /* \"#utility.yul\":408:414   */\n      dup4\n        /* \"#utility.yul\":403:406   */\n      dup4\n        /* \"#utility.yul\":399:415   */\n      add\n        /* \"#utility.yul\":392:419   */\n      mstore\n        /* \"#utility.yul\":287:426   */\n      pop\n      pop\n      pop\n      jump\t// out\n        /* \"#utility.yul\":432:534   */\n    tag_42:\n        /* \"#utility.yul\":473:479   */\n      0x00\n        /* \"#utility.yul\":524:526   */\n      0x1f\n        /* \"#utility.yul\":520:527   */\n      not\n        /* \"#utility.yul\":515:517   */\n      0x1f\n        /* \"#utility.yul\":508:513   */\n      dup4\n        /* \"#utility.yul\":504:518   */\n      add\n        /* \"#utility.yul\":500:528   */\n      and\n        /* \"#utility.yul\":490:528   */\n      swap1\n      pop\n        /* \"#utility.yul\":432:534   */\n      swap2\n      swap1\n      pop\n      jump\t// out\n        /* \"#utility.yul\":540:917   */\n    tag_43:\n        /* \"#utility.yul\":628:631   */\n      0x00\n        /* \"#utility.yul\":656:695   */\n      tag_80\n        /* \"#utility.yul\":689:694   */\n      dup3\n        /* \"#utility.yul\":656:695   */\n      tag_39\n      jump\t// in\n    tag_80:\n        /* \"#utility.yul\":711:782   */\n      tag_81\n        /* \"#utility.yul\":775:781   */\n      dup2\n        /* \"#utility.yul\":770:773   */\n      dup6\n        /* \"#utility.yul\":711:782   */\n      tag_40\n      jump\t// in\n    tag_81:\n        /* \"#utility.yul\":704:782   */\n      swap4\n      pop\n        /* \"#utility.yul\":791:856   */\n      tag_82\n        /* \"#utility.yul\":849:855   */\n      dup2\n        /* \"#utility.yul\":844:847   */\n      dup6\n        /* \"#utility.yul\":837:841   */\n      0x20\n        /* \"#utility.yul\":830:835   */\n      dup7\n        /* \"#utility.yul\":826:842   */\n      add\n        /* \"#utility.yul\":791:856   */\n      tag_41\n      jump\t// in\n    tag_82:\n        /* \"#utility.yul\":881:910   */\n      tag_83\n        /* \"#utility.yul\":903:909   */\n      dup2\n        /* \"#utility.yul\":881:910   */\n      tag_42\n      jump\t// in\n    tag_83:\n        /* \"#utility.yul\":876:879   */\n      dup5\n        /* \"#utility.yul\":872:911   */\n      add\n        /* \"#utility.yul\":865:911   */\n      swap2\n      pop\n        /* \"#utility.yul\":632:917   */\n      pop\n        /* \"#utility.yul\":540:917   */\n      swap3\n      swap2\n      pop\n      pop\n      jump\t// out\n        /* \"#utility.yul\":923:1236   */\n    tag_10:\n        /* \"#utility.yul\":1036:1040   */\n      0x00\n        /* \"#utility.yul\":1074:1076   */\n      0x20\n        /* \"#utility.yul\":1063:1072   */\n      dup3\n        /* \"#utility.yul\":1059:1077   */\n      add\n        /* \"#utility.yul\":1051:1077   */\n      swap1\n      pop\n        /* \"#utility.yul\":1123:1132   */\n      dup2\n        /* \"#utility.yul\":1117:1121   */\n      dup2\n        /* \"#utility.yul\":1113:1133   */\n      sub\n        /* \"#utility.yul\":1109:1110   */\n      0x00\n        /* \"#utility.yul\":1098:1107   */\n      dup4\n        /* \"#utility.yul\":1094:1111   */\n      add\n        /* \"#utility.yul\":1087:1134   */\n      mstore\n        /* \"#utility.yul\":1151:1229   */\n      tag_85\n        /* \"#utility.yul\":1224:1228   */\n      dup2\n        /* \"#utility.yul\":1215:1221   */\n      dup5\n        /* \"#utility.yul\":1151:1229   */\n      tag_43\n      jump\t// in\n    tag_85:\n        /* \"#utility.yul\":1143:1229   */\n      swap1\n      pop\n        /* \"#utility.yul\":923:1236   */\n      swap3\n      swap2\n      pop\n      pop\n      jump\t// out\n        /* \"#utility.yul\":1242:1317   */\n    tag_44:\n        /* \"#utility.yul\":1275:1281   */\n      0x00\n        /* \"#utility.yul\":1308:1310   */\n      0x40\n        /* \"#utility.yul\":1302:1311   */\n      mload\n        /* \"#utility.yul\":1292:1311   */\n      swap1\n      pop\n        /* \"#utility.yul\":1242:1317   */\n      swap1\n      jump\t// out\n        /* \"#utility.yul\":1323:1440   */\n    tag_45:\n        /* \"#utility.yul\":1432:1433   */\n      0x00\n        /* \"#utility.yul\":1429:1430   */\n      dup1\n        /* \"#utility.yul\":1422:1434   */\n      revert\n        /* \"#utility.yul\":1446:1563   */\n    tag_46:\n        /* \"#utility.yul\":1555:1556   */\n      0x00\n        /* \"#utility.yul\":1552:1553   */\n      dup1\n        /* \"#utility.yul\":1545:1557   */\n      revert\n        /* \"#utility.yul\":1569:1686   */\n    tag_47:\n        /* \"#utility.yul\":1678:1679   */\n      0x00\n        /* \"#utility.yul\":1675:1676   */\n      dup1\n        /* \"#utility.yul\":1668:1680   */\n      revert\n        /* \"#utility.yul\":1692:1809   */\n    tag_48:\n        /* \"#utility.yul\":1801:1802   */\n      0x00\n        /* \"#utility.yul\":1798:1799   */\n      dup1\n        /* \"#utility.yul\":1791:1803   */\n      revert\n        /* \"#utility.yul\":1815:1995   */\n    tag_49:\n        /* \"#utility.yul\":1863:1940   */\n      0x4e487b7100000000000000000000000000000000000000000000000000000000\n        /* \"#utility.yul\":1860:1861   */\n      0x00\n        /* \"#utility.yul\":1853:1941   */\n      mstore\n        /* \"#utility.yul\":1960:1964   */\n      0x41\n        /* \"#utility.yul\":1957:1958   */\n      0x04\n        /* \"#utility.yul\":1950:1965   */\n      mstore\n        /* \"#utility.yul\":1984:1988   */\n      0x24\n        /* \"#utility.yul\":1981:1982   */\n      0x00\n        /* \"#utility.yul\":1974:1989   */\n      revert\n        /* \"#utility.yul\":2001:2282   */\n    tag_50:\n        /* \"#utility.yul\":2084:2111   */\n      tag_93\n        /* \"#utility.yul\":2106:2110   */\n      dup3\n        /* \"#utility.yul\":2084:2111   */\n      tag_42\n      jump\t// in\n    tag_93:\n        /* \"#utility.yul\":2076:2082   */\n      dup2\n        /* \"#utility.yul\":2072:2112   */\n      add\n        /* \"#utility.yul\":2214:2220   */\n      dup2\n        /* \"#utility.yul\":2202:2212   */\n      dup2\n        /* \"#utility.yul\":2199:2221   */\n      lt\n        /* \"#utility.yul\":2178:2196   */\n      0xffffffffffffffff\n        /* \"#utility.yul\":2166:2176   */\n      dup3\n        /* \"#utility.yul\":2163:2197   */\n      gt\n        /* \"#utility.yul\":2160:2222   */\n      or\n        /* \"#utility.yul\":2157:2245   */\n      iszero\n      tag_94\n      jumpi\n        /* \"#utility.yul\":2225:2243   */\n      tag_95\n      tag_49\n      jump\t// in\n    tag_95:\n        /* \"#utility.yul\":2157:2245   */\n    tag_94:\n        /* \"#utility.yul\":2265:2275   */\n      dup1\n        /* \"#utility.yul\":2261:2263   */\n      0x40\n        /* \"#utility.yul\":2254:2276   */\n      mstore\n        /* \"#utility.yul\":2044:2282   */\n      pop\n        /* \"#utility.yul\":2001:2282   */\n      pop\n      pop\n      jump\t// out\n        /* \"#utility.yul\":2288:2417   */\n    tag_51:\n        /* \"#utility.yul\":2322:2328   */\n      0x00\n        /* \"#utility.yul\":2349:2369   */\n      tag_97\n      tag_44\n      jump\t// in\n    tag_97:\n        /* \"#utility.yul\":2339:2369   */\n      swap1\n      pop\n        /* \"#utility.yul\":2378:2411   */\n      tag_98\n        /* \"#utility.yul\":2406:2410   */\n      dup3\n        /* \"#utility.yul\":2398:2404   */\n      dup3\n        /* \"#utility.yul\":2378:2411   */\n      tag_50\n      jump\t// in\n    tag_98:\n        /* \"#utility.yul\":2288:2417   */\n      swap2\n      swap1\n      pop\n      jump\t// out\n        /* \"#utility.yul\":2423:2731   */\n    tag_52:\n        /* \"#utility.yul\":2485:2489   */\n      0x00\n        /* \"#utility.yul\":2575:2593   */\n      0xffffffffffffffff\n        /* \"#utility.yul\":2567:2573   */\n      dup3\n        /* \"#utility.yul\":2564:2594   */\n      gt\n        /* \"#utility.yul\":2561:2617   */\n      iszero\n      tag_100\n      jumpi\n        /* \"#utility.yul\":2597:2615   */\n      tag_101\n      tag_49\n      jump\t// in\n    tag_101:\n        /* \"#utility.yul\":2561:2617   */\n    tag_100:\n        /* \"#utility.yul\":2635:2664   */\n      tag_102\n        /* \"#utility.yul\":2657:2663   */\n      dup3\n        /* \"#utility.yul\":2635:2664   */\n      tag_42\n      jump\t// in\n    tag_102:\n        /* \"#utility.yul\":2627:2664   */\n      swap1\n      pop\n        /* \"#utility.yul\":2719:2723   */\n      0x20\n        /* \"#utility.yul\":2713:2717   */\n      dup2\n        /* \"#utility.yul\":2709:2724   */\n      add\n        /* \"#utility.yul\":2701:2724   */\n      swap1\n      pop\n        /* \"#utility.yul\":2423:2731   */\n      swap2\n      swap1\n      pop\n      jump\t// out\n        /* \"#utility.yul\":2737:2885   */\n    tag_53:\n        /* \"#utility.yul\":2835:2841   */\n      dup3\n        /* \"#utility.yul\":2830:2833   */\n      dup2\n        /* \"#utility.yul\":2825:2828   */\n      dup4\n        /* \"#utility.yul\":2812:2842   */\n      calldatacopy\n        /* \"#utility.yul\":2876:2877   */\n      0x00\n        /* \"#utility.yul\":2867:2873   */\n      dup4\n        /* \"#utility.yul\":2862:2865   */\n      dup4\n        /* \"#utility.yul\":2858:2874   */\n      add\n        /* \"#utility.yul\":2851:2878   */\n      mstore\n        /* \"#utility.yul\":2737:2885   */\n      pop\n      pop\n      pop\n      jump\t// out\n        /* \"#utility.yul\":2891:3316   */\n    tag_54:\n        /* \"#utility.yul\":2969:2974   */\n      0x00\n        /* \"#utility.yul\":2994:3060   */\n      tag_105\n        /* \"#utility.yul\":3010:3059   */\n      tag_106\n        /* \"#utility.yul\":3052:3058   */\n      dup5\n        /* \"#utility.yul\":3010:3059   */\n      tag_52\n      jump\t// in\n    tag_106:\n        /* \"#utility.yul\":2994:3060   */\n      tag_51\n      jump\t// in\n    tag_105:\n        /* \"#utility.yul\":2985:3060   */\n      swap1\n      pop\n        /* \"#utility.yul\":3083:3089   */\n      dup3\n        /* \"#utility.yul\":3076:3081   */\n      dup2\n        /* \"#utility.yul\":3069:3090   */\n      mstore\n        /* \"#utility.yul\":3121:3125   */\n      0x20\n        /* \"#utility.yul\":3114:3119   */\n      dup2\n        /* \"#utility.yul\":3110:3126   */\n      add\n        /* \"#utility.yul\":3159:3162   */\n      dup5\n        /* \"#utility.yul\":3150:3156   */\n      dup5\n        /* \"#utility.yul\":3145:3148   */\n      dup5\n        /* \"#utility.yul\":3141:3157   */\n      add\n        /* \"#utility.yul\":3138:3163   */\n      gt\n        /* \"#utility.yul\":3135:3247   */\n      iszero\n      tag_107\n      jumpi\n        /* \"#utility.yul\":3166:3245   */\n      tag_108\n      tag_48\n      jump\t// in\n    tag_108:\n        /* \"#utility.yul\":3135:3247   */\n    tag_107:\n        /* \"#utility.yul\":3256:3310   */\n      tag_109\n        /* \"#utility.yul\":3303:3309   */\n      dup5\n        /* \"#utility.yul\":3298:3301   */\n      dup3\n        /* \"#utility.yul\":3293:3296   */\n      dup6\n        /* \"#utility.yul\":3256:3310   */\n      tag_53\n      jump\t// in\n    tag_109:\n        /* \"#utility.yul\":2975:3316   */\n      pop\n        /* \"#utility.yul\":2891:3316   */\n      swap4\n      swap3\n      pop\n      pop\n      pop\n      jump\t// out\n        /* \"#utility.yul\":3336:3676   */\n    tag_55:\n        /* \"#utility.yul\":3392:3397   */\n      0x00\n        /* \"#utility.yul\":3441:3444   */\n      dup3\n        /* \"#utility.yul\":3434:3438   */\n      0x1f\n        /* \"#utility.yul\":3426:3432   */\n      dup4\n        /* \"#utility.yul\":3422:3439   */\n      add\n        /* \"#utility.yul\":3418:3445   */\n      slt\n        /* \"#utility.yul\":3408:3530   */\n      tag_111\n      jumpi\n        /* \"#utility.yul\":3449:3528   */\n      tag_112\n      tag_47\n      jump\t// in\n    tag_112:\n        /* \"#utility.yul\":3408:3530   */\n    tag_111:\n        /* \"#utility.yul\":3566:3572   */\n      dup2\n        /* \"#utility.yul\":3553:3573   */\n      calldataload\n        /* \"#utility.yul\":3591:3670   */\n      tag_113\n        /* \"#utility.yul\":3666:3669   */\n      dup5\n        /* \"#utility.yul\":3658:3664   */\n      dup3\n        /* \"#utility.yul\":3651:3655   */\n      0x20\n        /* \"#utility.yul\":3643:3649   */\n      dup7\n        /* \"#utility.yul\":3639:3656   */\n      add\n        /* \"#utility.yul\":3591:3670   */\n      tag_54\n      jump\t// in\n    tag_113:\n        /* \"#utility.yul\":3582:3670   */\n      swap2\n      pop\n        /* \"#utility.yul\":3398:3676   */\n      pop\n        /* \"#utility.yul\":3336:3676   */\n      swap3\n      swap2\n      pop\n      pop\n      jump\t// out\n        /* \"#utility.yul\":3682:4191   */\n    tag_13:\n        /* \"#utility.yul\":3751:3757   */\n      0x00\n        /* \"#utility.yul\":3800:3802   */\n      0x20\n        /* \"#utility.yul\":3788:3797   */\n      dup3\n        /* \"#utility.yul\":3779:3786   */\n      dup5\n        /* \"#utility.yul\":3775:3798   */\n      sub\n        /* \"#utility.yul\":3771:3803   */\n      slt\n        /* \"#utility.yul\":3768:3887   */\n      iszero\n      tag_115\n      jumpi\n        /* \"#utility.yul\":3806:3885   */\n      tag_116\n      tag_45\n      jump\t// in\n    tag_116:\n        /* \"#utility.yul\":3768:3887   */\n    tag_115:\n        /* \"#utility.yul\":3954:3955   */\n      0x00\n        /* \"#utility.yul\":3943:3952   */\n      dup3\n        /* \"#utility.yul\":3939:3956   */\n      add\n        /* \"#utility.yul\":3926:3957   */\n      calldataload\n        /* \"#utility.yul\":3984:4002   */\n      0xffffffffffffffff\n        /* \"#utility.yul\":3976:3982   */\n      dup2\n        /* \"#utility.yul\":3973:4003   */\n      gt\n        /* \"#utility.yul\":3970:4087   */\n      iszero\n      tag_117\n      jumpi\n        /* \"#utility.yul\":4006:4085   */\n      tag_118\n      tag_46\n      jump\t// in\n    tag_118:\n        /* \"#utility.yul\":3970:4087   */\n    tag_117:\n        /* \"#utility.yul\":4111:4174   */\n      tag_119\n        /* \"#utility.yul\":4166:4173   */\n      dup5\n        /* \"#utility.yul\":4157:4163   */\n      dup3\n        /* \"#utility.yul\":4146:4155   */\n      dup6\n        /* \"#utility.yul\":4142:4164   */\n      add\n        /* \"#utility.yul\":4111:4174   */\n      tag_55\n      jump\t// in\n    tag_119:\n        /* \"#utility.yul\":4101:4174   */\n      swap2\n      pop\n        /* \"#utility.yul\":3897:4184   */\n      pop\n        /* \"#utility.yul\":3682:4191   */\n      swap3\n      swap2\n      pop\n      pop\n      jump\t// out\n        /* \"#utility.yul\":4197:4274   */\n    tag_56:\n        /* \"#utility.yul\":4234:4241   */\n      0x00\n        /* \"#utility.yul\":4263:4268   */\n      dup2\n        /* \"#utility.yul\":4252:4268   */\n      swap1\n      pop\n        /* \"#utility.yul\":4197:4274   */\n      swap2\n      swap1\n      pop\n      jump\t// out\n        /* \"#utility.yul\":4280:4398   */\n    tag_57:\n        /* \"#utility.yul\":4367:4391   */\n      tag_122\n        /* \"#utility.yul\":4385:4390   */\n      dup2\n        /* \"#utility.yul\":4367:4391   */\n      tag_56\n      jump\t// in\n    tag_122:\n        /* \"#utility.yul\":4362:4365   */\n      dup3\n        /* \"#utility.yul\":4355:4392   */\n      mstore\n        /* \"#utility.yul\":4280:4398   */\n      pop\n      pop\n      jump\t// out\n        /* \"#utility.yul\":4404:4626   */\n    tag_21:\n        /* \"#utility.yul\":4497:4501   */\n      0x00\n        /* \"#utility.yul\":4535:4537   */\n      0x20\n        /* \"#utility.yul\":4524:4533   */\n      dup3\n        /* \"#utility.yul\":4520:4538   */\n      add\n        /* \"#utility.yul\":4512:4538   */\n      swap1\n      pop\n        /* \"#utility.yul\":4548:4619   */\n      tag_124\n        /* \"#utility.yul\":4616:4617   */\n      0x00\n        /* \"#utility.yul\":4605:4614   */\n      dup4\n        /* \"#utility.yul\":4601:4618   */\n      add\n        /* \"#utility.yul\":4592:4598   */\n      dup5\n        /* \"#utility.yul\":4548:4619   */\n      tag_57\n      jump\t// in\n    tag_124:\n        /* \"#utility.yul\":4404:4626   */\n      swap3\n      swap2\n      pop\n      pop\n      jump\t// out\n        /* \"#utility.yul\":4632:4812   */\n    tag_58:\n        /* \"#utility.yul\":4680:4757   */\n      0x4e487b7100000000000000000000000000000000000000000000000000000000\n        /* \"#utility.yul\":4677:4678   */\n      0x00\n        /* \"#utility.yul\":4670:4758   */\n      mstore\n        /* \"#utility.yul\":4777:4781   */\n      0x22\n        /* \"#utility.yul\":4774:4775   */\n      0x04\n        /* \"#utility.yul\":4767:4782   */\n      mstore\n        /* \"#utility.yul\":4801:4805   */\n      0x24\n        /* \"#utility.yul\":4798:4799   */\n      0x00\n        /* \"#utility.yul\":4791:4806   */\n      revert\n        /* \"#utility.yul\":4818:5138   */\n    tag_23:\n        /* \"#utility.yul\":4862:4868   */\n      0x00\n        /* \"#utility.yul\":4899:4900   */\n      0x02\n        /* \"#utility.yul\":4893:4897   */\n      dup3\n        /* \"#utility.yul\":4889:4901   */\n      div\n        /* \"#utility.yul\":4879:4901   */\n      swap1\n      pop\n        /* \"#utility.yul\":4946:4947   */\n      0x01\n        /* \"#utility.yul\":4940:4944   */\n      dup3\n        /* \"#utility.yul\":4936:4948   */\n      and\n        /* \"#utility.yul\":4967:4985   */\n      dup1\n        /* \"#utility.yul\":4957:5038   */\n      tag_127\n      jumpi\n        /* \"#utility.yul\":5023:5027   */\n      0x7f\n        /* \"#utility.yul\":5015:5021   */\n      dup3\n        /* \"#utility.yul\":5011:5028   */\n      and\n        /* \"#utility.yul\":5001:5028   */\n      swap2\n      pop\n        /* \"#utility.yul\":4957:5038   */\n    tag_127:\n        /* \"#utility.yul\":5085:5087   */\n      0x20\n        /* \"#utility.yul\":5077:5083   */\n      dup3\n        /* \"#utility.yul\":5074:5088   */\n      lt\n        /* \"#utility.yul\":5054:5072   */\n      dup2\n        /* \"#utility.yul\":5051:5089   */\n      sub\n        /* \"#utility.yul\":5048:5132   */\n      tag_128\n      jumpi\n        /* \"#utility.yul\":5104:5122   */\n      tag_129\n      tag_58\n      jump\t// in\n    tag_129:\n        /* \"#utility.yul\":5048:5132   */\n    tag_128:\n        /* \"#utility.yul\":4869:5138   */\n      pop\n        /* \"#utility.yul\":4818:5138   */\n      swap2\n      swap1\n      pop\n      jump\t// out\n        /* \"#utility.yul\":5144:5285   */\n    tag_59:\n        /* \"#utility.yul\":5193:5197   */\n      0x00\n        /* \"#utility.yul\":5216:5219   */\n      dup2\n        /* \"#utility.yul\":5208:5219   */\n      swap1\n      pop\n        /* \"#utility.yul\":5239:5242   */\n      dup2\n        /* \"#utility.yul\":5236:5237   */\n      0x00\n        /* \"#utility.yul\":5229:5243   */\n      mstore\n        /* \"#utility.yul\":5273:5277   */\n      0x20\n        /* \"#utility.yul\":5270:5271   */\n      0x00\n        /* \"#utility.yul\":5260:5278   */\n      keccak256\n        /* \"#utility.yul\":5252:5278   */\n      swap1\n      pop\n        /* \"#utility.yul\":5144:5285   */\n      swap2\n      swap1\n      pop\n      jump\t// out\n        /* \"#utility.yul\":5291:5384   */\n    tag_60:\n        /* \"#utility.yul\":5328:5334   */\n      0x00\n        /* \"#utility.yul\":5375:5377   */\n      0x20\n        /* \"#utility.yul\":5370:5372   */\n      0x1f\n        /* \"#utility.yul\":5363:5368   */\n      dup4\n        /* \"#utility.yul\":5359:5373   */\n      add\n        /* \"#utility.yul\":5355:5378   */\n      div\n        /* \"#utility.yul\":5345:5378   */\n      swap1\n      pop\n        /* \"#utility.yul\":5291:5384   */\n      swap2\n      swap1\n      pop\n      jump\t// out\n        /* \"#utility.yul\":5390:5497   */\n    tag_61:\n        /* \"#utility.yul\":5434:5442   */\n      0x00\n        /* \"#utility.yul\":5484:5489   */\n      dup3\n        /* \"#utility.yul\":5478:5482   */\n      dup3\n        /* \"#utility.yul\":5474:5490   */\n      shl\n        /* \"#utility.yul\":5453:5490   */\n      swap1\n      pop\n        /* \"#utility.yul\":5390:5497   */\n      swap3\n      swap2\n      pop\n      pop\n      jump\t// out\n        /* \"#utility.yul\":5503:5896   */\n    tag_62:\n        /* \"#utility.yul\":5572:5578   */\n      0x00\n        /* \"#utility.yul\":5622:5623   */\n      0x08\n        /* \"#utility.yul\":5610:5620   */\n      dup4\n        /* \"#utility.yul\":5606:5624   */\n      mul\n        /* \"#utility.yul\":5645:5742   */\n      tag_134\n        /* \"#utility.yul\":5675:5741   */\n      0xffffffffffffffffffffffffffffffffffffffffffffffffffffffffffffffff\n        /* \"#utility.yul\":5664:5673   */\n      dup3\n        /* \"#utility.yul\":5645:5742   */\n      tag_61\n      jump\t// in\n    tag_134:\n        /* \"#utility.yul\":5763:5802   */\n      tag_135\n        /* \"#utility.yul\":5793:5801   */\n      dup7\n        /* \"#utility.yul\":5782:5791   */\n      dup4\n        /* \"#utility.yul\":5763:5802   */\n      tag_61\n      jump\t// in\n    tag_135:\n        /* \"#utility.yul\":5751:5802   */\n      swap6\n      pop\n        /* \"#utility.yul\":5835:5839   */\n      dup1\n        /* \"#utility.yul\":5831:5840   */\n      not\n        /* \"#utility.yul\":5824:5829   */\n      dup5\n        /* \"#utility.yul\":5820:5841   */\n      and\n        /* \"#utility.yul\":5811:5841   */\n      swap4\n      pop\n        /* \"#utility.yul\":5884:5888   */\n      dup1\n        /* \"#utility.yul\":5874:5882   */\n      dup7\n        /* \"#utility.yul\":5870:5889   */\n      and\n        /* \"#utility.yul\":5863:5868   */\n      dup5\n        /* \"#utility.yul\":5860:5890   */\n      or\n        /* \"#utility.yul\":5850:5890   */\n      swap3\n      pop\n        /* \"#utility.yul\":5579:5896   */\n      pop\n      pop\n        /* \"#utility.yul\":5503:5896   */\n      swap4\n      swap3\n      pop\n      pop\n      pop\n      jump\t// out\n        /* \"#utility.yul\":5902:5962   */\n    tag_63:\n        /* \"#utility.yul\":5930:5933   */\n      0x00\n        /* \"#utility.yul\":5951:5956   */\n      dup2\n        /* \"#utility.yul\":5944:5956   */\n      swap1\n      pop\n        /* \"#utility.yul\":5902:5962   */\n      swap2\n      swap1\n      pop\n      jump\t// out\n        /* \"#utility.yul\":5968:6110   */\n    tag_64:\n        /* \"#utility.yul\":6018:6027   */\n      0x00\n        /* \"#utility.yul\":6051:6104   */\n      tag_138\n        /* \"#utility.yul\":6069:6103   */\n      tag_139\n        /* \"#utility.yul\":6078:6102   */\n      tag_140\n        /* \"#utility.yul\":6096:6101   */\n      dup5\n        /* \"#utility.yul\":6078:6102   */\n      tag_56\n      jump\t// in\n    tag_140:\n        /* \"#utility.yul\":6069:6103   */\n      tag_63\n      jump\t// in\n    tag_139:\n        /* \"#utility.yul\":6051:6104   */\n      tag_56\n      jump\t// in\n    tag_138:\n        /* \"#utility.yul\":6038:6104   */\n      swap1\n      pop\n        /* \"#utility.yul\":5968:6110   */\n      swap2\n      swap1\n      pop\n      jump\t// out\n        /* \"#utility.yul\":6116:6191   */\n    tag_65:\n        /* \"#utility.yul\":6159:6162   */\n      0x00\n        /* \"#utility.yul\":6180:6185   */\n      dup2\n        /* \"#utility.yul\":6173:6185   */\n      swap1\n      pop\n        /* \"#utility.yul\":6116:6191   */\n      swap2\n      swap1\n      pop\n      jump\t// out\n        /* \"#utility.yul\":6197:6466   */\n    tag_66:\n        /* \"#utility.yul\":6307:6346   */\n      tag_143\n        /* \"#utility.yul\":6338:6345   */\n      dup4\n        /* \"#utility.yul\":6307:6346   */\n      tag_64\n      jump\t// in\n    tag_143:\n        /* \"#utility.yul\":6368:6459   */\n      tag_144\n        /* \"#utility.yul\":6417:6458   */\n      tag_145\n        /* \"#utility.yul\":6441:6457   */\n      dup3\n        /* \"#utility.yul\":6417:6458   */\n      tag_65\n      jump\t// in\n    tag_145:\n        /* \"#utility.yul\":6409:6415   */\n      dup5\n        /* \"#utility.yul\":6402:6406   */\n      dup5\n        /* \"#utility.yul\":6396:6407   */\n      sload\n        /* \"#utility.yul\":6368:6459   */\n      tag_62\n      jump\t// in\n    tag_144:\n        /* \"#utility.yul\":6362:6366   */\n      dup3\n        /* \"#utility.yul\":6355:6460   */\n      sstore\n        /* \"#utility.yul\":6273:6466   */\n      pop\n        /* \"#utility.yul\":6197:6466   */\n      pop\n      pop\n      pop\n      jump\t// out\n        /* \"#utility.yul\":6472:6545   */\n    tag_67:\n        /* \"#utility.yul\":6517:6520   */\n      0x00\n        /* \"#utility.yul\":6472:6545   */\n      swap1\n      jump\t// out\n        /* \"#utility.yul\":6551:6740   */\n    tag_68:\n        /* \"#utility.yul\":6628:6660   */\n      tag_148\n      tag_67\n      jump\t// in\n    tag_148:\n        /* \"#utility.yul\":6669:6734   */\n      tag_149\n        /* \"#utility.yul\":6727:6733   */\n      dup2\n        /* \"#utility.yul\":6719:6725   */\n      dup5\n        /* \"#utility.yul\":6713:6717   */\n      dup5\n        /* \"#utility.yul\":6669:6734   */\n      tag_66\n      jump\t// in\n    tag_149:\n        /* \"#utility.yul\":6604:6740   */\n      pop\n        /* \"#utility.yul\":6551:6740   */\n      pop\n      pop\n      jump\t// out\n        /* \"#utility.yul\":6746:6932   */\n    tag_69:\n        /* \"#utility.yul\":6806:6926   */\n    tag_151:\n        /* \"#utility.yul\":6823:6826   */\n      dup2\n        /* \"#utility.yul\":6816:6821   */\n      dup2\n        /* \"#utility.yul\":6813:6827   */\n      lt\n        /* \"#utility.yul\":6806:6926   */\n      iszero\n      tag_153\n      jumpi\n        /* \"#utility.yul\":6877:6916   */\n      tag_154\n        /* \"#utility.yul\":6914:6915   */\n      0x00\n        /* \"#utility.yul\":6907:6912   */\n      dup3\n        /* \"#utility.yul\":6877:6916   */\n      tag_68\n      jump\t// in\n    tag_154:\n        /* \"#utility.yul\":6850:6851   */\n      0x01\n        /* \"#utility.yul\":6843:6848   */\n      dup2\n        /* \"#utility.yul\":6839:6852   */\n      add\n        /* \"#utility.yul\":6830:6852   */\n      swap1\n      pop\n        /* \"#utility.yul\":6806:6926   */\n      jump(tag_151)\n    tag_153:\n        /* \"#utility.yul\":6746:6932   */\n      pop\n      pop\n      jump\t// out\n        /* \"#utility.yul\":6938:7481   */\n    tag_70:\n        /* \"#utility.yul\":7039:7041   */\n      0x1f\n        /* \"#utility.yul\":7034:7037   */\n      dup3\n        /* \"#utility.yul\":7031:7042   */\n      gt\n        /* \"#utility.yul\":7028:7474   */\n      iszero\n      tag_156\n      jumpi\n        /* \"#utility.yul\":7073:7111   */\n      tag_157\n        /* \"#utility.yul\":7105:7110   */\n      dup2\n        /* \"#utility.yul\":7073:7111   */\n      tag_59\n      jump\t// in\n    tag_157:\n        /* \"#utility.yul\":7157:7186   */\n      tag_158\n        /* \"#utility.yul\":7175:7185   */\n      dup5\n        /* \"#utility.yul\":7157:7186   */\n      tag_60\n      jump\t// in\n    tag_158:\n        /* \"#utility.yul\":7147:7155   */\n      dup2\n        /* \"#utility.yul\":7143:7187   */\n      add\n        /* \"#utility.yul\":7340:7342   */\n      0x20\n        /* \"#utility.yul\":7328:7338   */\n      dup6\n        /* \"#utility.yul\":7325:7343   */\n      lt\n        /* \"#utility.yul\":7322:7371   */\n      iszero\n      tag_159\n      jumpi\n        /* \"#utility.yul\":7361:7369   */\n      dup2\n        /* \"#utility.yul\":7346:7369   */\n      swap1\n      pop\n        /* \"#utility.yul\":7322:7371   */\n    tag_159:\n        /* \"#utility.yul\":7384:7464   */\n      tag_160\n        /* \"#utility.yul\":7440:7462   */\n      tag_161\n        /* \"#utility.yul\":7458:7461   */\n      dup6\n        /* \"#utility.yul\":7440:7462   */\n      tag_60\n      jump\t// in\n    tag_161:\n        /* \"#utility.yul\":7430:7438   */\n      dup4\n        /* \"#utility.yul\":7426:7463   */\n      add\n        /* \"#utility.yul\":7413:7424   */\n      dup3\n        /* \"#utility.yul\":7384:7464   */\n      tag_69\n      jump\t// in\n    tag_160:\n        /* \"#utility.yul\":7043:7474   */\n      pop\n      pop\n        /* \"#utility.yul\":7028:7474   */\n    tag_156:\n        /* \"#utility.yul\":6938:7481   */\n      pop\n      pop\n      pop\n      jump\t// out\n        /* \"#utility.yul\":7487:7604   */\n    tag_71:\n        /* \"#utility.yul\":7541:7549   */\n      0x00\n        /* \"#utility.yul\":7591:7596   */\n      dup3\n        /* \"#utility.yul\":7585:7589   */\n      dup3\n        /* \"#utility.yul\":7581:7597   */\n      shr\n        /* \"#utility.yul\":7560:7597   */\n      swap1\n      pop\n        /* \"#utility.yul\":7487:7604   */\n      swap3\n      swap2\n      pop\n      pop\n      jump\t// out\n        /* \"#utility.yul\":7610:7779   */\n    tag_72:\n        /* \"#utility.yul\":7654:7660   */\n      0x00\n        /* \"#utility.yul\":7687:7738   */\n      tag_164\n        /* \"#utility.yul\":7735:7736   */\n      0x00\n        /* \"#utility.yul\":7731:7737   */\n      not\n        /* \"#utility.yul\":7723:7728   */\n      dup5\n        /* \"#utility.yul\":7720:7721   */\n      0x08\n        /* \"#utility.yul\":7716:7729   */\n      mul\n        /* \"#utility.yul\":7687:7738   */\n      tag_71\n      jump\t// in\n    tag_164:\n        /* \"#utility.yul\":7683:7739   */\n      not\n        /* \"#utility.yul\":7768:7772   */\n      dup1\n        /* \"#utility.yul\":7762:7766   */\n      dup4\n        /* \"#utility.yul\":7758:7773   */\n      and\n        /* \"#utility.yul\":7748:7773   */\n      swap2\n      pop\n        /* \"#utility.yul\":7661:7779   */\n      pop\n        /* \"#utility.yul\":7610:7779   */\n      swap3\n      swap2\n      pop\n      pop\n      jump\t// out\n        /* \"#utility.yul\":7784:8079   */\n    tag_73:\n        /* \"#utility.yul\":7860:7864   */\n      0x00\n        /* \"#utility.yul\":8006:8035   */\n      tag_166\n        /* \"#utility.yul\":8031:8034   */\n      dup4\n        /* \"#utility.yul\":8025:8029   */\n      dup4\n        /* \"#utility.yul\":8006:8035   */\n      tag_72\n      jump\t// in\n    tag_166:\n        /* \"#utility.yul\":7998:8035   */\n      swap2\n      pop\n        /* \"#utility.yul\":8068:8071   */\n      dup3\n        /* \"#utility.yul\":8065:8066   */\n      0x02\n        /* \"#utility.yul\":8061:8072   */\n      mul\n        /* \"#utility.yul\":8055:8059   */\n      dup3\n        /* \"#utility.yul\":8052:8073   */\n      or\n        /* \"#utility.yul\":8044:8073   */\n      swap1\n      pop\n        /* \"#utility.yul\":7784:8079   */\n      swap3\n      swap2\n      pop\n      pop\n      jump\t// out\n        /* \"#utility.yul\":8084:9479   */\n    tag_30:\n        /* \"#utility.yul\":8201:8238   */\n      tag_168\n        /* \"#utility.yul\":8234:8237   */\n      dup3\n        /* \"#utility.yul\":8201:8238   */\n      tag_39\n      jump\t// in\n    tag_168:\n        /* \"#utility.yul\":8303:8321   */\n      0xffffffffffffffff\n        /* \"#utility.yul\":8295:8301   */\n      dup2\n        /* \"#utility.yul\":8292:8322   */\n      gt\n        /* \"#utility.yul\":8289:8345   */\n      iszero\n      tag_169\n      jumpi\n        /* \"#utility.yul\":8325:8343   */\n      tag_170\n      tag_49\n      jump\t// in\n    tag_170:\n        /* \"#utility.yul\":8289:8345   */\n    tag_169:\n        /* \"#utility.yul\":8369:8407   */\n      tag_171\n        /* \"#utility.yul\":8401:8405   */\n      dup3\n        /* \"#utility.yul\":8395:8406   */\n      sload\n        /* \"#utility.yul\":8369:8407   */\n      tag_23\n      jump\t// in\n    tag_171:\n        /* \"#utility.yul\":8454:8521   */\n      tag_172\n        /* \"#utility.yul\":8514:8520   */\n      dup3\n        /* \"#utility.yul\":8506:8512   */\n      dup3\n        /* \"#utility.yul\":8500:8504   */\n      dup6\n        /* \"#utility.yul\":8454:8521   */\n      tag_70\n      jump\t// in\n    tag_172:\n        /* \"#utility.yul\":8548:8549   */\n      0x00\n        /* \"#utility.yul\":8572:8576   */\n      0x20\n        /* \"#utility.yul\":8559:8576   */\n      swap1\n      pop\n        /* \"#utility.yul\":8604:8606   */\n      0x1f\n        /* \"#utility.yul\":8596:8602   */\n      dup4\n        /* \"#utility.yul\":8593:8607   */\n      gt\n        /* \"#utility.yul\":8621:8622   */\n      0x01\n        /* \"#utility.yul\":8616:9234   */\n      dup2\n      eq\n      tag_174\n      jumpi\n        /* \"#utility.yul\":9278:9279   */\n      0x00\n        /* \"#utility.yul\":9295:9301   */\n      dup5\n        /* \"#utility.yul\":9292:9369   */\n      iszero\n      tag_175\n      jumpi\n        /* \"#utility.yul\":9344:9353   */\n      dup3\n        /* \"#utility.yul\":9339:9342   */\n      dup8\n        /* \"#utility.yul\":9335:9354   */\n      add\n        /* \"#utility.yul\":9329:9355   */\n      mload\n        /* \"#utility.yul\":9320:9355   */\n      swap1\n      pop\n        /* \"#utility.yul\":9292:9369   */\n    tag_175:\n        /* \"#utility.yul\":9395:9462   */\n      tag_176\n        /* \"#utility.yul\":9455:9461   */\n      dup6\n        /* \"#utility.yul\":9448:9453   */\n      dup3\n        /* \"#utility.yul\":9395:9462   */\n      tag_73\n      jump\t// in\n    tag_176:\n        /* \"#utility.yul\":9389:9393   */\n      dup7\n        /* \"#utility.yul\":9382:9463   */\n      sstore\n        /* \"#utility.yul\":9251:9473   */\n      pop\n        /* \"#utility.yul\":8586:9473   */\n      jump(tag_173)\n        /* \"#utility.yul\":8616:9234   */\n    tag_174:\n        /* \"#utility.yul\":8668:8672   */\n      0x1f\n        /* \"#utility.yul\":8664:8673   */\n      not\n        /* \"#utility.yul\":8656:8662   */\n      dup5\n        /* \"#utility.yul\":8652:8674   */\n      and\n        /* \"#utility.yul\":8702:8739   */\n      tag_177\n        /* \"#utility.yul\":8734:8738   */\n      dup7\n        /* \"#utility.yul\":8702:8739   */\n      tag_59\n      jump\t// in\n    tag_177:\n        /* \"#utility.yul\":8761:8762   */\n      0x00\n        /* \"#utility.yul\":8775:8983   */\n    tag_178:\n        /* \"#utility.yul\":8789:8796   */\n      dup3\n        /* \"#utility.yul\":8786:8787   */\n      dup2\n        /* \"#utility.yul\":8783:8797   */\n      lt\n        /* \"#utility.yul\":8775:8983   */\n      iszero\n      tag_180\n      jumpi\n        /* \"#utility.yul\":8868:8877   */\n      dup5\n        /* \"#utility.yul\":8863:8866   */\n      dup10\n        /* \"#utility.yul\":8859:8878   */\n      add\n        /* \"#utility.yul\":8853:8879   */\n      mload\n        /* \"#utility.yul\":8845:8851   */\n      dup3\n        /* \"#utility.yul\":8838:8880   */\n      sstore\n        /* \"#utility.yul\":8919:8920   */\n      0x01\n        /* \"#utility.yul\":8911:8917   */\n      dup3\n        /* \"#utility.yul\":8907:8921   */\n      add\n        /* \"#utility.yul\":8897:8921   */\n      swap2\n      pop\n        /* \"#utility.yul\":8966:8968   */\n      0x20\n        /* \"#utility.yul\":8955:8964   */\n      dup6\n        /* \"#utility.yul\":8951:8969   */\n      add\n        /* \"#utility.yul\":8938:8969   */\n      swap5\n      pop\n        /* \"#utility.yul\":8812:8816   */\n      0x20\n        /* \"#utility.yul\":8809:8810   */\n      dup2\n        /* \"#utility.yul\":8805:8817   */\n      add\n        /* \"#utility.yul\":8800:8817   */\n      swap1\n      pop\n        /* \"#utility.yul\":8775:8983   */\n      jump(tag_178)\n    tag_180:\n        /* \"#utility.yul\":9011:9017   */\n      dup7\n        /* \"#utility.yul\":9002:9009   */\n      dup4\n        /* \"#utility.yul\":8999:9018   */\n      lt\n        /* \"#utility.yul\":8996:9175   */\n      iszero\n      tag_181\n      jumpi\n        /* \"#utility.yul\":9069:9078   */\n      dup5\n        /* \"#utility.yul\":9064:9067   */\n      dup10\n        /* \"#utility.yul\":9060:9079   */\n      add\n        /* \"#utility.yul\":9054:9080   */\n      mload\n        /* \"#utility.yul\":9112:9160   */\n      tag_182\n        /* \"#utility.yul\":9154:9158   */\n      0x1f\n        /* \"#utility.yul\":9146:9152   */\n      dup10\n        /* \"#utility.yul\":9142:9159   */\n      and\n        /* \"#utility.yul\":9131:9140   */\n      dup3\n        /* \"#utility.yul\":9112:9160   */\n      tag_72\n      jump\t// in\n    tag_182:\n        /* \"#utility.yul\":9104:9110   */\n      dup4\n        /* \"#utility.yul\":9097:9161   */\n      sstore\n        /* \"#utility.yul\":9019:9175   */\n      pop\n        /* \"#utility.yul\":8996:9175   */\n    tag_181:\n        /* \"#utility.yul\":9221:9222   */\n      0x01\n        /* \"#utility.yul\":9217:9218   */\n      0x02\n        /* \"#utility.yul\":9209:9215   */\n      dup9\n        /* \"#utility.yul\":9205:9219   */\n      mul\n        /* \"#utility.yul\":9201:9223   */\n      add\n        /* \"#utility.yul\":9195:9199   */\n      dup9\n        /* \"#utility.yul\":9188:9224   */\n      sstore\n        /* \"#utility.yul\":8623:9234   */\n      pop\n      pop\n      pop\n        /* \"#utility.yul\":8586:9473   */\n    tag_173:\n      pop\n        /* \"#utility.yul\":8176:9479   */\n      pop\n      pop\n      pop\n        /* \"#utility.yul\":8084:9479   */\n      pop\n      pop\n      jump\t// out\n\n    auxdata: 0xa2646970667358221220025654747f3f4a8355847e88989c4889737b316532bd4edf072be71e923b4dfe64736f6c634300081a0033\n}\n",
				"bytecode": {
					"linkReferences": {},
					"object": "6080604052348015600e575f80fd5b506107488061001c5f395ff3fe608060405234801561000f575f80fd5b506004361061004a575f3560e01c8063492bfa181461004e5780637fcaf6661461006c57806389ea642f14610088578063d1cfd048146100a6575b5f80fd5b6100566100c4565b6040516100639190610274565b60405180910390f35b610086600480360381019061008191906103d1565b61014f565b005b610090610161565b60405161009d9190610274565b60405180910390f35b6100ae6101f0565b6040516100bb9190610430565b60405180910390f35b5f80546100d090610476565b80601f01602080910402602001604051908101604052809291908181526020018280546100fc90610476565b80156101475780601f1061011e57610100808354040283529160200191610147565b820191905f5260205f20905b81548152906001019060200180831161012a57829003601f168201915b505050505081565b805f908161015d9190610643565b5050565b60605f805461016f90610476565b80601f016020809104026020016040519081016040528092919081815260200182805461019b90610476565b80156101e65780601f106101bd576101008083540402835291602001916101e6565b820191905f5260205f20905b8154815290600101906020018083116101c957829003601f168201915b5050505050905090565b5f8080546101fd90610476565b9050905090565b5f81519050919050565b5f82825260208201905092915050565b8281835e5f83830152505050565b5f601f19601f8301169050919050565b5f61024682610204565b610250818561020e565b935061026081856020860161021e565b6102698161022c565b840191505092915050565b5f6020820190508181035f83015261028c818461023c565b905092915050565b5f604051905090565b5f80fd5b5f80fd5b5f80fd5b5f80fd5b7f4e487b71000000000000000000000000000000000000000000000000000000005f52604160045260245ffd5b6102e38261022c565b810181811067ffffffffffffffff82111715610302576103016102ad565b5b80604052505050565b5f610314610294565b905061032082826102da565b919050565b5f67ffffffffffffffff82111561033f5761033e6102ad565b5b6103488261022c565b9050602081019050919050565b828183375f83830152505050565b5f61037561037084610325565b61030b565b905082815260208101848484011115610391576103906102a9565b5b61039c848285610355565b509392505050565b5f82601f8301126103b8576103b76102a5565b5b81356103c8848260208601610363565b91505092915050565b5f602082840312156103e6576103e561029d565b5b5f82013567ffffffffffffffff811115610403576104026102a1565b5b61040f848285016103a4565b91505092915050565b5f819050919050565b61042a81610418565b82525050565b5f6020820190506104435f830184610421565b92915050565b7f4e487b71000000000000000000000000000000000000000000000000000000005f52602260045260245ffd5b5f600282049050600182168061048d57607f821691505b6020821081036104a05761049f610449565b5b50919050565b5f819050815f5260205f209050919050565b5f6020601f8301049050919050565b5f82821b905092915050565b5f600883026105027fffffffffffffffffffffffffffffffffffffffffffffffffffffffffffffffff826104c7565b61050c86836104c7565b95508019841693508086168417925050509392505050565b5f819050919050565b5f61054761054261053d84610418565b610524565b610418565b9050919050565b5f819050919050565b6105608361052d565b61057461056c8261054e565b8484546104d3565b825550505050565b5f90565b61058861057c565b610593818484610557565b505050565b5b818110156105b6576105ab5f82610580565b600181019050610599565b5050565b601f8211156105fb576105cc816104a6565b6105d5846104b8565b810160208510156105e4578190505b6105f86105f0856104b8565b830182610598565b50505b505050565b5f82821c905092915050565b5f61061b5f1984600802610600565b1980831691505092915050565b5f610633838361060c565b9150826002028217905092915050565b61064c82610204565b67ffffffffffffffff811115610665576106646102ad565b5b61066f8254610476565b61067a8282856105ba565b5f60209050601f8311600181146106ab575f8415610699578287015190505b6106a38582610628565b86555061070a565b601f1984166106b9866104a6565b5f5b828110156106e0578489015182556001820191506020850194506020810190506106bb565b868310156106fd57848901516106f9601f89168261060c565b8355505b6001600288020188555050505b50505050505056fea2646970667358221220025654747f3f4a8355847e88989c4889737b316532bd4edf072be71e923b4dfe64736f6c634300081a0033",
					"opcodes": "PUSH1 0x80 PUSH1 0x40 MSTORE CALLVALUE DUP1 ISZERO PUSH1 0xE JUMPI PUSH0 DUP1 REVERT JUMPDEST POP PUSH2 0x748 DUP1 PUSH2 0x1C PUSH0 CODECOPY PUSH0 RETURN INVALID PUSH1 0x80 PUSH1 0x40 MSTORE CALLVALUE DUP1 ISZERO PUSH2 0xF JUMPI PUSH0 DUP1 REVERT JUMPDEST POP PUSH1 0x4 CALLDATASIZE LT PUSH2 0x4A JUMPI PUSH0 CALLDATALOAD PUSH1 0xE0 SHR DUP1 PUSH4 0x492BFA18 EQ PUSH2 0x4E JUMPI DUP1 PUSH4 0x7FCAF666 EQ PUSH2 0x6C JUMPI DUP1 PUSH4 0x89EA642F EQ PUSH2 0x88 JUMPI DUP1 PUSH4 0xD1CFD048 EQ PUSH2 0xA6 JUMPI JUMPDEST PUSH0 DUP1 REVERT JUMPDEST PUSH2 0x56 PUSH2 0xC4 JUMP JUMPDEST PUSH1 0x40 MLOAD PUSH2 0x63 SWAP2 SWAP1 PUSH2 0x274 JUMP JUMPDEST PUSH1 0x40 MLOAD DUP1 SWAP2 SUB SWAP1 RETURN JUMPDEST PUSH2 0x86 PUSH1 0x4 DUP1 CALLDATASIZE SUB DUP2 ADD SWAP1 PUSH2 0x81 SWAP2 SWAP1 PUSH2 0x3D1 JUMP JUMPDEST PUSH2 0x14F JUMP JUMPDEST STOP JUMPDEST PUSH2 0x90 PUSH2 0x161 JUMP JUMPDEST PUSH1 0x40 MLOAD PUSH2 0x9D SWAP2 SWAP1 PUSH2 0x274 JUMP JUMPDEST PUSH1 0x40 MLOAD DUP1 SWAP2 SUB SWAP1 RETURN JUMPDEST PUSH2 0xAE PUSH2 0x1F0 JUMP JUMPDEST PUSH1 0x40 MLOAD PUSH2 0xBB SWAP2 SWAP1 PUSH2 0x430 JUMP JUMPDEST PUSH1 0x40 MLOAD DUP1 SWAP2 SUB SWAP1 RETURN JUMPDEST PUSH0 DUP1 SLOAD PUSH2 0xD0 SWAP1 PUSH2 0x476 JUMP JUMPDEST DUP1 PUSH1 0x1F ADD PUSH1 0x20 DUP1 SWAP2 DIV MUL PUSH1 0x20 ADD PUSH1 0x40 MLOAD SWAP1 DUP2 ADD PUSH1 0x40 MSTORE DUP1 SWAP3 SWAP2 SWAP1 DUP2 DUP2 MSTORE PUSH1 0x20 ADD DUP3 DUP1 SLOAD PUSH2 0xFC SWAP1 PUSH2 0x476 JUMP JUMPDEST DUP1 ISZERO PUSH2 0x147 JUMPI DUP1 PUSH1 0x1F LT PUSH2 0x11E JUMPI PUSH2 0x100 DUP1 DUP4 SLOAD DIV MUL DUP4 MSTORE SWAP2 PUSH1 0x20 ADD SWAP2 PUSH2 0x147 JUMP JUMPDEST DUP3 ADD SWAP2 SWAP1 PUSH0 MSTORE PUSH1 0x20 PUSH0 KECCAK256 SWAP1 JUMPDEST DUP2 SLOAD DUP2 MSTORE SWAP1 PUSH1 0x1 ADD SWAP1 PUSH1 0x20 ADD DUP1 DUP4 GT PUSH2 0x12A JUMPI DUP3 SWAP1 SUB PUSH1 0x1F AND DUP3 ADD SWAP2 JUMPDEST POP POP POP POP POP DUP2 JUMP JUMPDEST DUP1 PUSH0 SWAP1 DUP2 PUSH2 0x15D SWAP2 SWAP1 PUSH2 0x643 JUMP JUMPDEST POP POP JUMP JUMPDEST PUSH1 0x60 PUSH0 DUP1 SLOAD PUSH2 0x16F SWAP1 PUSH2 0x476 JUMP JUMPDEST DUP1 PUSH1 0x1F ADD PUSH1 0x20 DUP1 SWAP2 DIV MUL PUSH1 0x20 ADD PUSH1 0x40 MLOAD SWAP1 DUP2 ADD PUSH1 0x40 MSTORE DUP1 SWAP3 SWAP2 SWAP1 DUP2 DUP2 MSTORE PUSH1 0x20 ADD DUP3 DUP1 SLOAD PUSH2 0x19B SWAP1 PUSH2 0x476 JUMP JUMPDEST DUP1 ISZERO PUSH2 0x1E6 JUMPI DUP1 PUSH1 0x1F LT PUSH2 0x1BD JUMPI PUSH2 0x100 DUP1 DUP4 SLOAD DIV MUL DUP4 MSTORE SWAP2 PUSH1 0x20 ADD SWAP2 PUSH2 0x1E6 JUMP JUMPDEST DUP3 ADD SWAP2 SWAP1 PUSH0 MSTORE PUSH1 0x20 PUSH0 KECCAK256 SWAP1 JUMPDEST DUP2 SLOAD DUP2 MSTORE SWAP1 PUSH1 0x1 ADD SWAP1 PUSH1 0x20 ADD DUP1 DUP4 GT PUSH2 0x1C9 JUMPI DUP3 SWAP1 SUB PUSH1 0x1F AND DUP3 ADD SWAP2 JUMPDEST POP POP POP POP POP SWAP1 POP SWAP1 JUMP JUMPDEST PUSH0 DUP1 DUP1 SLOAD PUSH2 0x1FD SWAP1 PUSH2 0x476 JUMP JUMPDEST SWAP1 POP SWAP1 POP SWAP1 JUMP JUMPDEST PUSH0 DUP2 MLOAD SWAP1 POP SWAP2 SWAP1 POP JUMP JUMPDEST PUSH0 DUP3 DUP3 MSTORE PUSH1 0x20 DUP3 ADD SWAP1 POP SWAP3 SWAP2 POP POP JUMP JUMPDEST DUP3 DUP2 DUP4 MCOPY PUSH0 DUP4 DUP4 ADD MSTORE POP POP POP JUMP JUMPDEST PUSH0 PUSH1 0x1F NOT PUSH1 0x1F DUP4 ADD AND SWAP1 POP SWAP2 SWAP1 POP JUMP JUMPDEST PUSH0 PUSH2 0x246 DUP3 PUSH2 0x204 JUMP JUMPDEST PUSH2 0x250 DUP2 DUP6 PUSH2 0x20E JUMP JUMPDEST SWAP4 POP PUSH2 0x260 DUP2 DUP6 PUSH1 0x20 DUP7 ADD PUSH2 0x21E JUMP JUMPDEST PUSH2 0x269 DUP2 PUSH2 0x22C JUMP JUMPDEST DUP5 ADD SWAP2 POP POP SWAP3 SWAP2 POP POP JUMP JUMPDEST PUSH0 PUSH1 0x20 DUP3 ADD SWAP1 POP DUP2 DUP2 SUB PUSH0 DUP4 ADD MSTORE PUSH2 0x28C DUP2 DUP5 PUSH2 0x23C JUMP JUMPDEST SWAP1 POP SWAP3 SWAP2 POP POP JUMP JUMPDEST PUSH0 PUSH1 0x40 MLOAD SWAP1 POP SWAP1 JUMP JUMPDEST PUSH0 DUP1 REVERT JUMPDEST PUSH0 DUP1 REVERT JUMPDEST PUSH0 DUP1 REVERT JUMPDEST PUSH0 DUP1 REVERT JUMPDEST PUSH32 0x4E487B7100000000000000000000000000000000000000000000000000000000 PUSH0 MSTORE PUSH1 0x41 PUSH1 0x4 MSTORE PUSH1 0x24 PUSH0 REVERT JUMPDEST PUSH2 0x2E3 DUP3 PUSH2 0x22C JUMP JUMPDEST DUP2 ADD DUP2 DUP2 LT PUSH8 0xFFFFFFFFFFFFFFFF DUP3 GT OR ISZERO PUSH2 0x302 JUMPI PUSH2 0x301 PUSH2 0x2AD JUMP JUMPDEST JUMPDEST DUP1 PUSH1 0x40 MSTORE POP POP POP JUMP JUMPDEST PUSH0 PUSH2 0x314 PUSH2 0x294 JUMP JUMPDEST SWAP1 POP PUSH2 0x320 DUP3 DUP3 PUSH2 0x2DA JUMP JUMPDEST SWAP2 SWAP1 POP JUMP JUMPDEST PUSH0 PUSH8 0xFFFFFFFFFFFFFFFF DUP3 GT ISZERO PUSH2 0x33F JUMPI PUSH2 0x33E PUSH2 0x2AD JUMP JUMPDEST JUMPDEST PUSH2 0x348 DUP3 PUSH2 0x22C JUMP JUMPDEST SWAP1 POP PUSH1 0x20 DUP2 ADD SWAP1 POP SWAP2 SWAP1 POP JUMP JUMPDEST DUP3 DUP2 DUP4 CALLDATACOPY PUSH0 DUP4 DUP4 ADD MSTORE POP POP POP JUMP JUMPDEST PUSH0 PUSH2 0x375 PUSH2 0x370 DUP5 PUSH2 0x325 JUMP JUMPDEST PUSH2 0x30B JUMP JUMPDEST SWAP1 POP DUP3 DUP2 MSTORE PUSH1 0x20 DUP2 ADD DUP5 DUP5 DUP5 ADD GT ISZERO PUSH2 0x391 JUMPI PUSH2 0x390 PUSH2 0x2A9 JUMP JUMPDEST JUMPDEST PUSH2 0x39C DUP5 DUP3 DUP6 PUSH2 0x355 JUMP JUMPDEST POP SWAP4 SWAP3 POP POP POP JUMP JUMPDEST PUSH0 DUP3 PUSH1 0x1F DUP4 ADD SLT PUSH2 0x3B8 JUMPI PUSH2 0x3B7 PUSH2 0x2A5 JUMP JUMPDEST JUMPDEST DUP2 CALLDATALOAD PUSH2 0x3C8 DUP5 DUP3 PUSH1 0x20 DUP7 ADD PUSH2 0x363 JUMP JUMPDEST SWAP2 POP POP SWAP3 SWAP2 POP POP JUMP JUMPDEST PUSH0 PUSH1 0x20 DUP3 DUP5 SUB SLT ISZERO PUSH2 0x3E6 JUMPI PUSH2 0x3E5 PUSH2 0x29D JUMP JUMPDEST JUMPDEST PUSH0 DUP3 ADD CALLDATALOAD PUSH8 0xFFFFFFFFFFFFFFFF DUP2 GT ISZERO PUSH2 0x403 JUMPI PUSH2 0x402 PUSH2 0x2A1 JUMP JUMPDEST JUMPDEST PUSH2 0x40F DUP5 DUP3 DUP6 ADD PUSH2 0x3A4 JUMP JUMPDEST SWAP2 POP POP SWAP3 SWAP2 POP POP JUMP JUMPDEST PUSH0 DUP2 SWAP1 POP SWAP2 SWAP1 POP JUMP JUMPDEST PUSH2 0x42A DUP2 PUSH2 0x418 JUMP JUMPDEST DUP3 MSTORE POP POP JUMP JUMPDEST PUSH0 PUSH1 0x20 DUP3 ADD SWAP1 POP PUSH2 0x443 PUSH0 DUP4 ADD DUP5 PUSH2 0x421 JUMP JUMPDEST SWAP3 SWAP2 POP POP JUMP JUMPDEST PUSH32 0x4E487B7100000000000000000000000000000000000000000000000000000000 PUSH0 MSTORE PUSH1 0x22 PUSH1 0x4 MSTORE PUSH1 0x24 PUSH0 REVERT JUMPDEST PUSH0 PUSH1 0x2 DUP3 DIV SWAP1 POP PUSH1 0x1 DUP3 AND DUP1 PUSH2 0x48D JUMPI PUSH1 0x7F DUP3 AND SWAP2 POP JUMPDEST PUSH1 0x20 DUP3 LT DUP2 SUB PUSH2 0x4A0 JUMPI PUSH2 0x49F PUSH2 0x449 JUMP JUMPDEST JUMPDEST POP SWAP2 SWAP1 POP JUMP JUMPDEST PUSH0 DUP2 SWAP1 POP DUP2 PUSH0 MSTORE PUSH1 0x20 PUSH0 KECCAK256 SWAP1 POP SWAP2 SWAP1 POP JUMP JUMPDEST PUSH0 PUSH1 0x20 PUSH1 0x1F DUP4 ADD DIV SWAP1 POP SWAP2 SWAP1 POP JUMP JUMPDEST PUSH0 DUP3 DUP3 SHL SWAP1 POP SWAP3 SWAP2 POP POP JUMP JUMPDEST PUSH0 PUSH1 0x8 DUP4 MUL PUSH2 0x502 PUSH32 0xFFFFFFFFFFFFFFFFFFFFFFFFFFFFFFFFFFFFFFFFFFFFFFFFFFFFFFFFFFFFFFFF DUP3 PUSH2 0x4C7 JUMP JUMPDEST PUSH2 0x50C DUP7 DUP4 PUSH2 0x4C7 JUMP JUMPDEST SWAP6 POP DUP1 NOT DUP5 AND SWAP4 POP DUP1 DUP7 AND DUP5 OR SWAP3 POP POP POP SWAP4 SWAP3 POP POP POP JUMP JUMPDEST PUSH0 DUP2 SWAP1 POP SWAP2 SWAP1 POP JUMP JUMPDEST PUSH0 PUSH2 0x547 PUSH2 0x542 PUSH2 0x53D DUP5 PUSH2 0x418 JUMP JUMPDEST PUSH2 0x524 JUMP JUMPDEST PUSH2 0x418 JUMP JUMPDEST SWAP1 POP SWAP2 SWAP1 POP JUMP JUMPDEST PUSH0 DUP2 SWAP1 POP SWAP2 SWAP1 POP JUMP JUMPDEST PUSH2 0x560 DUP4 PUSH2 0x52D JUMP JUMPDEST PUSH2 0x574 PUSH2 0x56C DUP3 PUSH2 0x54E JUMP JUMPDEST DUP5 DUP5 SLOAD PUSH2 0x4D3 JUMP JUMPDEST DUP3 SSTORE POP POP POP POP JUMP JUMPDEST PUSH0 SWAP1 JUMP JUMPDEST PUSH2 0x588 PUSH2 0x57C JUMP JUMPDEST PUSH2 0x593 DUP2 DUP5 DUP5 PUSH2 0x557 JUMP JUMPDEST POP POP POP JUMP JUMPDEST JUMPDEST DUP2 DUP2 LT ISZERO PUSH2 0x5B6 JUMPI PUSH2 0x5AB PUSH0 DUP3 PUSH2 0x580 JUMP JUMPDEST PUSH1 0x1 DUP2 ADD SWAP1 POP PUSH2 0x599 JUMP JUMPDEST POP POP JUMP JUMPDEST PUSH1 0x1F DUP3 GT ISZERO PUSH2 0x5FB JUMPI PUSH2 0x5CC DUP2 PUSH2 0x4A6 JUMP JUMPDEST PUSH2 0x5D5 DUP5 PUSH2 0x4B8 JUMP JUMPDEST DUP2 ADD PUSH1 0x20 DUP6 LT ISZERO PUSH2 0x5E4 JUMPI DUP2 SWAP1 POP JUMPDEST PUSH2 0x5F8 PUSH2 0x5F0 DUP6 PUSH2 0x4B8 JUMP JUMPDEST DUP4 ADD DUP3 PUSH2 0x598 JUMP JUMPDEST POP POP JUMPDEST POP POP POP JUMP JUMPDEST PUSH0 DUP3 DUP3 SHR SWAP1 POP SWAP3 SWAP2 POP POP JUMP JUMPDEST PUSH0 PUSH2 0x61B PUSH0 NOT DUP5 PUSH1 0x8 MUL PUSH2 0x600 JUMP JUMPDEST NOT DUP1 DUP4 AND SWAP2 POP POP SWAP3 SWAP2 POP POP JUMP JUMPDEST PUSH0 PUSH2 0x633 DUP4 DUP4 PUSH2 0x60C JUMP JUMPDEST SWAP2 POP DUP3 PUSH1 0x2 MUL DUP3 OR SWAP1 POP SWAP3 SWAP2 POP POP JUMP JUMPDEST PUSH2 0x64C DUP3 PUSH2 0x204 JUMP JUMPDEST PUSH8 0xFFFFFFFFFFFFFFFF DUP2 GT ISZERO PUSH2 0x665 JUMPI PUSH2 0x664 PUSH2 0x2AD JUMP JUMPDEST JUMPDEST PUSH2 0x66F DUP3 SLOAD PUSH2 0x476 JUMP JUMPDEST PUSH2 0x67A DUP3 DUP3 DUP6 PUSH2 0x5BA JUMP JUMPDEST PUSH0 PUSH1 0x20 SWAP1 POP PUSH1 0x1F DUP4 GT PUSH1 0x1 DUP2 EQ PUSH2 0x6AB JUMPI PUSH0 DUP5 ISZERO PUSH2 0x699 JUMPI DUP3 DUP8 ADD MLOAD SWAP1 POP JUMPDEST PUSH2 0x6A3 DUP6 DUP3 PUSH2 0x628 JUMP JUMPDEST DUP7 SSTORE POP PUSH2 0x70A JUMP JUMPDEST PUSH1 0x1F NOT DUP5 AND PUSH2 0x6B9 DUP7 PUSH2 0x4A6 JUMP JUMPDEST PUSH0 JUMPDEST DUP3 DUP2 LT ISZERO PUSH2 0x6E0 JUMPI DUP5 DUP10 ADD MLOAD DUP3 SSTORE PUSH1 0x1 DUP3 ADD SWAP2 POP PUSH1 0x20 DUP6 ADD SWAP5 POP PUSH1 0x20 DUP2 ADD SWAP1 POP PUSH2 0x6BB JUMP JUMPDEST DUP7 DUP4 LT ISZERO PUSH2 0x6FD JUMPI DUP5 DUP10 ADD MLOAD PUSH2 0x6F9 PUSH1 0x1F DUP10 AND DUP3 PUSH2 0x60C JUMP JUMPDEST DUP4 SSTORE POP JUMPDEST PUSH1 0x1 PUSH1 0x2 DUP9 MUL ADD DUP9 SSTORE POP POP POP JUMPDEST POP POP POP POP POP POP JUMP INVALID LOG2 PUSH5 0x6970667358 0x22 SLT KECCAK256 MUL JUMP SLOAD PUSH21 0x7F3F4A8355847E88989C4889737B316532BD4EDF07 0x2B 0xE7 0x1E SWAP3 EXTCODESIZE 0x4D INVALID PUSH5 0x736F6C6343 STOP ADDMOD BYTE STOP CALLER "
				},
				"gasEstimates": {
					"creation": {
						"codeDepositCost": "372800",
						"executionCost": "409",
						"totalCost": "373209"
					},
					"external": {
						"getString()": "infinite",
						"getStringLength()": "2608",
						"myString()": "infinite",
						"setString(string)": "infinite"
					}
				},
				"methodIdentifiers": {
					"getString()": "89ea642f",
					"getStringLength()": "d1cfd048",
					"myString()": "492bfa18",
					"setString(string)": "7fcaf666"
				}
			},
			"storageLayout": {
				"storage": [
					{
						"astId": 3,
						"contract": "contracts/StringDataType.sol:StringDataType",
						"label": "myString",
						"offset": 0,
						"slot": "0",
						"type": "t_string_storage"
					}
				],
				"types": {
					"t_string_storage": {
						"encoding": "bytes",
						"label": "string",
						"numberOfBytes": "32"
					}
				}
			},
			"userdoc": {
				"kind": "user",
				"methods": {},
				"version": 1
			}
		}
	}
}