{
	"data": {
		"bytecode": {
			"linkReferences": {},
			"object": "6080604052348015600e575f80fd5b506108688061001c5f395ff3fe608060405234801561000f575f80fd5b5060043610610086575f3560e01c8063be1c766b11610059578063be1c766b146100fe578063c217a86f1461011c578063d504ea1d14610126578063ee158f191461014457610086565b80632f11a6451461008a578063823bed2d146100a85780639a66ea2e146100b25780639f704154146100ce575b5f80fd5b610092610162565b60405161009f919061047f565b60405180910390f35b6100b06101b0565b005b6100cc60048036038101906100c791906104c6565b610204565b005b6100e860048036038101906100e391906104c6565b61022c565b6040516100f5919061047f565b60405180910390f35b610106610297565b604051610113919061047f565b60405180910390f35b6101246102a2565b005b61012e61030e565b60405161013b91906105a8565b60405180910390f35b61014c610363565b604051610159919061047f565b60405180910390f35b5f805f5b5f805490508110156101a8575f8181548110610185576101846105c8565b5b905f5260205f200154826101999190610622565b91508080600101915050610166565b508091505090565b5f8080549050036101f6576040517f08c379a00000000000000000000000000000000000000000000000000000000081526004016101ed906106af565b60405180910390fd5b5f80610202919061042e565b565b5f81908060018154018082558091505060019003905f5260205f20015f909190919091505550565b5f815f805490501015610274576040517f08c379a000000000000000000000000000000000000000000000000000000000815260040161026b90610717565b60405180910390fd5b5f8281548110610287576102866105c8565b5b905f5260205f2001549050919050565b5f8080549050905090565b5f8080549050116102e8576040517f08c379a00000000000000000000000000000000000000000000000000000000081526004016102df9061077f565b60405180910390fd5b5f8054806102f9576102f861079d565b5b600190038181905f5260205f20015f90559055565b60605f80548060200260200160405190810160405280929190818152602001828054801561035957602002820191905f5260205f20905b815481526020019060010190808311610345575b5050505050905090565b5f805f80549050036103aa576040517f08c379a00000000000000000000000000000000000000000000000000000000081526004016103a190610814565b60405180910390fd5b5f805f815481106103be576103bd6105c8565b5b905f5260205f20015490505f5b5f80549050811015610426575f81815481106103ea576103e96105c8565b5b905f5260205f200154821015610419575f818154811061040d5761040c6105c8565b5b905f5260205f20015491505b80806001019150506103cb565b508091505090565b5080545f8255905f5260205f2090810190610449919061044c565b50565b5b80821115610463575f815f90555060010161044d565b5090565b5f819050919050565b61047981610467565b82525050565b5f6020820190506104925f830184610470565b92915050565b5f80fd5b6104a581610467565b81146104af575f80fd5b50565b5f813590506104c08161049c565b92915050565b5f602082840312156104db576104da610498565b5b5f6104e8848285016104b2565b91505092915050565b5f81519050919050565b5f82825260208201905092915050565b5f819050602082019050919050565b61052381610467565b82525050565b5f610534838361051a565b60208301905092915050565b5f602082019050919050565b5f610556826104f1565b61056081856104fb565b935061056b8361050b565b805f5b8381101561059b5781516105828882610529565b975061058d83610540565b92505060018101905061056e565b5085935050505092915050565b5f6020820190508181035f8301526105c0818461054c565b905092915050565b7f4e487b71000000000000000000000000000000000000000000000000000000005f52603260045260245ffd5b7f4e487b71000000000000000000000000000000000000000000000000000000005f52601160045260245ffd5b5f61062c82610467565b915061063783610467565b925082820190508082111561064f5761064e6105f5565b5b92915050565b5f82825260208201905092915050565b7f417272617920697320616c726561647920656d7074792e0000000000000000005f82015250565b5f610699601783610655565b91506106a482610665565b602082019050919050565b5f6020820190508181035f8301526106c68161068d565b9050919050565b7f417272617920696e646578206f7574206f6620626f756e642e000000000000005f82015250565b5f610701601983610655565b915061070c826106cd565b602082019050919050565b5f6020820190508181035f83015261072e816106f5565b9050919050565b7f417272617920697320616c726561647920656d707479000000000000000000005f82015250565b5f610769601683610655565b915061077482610735565b602082019050919050565b5f6020820190508181035f8301526107968161075d565b9050919050565b7f4e487b71000000000000000000000000000000000000000000000000000000005f52603160045260245ffd5b7f417272617920697320656d7074792e00000000000000000000000000000000005f82015250565b5f6107fe600f83610655565b9150610809826107ca565b602082019050919050565b5f6020820190508181035f83015261082b816107f2565b905091905056fea2646970667358221220d808db44698dd96026b01fd1cd204b93ff14b926d6216922f6b6479e1c8ea91164736f6c634300081a0033",
			"opcodes": "PUSH1 0x80 PUSH1 0x40 MSTORE CALLVALUE DUP1 ISZERO PUSH1 0xE JUMPI PUSH0 DUP1 REVERT JUMPDEST POP PUSH2 0x868 DUP1 PUSH2 0x1C PUSH0 CODECOPY PUSH0 RETURN INVALID PUSH1 0x80 PUSH1 0x40 MSTORE CALLVALUE DUP1 ISZERO PUSH2 0xF JUMPI PUSH0 DUP1 REVERT JUMPDEST POP PUSH1 0x4 CALLDATASIZE LT PUSH2 0x86 JUMPI PUSH0 CALLDATALOAD PUSH1 0xE0 SHR DUP1 PUSH4 0xBE1C766B GT PUSH2 0x59 JUMPI DUP1 PUSH4 0xBE1C766B EQ PUSH2 0xFE JUMPI DUP1 PUSH4 0xC217A86F EQ PUSH2 0x11C JUMPI DUP1 PUSH4 0xD504EA1D EQ PUSH2 0x126 JUMPI DUP1 PUSH4 0xEE158F19 EQ PUSH2 0x144 JUMPI PUSH2 0x86 JUMP JUMPDEST DUP1 PUSH4 0x2F11A645 EQ PUSH2 0x8A JUMPI DUP1 PUSH4 0x823BED2D EQ PUSH2 0xA8 JUMPI DUP1 PUSH4 0x9A66EA2E EQ PUSH2 0xB2 JUMPI DUP1 PUSH4 0x9F704154 EQ PUSH2 0xCE JUMPI JUMPDEST PUSH0 DUP1 REVERT JUMPDEST PUSH2 0x92 PUSH2 0x162 JUMP JUMPDEST PUSH1 0x40 MLOAD PUSH2 0x9F SWAP2 SWAP1 PUSH2 0x47F JUMP JUMPDEST PUSH1 0x40 MLOAD DUP1 SWAP2 SUB SWAP1 RETURN JUMPDEST PUSH2 0xB0 PUSH2 0x1B0 JUMP JUMPDEST STOP JUMPDEST PUSH2 0xCC PUSH1 0x4 DUP1 CALLDATASIZE SUB DUP2 ADD SWAP1 PUSH2 0xC7 SWAP2 SWAP1 PUSH2 0x4C6 JUMP JUMPDEST PUSH2 0x204 JUMP JUMPDEST STOP JUMPDEST PUSH2 0xE8 PUSH1 0x4 DUP1 CALLDATASIZE SUB DUP2 ADD SWAP1 PUSH2 0xE3 SWAP2 SWAP1 PUSH2 0x4C6 JUMP JUMPDEST PUSH2 0x22C JUMP JUMPDEST PUSH1 0x40 MLOAD PUSH2 0xF5 SWAP2 SWAP1 PUSH2 0x47F JUMP JUMPDEST PUSH1 0x40 MLOAD DUP1 SWAP2 SUB SWAP1 RETURN JUMPDEST PUSH2 0x106 PUSH2 0x297 JUMP JUMPDEST PUSH1 0x40 MLOAD PUSH2 0x113 SWAP2 SWAP1 PUSH2 0x47F JUMP JUMPDEST PUSH1 0x40 MLOAD DUP1 SWAP2 SUB SWAP1 RETURN JUMPDEST PUSH2 0x124 PUSH2 0x2A2 JUMP JUMPDEST STOP JUMPDEST PUSH2 0x12E PUSH2 0x30E JUMP JUMPDEST PUSH1 0x40 MLOAD PUSH2 0x13B SWAP2 SWAP1 PUSH2 0x5A8 JUMP JUMPDEST PUSH1 0x40 MLOAD DUP1 SWAP2 SUB SWAP1 RETURN JUMPDEST PUSH2 0x14C PUSH2 0x363 JUMP JUMPDEST PUSH1 0x40 MLOAD PUSH2 0x159 SWAP2 SWAP1 PUSH2 0x47F JUMP JUMPDEST PUSH1 0x40 MLOAD DUP1 SWAP2 SUB SWAP1 RETURN JUMPDEST PUSH0 DUP1 PUSH0 JUMPDEST PUSH0 DUP1 SLOAD SWAP1 POP DUP2 LT ISZERO PUSH2 0x1A8 JUMPI PUSH0 DUP2 DUP2 SLOAD DUP2 LT PUSH2 0x185 JUMPI PUSH2 0x184 PUSH2 0x5C8 JUMP JUMPDEST JUMPDEST SWAP1 PUSH0 MSTORE PUSH1 0x20 PUSH0 KECCAK256 ADD SLOAD DUP3 PUSH2 0x199 SWAP2 SWAP1 PUSH2 0x622 JUMP JUMPDEST SWAP2 POP DUP1 DUP1 PUSH1 0x1 ADD SWAP2 POP POP PUSH2 0x166 JUMP JUMPDEST POP DUP1 SWAP2 POP POP SWAP1 JUMP JUMPDEST PUSH0 DUP1 DUP1 SLOAD SWAP1 POP SUB PUSH2 0x1F6 JUMPI PUSH1 0x40 MLOAD PUSH32 0x8C379A000000000000000000000000000000000000000000000000000000000 DUP2 MSTORE PUSH1 0x4 ADD PUSH2 0x1ED SWAP1 PUSH2 0x6AF JUMP JUMPDEST PUSH1 0x40 MLOAD DUP1 SWAP2 SUB SWAP1 REVERT JUMPDEST PUSH0 DUP1 PUSH2 0x202 SWAP2 SWAP1 PUSH2 0x42E JUMP JUMPDEST JUMP JUMPDEST PUSH0 DUP2 SWAP1 DUP1 PUSH1 0x1 DUP2 SLOAD ADD DUP1 DUP3 SSTORE DUP1 SWAP2 POP POP PUSH1 0x1 SWAP1 SUB SWAP1 PUSH0 MSTORE PUSH1 0x20 PUSH0 KECCAK256 ADD PUSH0 SWAP1 SWAP2 SWAP1 SWAP2 SWAP1 SWAP2 POP SSTORE POP JUMP JUMPDEST PUSH0 DUP2 PUSH0 DUP1 SLOAD SWAP1 POP LT ISZERO PUSH2 0x274 JUMPI PUSH1 0x40 MLOAD PUSH32 0x8C379A000000000000000000000000000000000000000000000000000000000 DUP2 MSTORE PUSH1 0x4 ADD PUSH2 0x26B SWAP1 PUSH2 0x717 JUMP JUMPDEST PUSH1 0x40 MLOAD DUP1 SWAP2 SUB SWAP1 REVERT JUMPDEST PUSH0 DUP3 DUP2 SLOAD DUP2 LT PUSH2 0x287 JUMPI PUSH2 0x286 PUSH2 0x5C8 JUMP JUMPDEST JUMPDEST SWAP1 PUSH0 MSTORE PUSH1 0x20 PUSH0 KECCAK256 ADD SLOAD SWAP1 POP SWAP2 SWAP1 POP JUMP JUMPDEST PUSH0 DUP1 DUP1 SLOAD SWAP1 POP SWAP1 POP SWAP1 JUMP JUMPDEST PUSH0 DUP1 DUP1 SLOAD SWAP1 POP GT PUSH2 0x2E8 JUMPI PUSH1 0x40 MLOAD PUSH32 0x8C379A000000000000000000000000000000000000000000000000000000000 DUP2 MSTORE PUSH1 0x4 ADD PUSH2 0x2DF SWAP1 PUSH2 0x77F JUMP JUMPDEST PUSH1 0x40 MLOAD DUP1 SWAP2 SUB SWAP1 REVERT JUMPDEST PUSH0 DUP1 SLOAD DUP1 PUSH2 0x2F9 JUMPI PUSH2 0x2F8 PUSH2 0x79D JUMP JUMPDEST JUMPDEST PUSH1 0x1 SWAP1 SUB DUP2 DUP2 SWAP1 PUSH0 MSTORE PUSH1 0x20 PUSH0 KECCAK256 ADD PUSH0 SWAP1 SSTORE SWAP1 SSTORE JUMP JUMPDEST PUSH1 0x60 PUSH0 DUP1 SLOAD DUP1 PUSH1 0x20 MUL PUSH1 0x20 ADD PUSH1 0x40 MLOAD SWAP1 DUP2 ADD PUSH1 0x40 MSTORE DUP1 SWAP3 SWAP2 SWAP1 DUP2 DUP2 MSTORE PUSH1 0x20 ADD DUP3 DUP1 SLOAD DUP1 ISZERO PUSH2 0x359 JUMPI PUSH1 0x20 MUL DUP3 ADD SWAP2 SWAP1 PUSH0 MSTORE PUSH1 0x20 PUSH0 KECCAK256 SWAP1 JUMPDEST DUP2 SLOAD DUP2 MSTORE PUSH1 0x20 ADD SWAP1 PUSH1 0x1 ADD SWAP1 DUP1 DUP4 GT PUSH2 0x345 JUMPI JUMPDEST POP POP POP POP POP SWAP1 POP SWAP1 JUMP JUMPDEST PUSH0 DUP1 PUSH0 DUP1 SLOAD SWAP1 POP SUB PUSH2 0x3AA JUMPI PUSH1 0x40 MLOAD PUSH32 0x8C379A000000000000000000000000000000000000000000000000000000000 DUP2 MSTORE PUSH1 0x4 ADD PUSH2 0x3A1 SWAP1 PUSH2 0x814 JUMP JUMPDEST PUSH1 0x40 MLOAD DUP1 SWAP2 SUB SWAP1 REVERT JUMPDEST PUSH0 DUP1 PUSH0 DUP2 SLOAD DUP2 LT PUSH2 0x3BE JUMPI PUSH2 0x3BD PUSH2 0x5C8 JUMP JUMPDEST JUMPDEST SWAP1 PUSH0 MSTORE PUSH1 0x20 PUSH0 KECCAK256 ADD SLOAD SWAP1 POP PUSH0 JUMPDEST PUSH0 DUP1 SLOAD SWAP1 POP DUP2 LT ISZERO PUSH2 0x426 JUMPI PUSH0 DUP2 DUP2 SLOAD DUP2 LT PUSH2 0x3EA JUMPI PUSH2 0x3E9 PUSH2 0x5C8 JUMP JUMPDEST JUMPDEST SWAP1 PUSH0 MSTORE PUSH1 0x20 PUSH0 KECCAK256 ADD SLOAD DUP3 LT ISZERO PUSH2 0x419 JUMPI PUSH0 DUP2 DUP2 SLOAD DUP2 LT PUSH2 0x40D JUMPI PUSH2 0x40C PUSH2 0x5C8 JUMP JUMPDEST JUMPDEST SWAP1 PUSH0 MSTORE PUSH1 0x20 PUSH0 KECCAK256 ADD SLOAD SWAP2 POP JUMPDEST DUP1 DUP1 PUSH1 0x1 ADD SWAP2 POP POP PUSH2 0x3CB JUMP JUMPDEST POP DUP1 SWAP2 POP POP SWAP1 JUMP JUMPDEST POP DUP1 SLOAD PUSH0 DUP3 SSTORE SWAP1 PUSH0 MSTORE PUSH1 0x20 PUSH0 KECCAK256 SWAP1 DUP2 ADD SWAP1 PUSH2 0x449 SWAP2 SWAP1 PUSH2 0x44C JUMP JUMPDEST POP JUMP JUMPDEST JUMPDEST DUP1 DUP3 GT ISZERO PUSH2 0x463 JUMPI PUSH0 DUP2 PUSH0 SWAP1 SSTORE POP PUSH1 0x1 ADD PUSH2 0x44D JUMP JUMPDEST POP SWAP1 JUMP JUMPDEST PUSH0 DUP2 SWAP1 POP SWAP2 SWAP1 POP JUMP JUMPDEST PUSH2 0x479 DUP2 PUSH2 0x467 JUMP JUMPDEST DUP3 MSTORE POP POP JUMP JUMPDEST PUSH0 PUSH1 0x20 DUP3 ADD SWAP1 POP PUSH2 0x492 PUSH0 DUP4 ADD DUP5 PUSH2 0x470 JUMP JUMPDEST SWAP3 SWAP2 POP POP JUMP JUMPDEST PUSH0 DUP1 REVERT JUMPDEST PUSH2 0x4A5 DUP2 PUSH2 0x467 JUMP JUMPDEST DUP2 EQ PUSH2 0x4AF JUMPI PUSH0 DUP1 REVERT JUMPDEST POP JUMP JUMPDEST PUSH0 DUP2 CALLDATALOAD SWAP1 POP PUSH2 0x4C0 DUP2 PUSH2 0x49C JUMP JUMPDEST SWAP3 SWAP2 POP POP JUMP JUMPDEST PUSH0 PUSH1 0x20 DUP3 DUP5 SUB SLT ISZERO PUSH2 0x4DB JUMPI PUSH2 0x4DA PUSH2 0x498 JUMP JUMPDEST JUMPDEST PUSH0 PUSH2 0x4E8 DUP5 DUP3 DUP6 ADD PUSH2 0x4B2 JUMP JUMPDEST SWAP2 POP POP SWAP3 SWAP2 POP POP JUMP JUMPDEST PUSH0 DUP2 MLOAD SWAP1 POP SWAP2 SWAP1 POP JUMP JUMPDEST PUSH0 DUP3 DUP3 MSTORE PUSH1 0x20 DUP3 ADD SWAP1 POP SWAP3 SWAP2 POP POP JUMP JUMPDEST PUSH0 DUP2 SWAP1 POP PUSH1 0x20 DUP3 ADD SWAP1 POP SWAP2 SWAP1 POP JUMP JUMPDEST PUSH2 0x523 DUP2 PUSH2 0x467 JUMP JUMPDEST DUP3 MSTORE POP POP JUMP JUMPDEST PUSH0 PUSH2 0x534 DUP4 DUP4 PUSH2 0x51A JUMP JUMPDEST PUSH1 0x20 DUP4 ADD SWAP1 POP SWAP3 SWAP2 POP POP JUMP JUMPDEST PUSH0 PUSH1 0x20 DUP3 ADD SWAP1 POP SWAP2 SWAP1 POP JUMP JUMPDEST PUSH0 PUSH2 0x556 DUP3 PUSH2 0x4F1 JUMP JUMPDEST PUSH2 0x560 DUP2 DUP6 PUSH2 0x4FB JUMP JUMPDEST SWAP4 POP PUSH2 0x56B DUP4 PUSH2 0x50B JUMP JUMPDEST DUP1 PUSH0 JUMPDEST DUP4 DUP2 LT ISZERO PUSH2 0x59B JUMPI DUP2 MLOAD PUSH2 0x582 DUP9 DUP3 PUSH2 0x529 JUMP JUMPDEST SWAP8 POP PUSH2 0x58D DUP4 PUSH2 0x540 JUMP JUMPDEST SWAP3 POP POP PUSH1 0x1 DUP2 ADD SWAP1 POP PUSH2 0x56E JUMP JUMPDEST POP DUP6 SWAP4 POP POP POP POP SWAP3 SWAP2 POP POP JUMP JUMPDEST PUSH0 PUSH1 0x20 DUP3 ADD SWAP1 POP DUP2 DUP2 SUB PUSH0 DUP4 ADD MSTORE PUSH2 0x5C0 DUP2 DUP5 PUSH2 0x54C JUMP JUMPDEST SWAP1 POP SWAP3 SWAP2 POP POP JUMP JUMPDEST PUSH32 0x4E487B7100000000000000000000000000000000000000000000000000000000 PUSH0 MSTORE PUSH1 0x32 PUSH1 0x4 MSTORE PUSH1 0x24 PUSH0 REVERT JUMPDEST PUSH32 0x4E487B7100000000000000000000000000000000000000000000000000000000 PUSH0 MSTORE PUSH1 0x11 PUSH1 0x4 MSTORE PUSH1 0x24 PUSH0 REVERT JUMPDEST PUSH0 PUSH2 0x62C DUP3 PUSH2 0x467 JUMP JUMPDEST SWAP2 POP PUSH2 0x637 DUP4 PUSH2 0x467 JUMP JUMPDEST SWAP3 POP DUP3 DUP3 ADD SWAP1 POP DUP1 DUP3 GT ISZERO PUSH2 0x64F JUMPI PUSH2 0x64E PUSH2 0x5F5 JUMP JUMPDEST JUMPDEST SWAP3 SWAP2 POP POP JUMP JUMPDEST PUSH0 DUP3 DUP3 MSTORE PUSH1 0x20 DUP3 ADD SWAP1 POP SWAP3 SWAP2 POP POP JUMP JUMPDEST PUSH32 0x417272617920697320616C726561647920656D7074792E000000000000000000 PUSH0 DUP3 ADD MSTORE POP JUMP JUMPDEST PUSH0 PUSH2 0x699 PUSH1 0x17 DUP4 PUSH2 0x655 JUMP JUMPDEST SWAP2 POP PUSH2 0x6A4 DUP3 PUSH2 0x665 JUMP JUMPDEST PUSH1 0x20 DUP3 ADD SWAP1 POP SWAP2 SWAP1 POP JUMP JUMPDEST PUSH0 PUSH1 0x20 DUP3 ADD SWAP1 POP DUP2 DUP2 SUB PUSH0 DUP4 ADD MSTORE PUSH2 0x6C6 DUP2 PUSH2 0x68D JUMP JUMPDEST SWAP1 POP SWAP2 SWAP1 POP JUMP JUMPDEST PUSH32 0x417272617920696E646578206F7574206F6620626F756E642E00000000000000 PUSH0 DUP3 ADD MSTORE POP JUMP JUMPDEST PUSH0 PUSH2 0x701 PUSH1 0x19 DUP4 PUSH2 0x655 JUMP JUMPDEST SWAP2 POP PUSH2 0x70C DUP3 PUSH2 0x6CD JUMP JUMPDEST PUSH1 0x20 DUP3 ADD SWAP1 POP SWAP2 SWAP1 POP JUMP JUMPDEST PUSH0 PUSH1 0x20 DUP3 ADD SWAP1 POP DUP2 DUP2 SUB PUSH0 DUP4 ADD MSTORE PUSH2 0x72E DUP2 PUSH2 0x6F5 JUMP JUMPDEST SWAP1 POP SWAP2 SWAP1 POP JUMP JUMPDEST PUSH32 0x417272617920697320616C726561647920656D70747900000000000000000000 PUSH0 DUP3 ADD MSTORE POP JUMP JUMPDEST PUSH0 PUSH2 0x769 PUSH1 0x16 DUP4 PUSH2 0x655 JUMP JUMPDEST SWAP2 POP PUSH2 0x774 DUP3 PUSH2 0x735 JUMP JUMPDEST PUSH1 0x20 DUP3 ADD SWAP1 POP SWAP2 SWAP1 POP JUMP JUMPDEST PUSH0 PUSH1 0x20 DUP3 ADD SWAP1 POP DUP2 DUP2 SUB PUSH0 DUP4 ADD MSTORE PUSH2 0x796 DUP2 PUSH2 0x75D JUMP JUMPDEST SWAP1 POP SWAP2 SWAP1 POP JUMP JUMPDEST PUSH32 0x4E487B7100000000000000000000000000000000000000000000000000000000 PUSH0 MSTORE PUSH1 0x31 PUSH1 0x4 MSTORE PUSH1 0x24 PUSH0 REVERT JUMPDEST PUSH32 0x417272617920697320656D7074792E0000000000000000000000000000000000 PUSH0 DUP3 ADD MSTORE POP JUMP JUMPDEST PUSH0 PUSH2 0x7FE PUSH1 0xF DUP4 PUSH2 0x655 JUMP JUMPDEST SWAP2 POP PUSH2 0x809 DUP3 PUSH2 0x7CA JUMP JUMPDEST PUSH1 0x20 DUP3 ADD SWAP1 POP SWAP2 SWAP1 POP JUMP JUMPDEST PUSH0 PUSH1 0x20 DUP3 ADD SWAP1 POP DUP2 DUP2 SUB PUSH0 DUP4 ADD MSTORE PUSH2 0x82B DUP2 PUSH2 0x7F2 JUMP JUMPDEST SWAP1 POP SWAP2 SWAP1 POP JUMP INVALID LOG2 PUSH5 0x6970667358 0x22 SLT KECCAK256 0xD8 ADDMOD 0xDB PREVRANDAO PUSH10 0x8DD96026B01FD1CD204B SWAP4 SELFDESTRUCT EQ 0xB9 0x26 0xD6 0x21 PUSH10 0x22F6B6479E1C8EA91164 PUSH20 0x6F6C634300081A00330000000000000000000000 "
		},
		"gasEstimates": {
			"creation": {
				"codeDepositCost": "430400",
				"executionCost": "466",
				"totalCost": "430866"
			},
			"external": {
				"addValueInArray(uint256)": "46865",
				"cleanValueInArray()": "infinite",
				"findMaxValueInArray()": "infinite",
				"getArray()": "infinite",
				"getLength()": "2440",
				"getValueInArray(uint256)": "infinite",
				"removeLastValueInArray()": "31592",
				"sumAllValueInArray()": "infinite"
			}
		},
		"methodIdentifiers": {
			"addValueInArray(uint256)": "9a66ea2e",
			"cleanValueInArray()": "823bed2d",
			"findMaxValueInArray()": "ee158f19",
			"getArray()": "d504ea1d",
			"getLength()": "be1c766b",
			"getValueInArray(uint256)": "9f704154",
			"removeLastValueInArray()": "c217a86f",
			"sumAllValueInArray()": "2f11a645"
		}
	},
	"abi": [
		{
			"inputs": [
				{
					"internalType": "uint256",
					"name": "value",
					"type": "uint256"
				}
			],
			"name": "addValueInArray",
			"outputs": [],
			"stateMutability": "nonpayable",
			"type": "function"
		},
		{
			"inputs": [],
			"name": "cleanValueInArray",
			"outputs": [],
			"stateMutability": "nonpayable",
			"type": "function"
		},
		{
			"inputs": [],
			"name": "findMaxValueInArray",
			"outputs": [
				{
					"internalType": "uint256",
					"name": "",
					"type": "uint256"
				}
			],
			"stateMutability": "view",
			"type": "function"
		},
		{
			"inputs": [],
			"name": "getArray",
			"outputs": [
				{
					"internalType": "uint256[]",
					"name": "",
					"type": "uint256[]"
				}
			],
			"stateMutability": "view",
			"type": "function"
		},
		{
			"inputs": [],
			"name": "getLength",
			"outputs": [
				{
					"internalType": "uint256",
					"name": "",
					"type": "uint256"
				}
			],
			"stateMutability": "view",
			"type": "function"
		},
		{
			"inputs": [
				{
					"internalType": "uint256",
					"name": "index",
					"type": "uint256"
				}
			],
			"name": "getValueInArray",
			"outputs": [
				{
					"internalType": "uint256",
					"name": "",
					"type": "uint256"
				}
			],
			"stateMutability": "view",
			"type": "function"
		},
		{
			"inputs": [],
			"name": "removeLastValueInArray",
			"outputs": [],
			"stateMutability": "nonpayable",
			"type": "function"
		},
		{
			"inputs": [],
			"name": "sumAllValueInArray",
			"outputs": [
				{
					"internalType": "uint256",
					"name": "",
					"type": "uint256"
				}
			],
			"stateMutability": "view",
			"type": "function"
		}
	]
}